:020000040800F2
:100000008009002001010008953D000875210008C5
:10001000913D000849010008514F00080000000010
:10002000000000000000000000000000BD3E0008CD
:100030004D01000800000000993D0008C13E000885
:100040001B0100081B0100081B0100081B01000820
:100050001B0100081B010008510100081B010008DA
:100060001B0100081B0100081B0100081B01000800
:100070001B0100081B0100081B0100081B010008F0
:100080001B0100081B0100081B0100081B010008E0
:100090001B0100081B0100081B0100081B010008D0
:1000A0001B0100081B0100081B0100081B010008C0
:1000B0001B010008C93E00081B0100081B010008C5
:1000C0001B0100081B0100081B0100081B010008A0
:1000D0001B0100081B0100081B0100081B01000890
:1000E0001B0100081B0100081B010008DFF80CD0F1
:1000F00000F018F8004800477D61000880090020E2
:100100000648804706480047FEE7FEE7FEE7FEE7B1
:10011000FEE7FEE7FEE7FEE7FEE7FEE7C53E000876
:10012000ED000008064C074D06E0E06840F00103D2
:1001300094E8070098471034AC42F6D3FFF7DAFF93
:1001400048A9000868A90008FEE700007047000001
:10015000012000F079BA0000EFF3108072B600BF02
:10016000FEE70000B0B584B040F26C04C2F20004B7
:1001700042F24541C0F600012046A022502304F07F
:1001800007F9204604F0CCFA40F2F444C2F200042D
:1001900040F2702146F2A123C2F20001C0F6000332
:1001A00020460A2204F0B8FC4AF63811C0F60001D5
:1001B000204604F079FE46F23C31C0F600012046AC
:1001C00004F092FE20464FF6FF7104F02DFE20460B
:1001D0004FF4FC6104F038FE20460021002504F0B5
:1001E00073FE7E20CDE9005040F22400C2F20000F0
:1001F0004FF0230C00F12801204600222423CDF8E3
:1002000008C003F067FE46F23432C0F60002204612
:10021000002103F009FF204600214FF4784203F04B
:100220002DFF20460021002203F0D4FE1CA2204610
:10023000002103F091FF20460021012203F048FF36
:10024000204604F071FE39252046002100229F231C
:10025000009504F0FDFC1F2004F072FA4FF6FF70C9
:1002600004F066FA46F22430C0F6000004F086F886
:100270000DA200203C2104F005FA6420382101225F
:1002800002F094F940F21000C2F2000003886420EA
:100290003821012204B0BDE8B04002F05FBA00BFCF
:1002A0004D65617375726500424154544552593A27
:1002B0000000000010B581B00022009290F82420C8
:1002C000012A03D10221084601B010BD4B6801226A
:1002D000062B80F8242017D8D0F800C003EB830346
:1002E0005A1F1F23DCF834E003FA02F40B682EEAED
:1002F000040403FA02F22243CCF83420092B03EB66
:10030000430219D936E000BFD0F800C00C2B03EB34
:1003100083021DD8233A1F23DCF830E003FA02F4ED
:100320000B682EEA040403FA02F22243CCF83020D0
:10033000092B03EB43021DD8DCF810300724896831
:100340009440A34391401943CCF81010002130E0B1
:10035000413A1F23DCF82CE003FA02F40B682EEA82
:10036000040403FA02F22243CCF82C20092B03EBFD
:100370004302E1D9DCF80CE01E3A07248968944076
:100380002EEA0404914023F001022143102ACCF804
:100390000C100DD142F20841C4F20101A1F1080292
:1003A00094450DD0816A41F020018162012100E075
:1003B0000021002280F82420084601B010BD00BFB3
:1003C0000A68120230D40A68102B42F400020A6054
:1003D0002CD140F21401C2F2000109684DF683628B
:1003E000C4F21B32A1FB0212910C01EB8101490006
:1003F00000910099E1B10099013900910099C9B1CA
:100400000099013900910099B1B100990139009129
:10041000009999B1009901390091009900294FF094
:100420000001E8D1C5E700BF0021C2E70021C0E715
:100430000021BEE70021BCE70021BAE70021B8E7B0
:10044000B0B5002800F0A8800446806A20B1216879
:100450008868C0070BD114E00020E06284F8240013
:10046000204600F09BF821688868C00709D088689A
:1004700020F00100886000F015FA21688A68D20730
:1004800026D1A06AC0063AD4A06A41F20212904373
:100490000230A062E069D4E9013240EA030C531E45
:1004A000B3FA83F35D091346B2F5807F18BF2B02C0
:1004B000207D257B01284CEA450030D135B3A56A63
:1004C00045F02005A562E56A45F00105E56226E0F4
:1004D000054602E08868C007D3D000F0E3F9401B6E
:1004E00021680328F6D38868C007F3D0A06A40F0DB
:1004F0001000A062E06A40F00100E062A06AA06A19
:1005000040F01000A0620120B0BD00BFD4F818C0B8
:100510004EF60005CFF6FF7505EB4C352B434D68C5
:10052000B2F5807F25F4694543EA05034B608B688B
:100530004FF2FD75CFF6E17503EA050343EA0003C8
:100540008B6001D0012A07D122690023CFF6F07316
:1005500003EB025201E000BF0022CB6A23F47003D8
:100560001A43CA62896840F6FE62CFF61F721140D4
:10057000814207D10020E062A16A012262F30101F9
:10058000A162B0BDA06A40F0100020F00200A0629D
:10059000E06A40F00100E0620120B0BD80B586B0A5
:1005A000014640F60000C4F20100096800F5E0527F
:1005B00091424FF00001CDE9041101D006B080BD99
:1005C00041F21801C4F202010A6842F400720A60A2
:1005D0000A6802F400720192019A0A6842F0040269
:1005E0000A60096801F00401019101990621029154
:1005F0000321039102A900F033F806B080BD00008A
:10060000B0B5044600F04EF9054640F20800C2F2CB
:1006100000000078611C18BF044400BF00F042F9DC
:10062000401BA042FAD3B0BD012818BF704740F26A
:100630002400C2F200000121817001780022022909
:1006400038BF4A1C0270704740F21441C4F20101E5
:100650000A68024214BF08607047FFF7E5BF000058
:100660002DE9F04F82B00E68002E00F0038141F2B8
:100670000042C4F20102042340F2004E904208BF3F
:1006800003234FF6FF7CC4F2010E009300240123E4
:10069000C1F2100C4FF0000A4FF0000949E000BF12
:1006A000012704F00C030F229A402BEA020207FAFA
:1006B00003F34FEA9A051A4346F82520D1F804B00F
:1006C00040F20C455FEACB22DEF8082054BF22EA54
:1006D000080242EA0802C4F20105CEF808202A689E
:1006E0005FEA8B2354BF22EA080242EA08022A602A
:1006F0005FEA8B33DEF8042054BF22EA080242EAA4
:1007000008025FEACB33CEF80420DEF800204FF079
:10071000010354BF22EA080242EA0802CEF8002090
:100720000E680AF1010A36FA0AF204F1040400F034
:10073000A18003FA0AF816EA080FF1D04E68664560
:1007400012DC122E56D8DFE806F0350B4549555518
:1007500055555555555555555555554D510000BF95
:10076000D1F80C9046E000BF4FF6FF72C1F22102B3
:1007700096420FDC0022C1F2110296421AD00022EA
:10078000C1F21202964215D00022C1F22102964215
:1007900010D02FE00022C1F2220296420AD000229D
:1007A000C1F23102964205D00022C1F232029642D5
:1007B00020D100BF8A684AB1012A14BFC0F8148052
:1007C000C0F810804FF0080914E000BF4FF0040992
:1007D00010E000BFCA6802F108090BE04FF0000901
:1007E00008E000BFCA6802F1040903E0CA6802F128
:1007F0000C0900BF22460646BAF1080F24BF203A72
:10080000043637680F25954027EA050509FA02F2F4
:100810002A433260CA79D2067FF582AF41F21803CB
:10082000C4F202031A68AEF57E7642F001021A6045
:100830001A6802F001020192019A2AF0030256F8A6
:1008400002B040F60002C4F20102904210D040F61D
:100850000042C4F2010290423FF422AF41F2000292
:10086000C4F20102009F904208BF022719E700BFAF
:10087000002716E702B0BDE8F08F0000806808404E
:1008800018BF012070470000C26802EA01039143CB
:1008900041EA034101617047002A08BF0904016170
:1008A0007047000040F2F040C2F20000006870475C
:1008B00040F2080040F2F041C2F20000C2F2000132
:1008C00000780A68104408607047000080B542F262
:1008D0000000C4F20200016841F010010160032031
:1008E00000F08EF8002000F005F800F027F8002056
:1008F00080BD000070B540F20806C2F2000640F26A
:1009000014013278C2F200014FF47A730968B3FB24
:10091000F2F20446B1FBF2F1084600F077FD0F2C2D
:100920004FF0010508D838B94FF0FF3021460022BA
:10093000002500F039F87460284670BD82B041F29D
:100940001800C4F202000168022241F001010160B6
:10095000016801F0010101910199416841F0805164
:100960004160406800F08050009000980420C4F27C
:100970000100016862F31A61016002B07047000073
:10098000002848BF7047C1B200F01F00012202FAE0
:1009900000F04EF20012CEF2000242EAD10121F044
:1009A000030108607047000010B54EF60C5CCEF2F3
:1009B000000CDCF80030C3F3022E8EF00704042C88
:1009C00028BF0424BEF103034FF0FF3E0EFA04F4E7
:1009D00038BF0023A14399400EFA03F39A43114311
:1009E00000F00F0200F160430901043A03F564438B
:1009F0006244002848BF02F10C03197010BD0000CA
:100A00004EF60C51CEF200010A684FF6FF031A4071
:100A100060F30A2242F0806040F0FD700860704789
:100A20002DE9F04182B00446007841F21C06C0076F
:100A3000C4F202064AD0306810F0805808D13068FD
:100A400040F080503060306800F080500190019894
:100A500047F20007C4F200073868C00512D43868AE
:100A600040F480703860FFF71DFF05463868C00508
:100A700008D4FFF717FF401B6428F7D9032002B002
:100A8000BDE8F081706810F4407012D0616801F424
:100A9000407188420DD0706840F24042C4F2422258
:100AA000012320F4407113600023C00713607160BC
:100AB0002AD17068616820F440700843B8F1000FD3
:100AC000706003D1306820F080503060206881076A
:100AD00007D556F8181CA26821F44041114346F886
:100AE000181CC00604D4002002B0BDE8F08100BF8D
:100AF00056F8180CE16820F48000084346F8180CFA
:100B0000002002B0BDE8F081FFF7CCFE054641F2BF
:100B1000883700BF70688007CBD4FFF7C3FE401B47
:100B2000B8424FF00300F5D9EBE700002DE9F043A0
:100B300081B0002800F0858042F20008C4F202086B
:100B40000446D8F800000D4600F0070088420CD299
:100B5000D8F8000020F007002843C8F80000D8F8B3
:100B6000000000F00700A8426BD1206841F20409A0
:100B70008107C4F2020917D5410705D5D9F800103D
:100B800041F4E061C9F80010010705D5D9F800105B
:100B900041F46051C9F80010D9F80010A26821F0A2
:100BA000F0011143C9F80010C00741D1D8F8000086
:100BB00000F00700A8420CD9D8F8000020F0070088
:100BC0002843C8F80000D8F8000000F00700A84249
:100BD00037D12068410707D5D9F80010E26821F421
:100BE000E0611143C9F80010000708D5D9F80000EA
:100BF000216920F4605040EAC100C9F80000D9F82A
:100C0000002002F00C00082841F20020C0F27A0017
:100C100050D146F29643C2F38341C0F60003595CBB
:100C2000D2033BD440F60010C0F23D00484341E0FF
:100C3000606802280AD001282AD159F8041C8903C7
:100C400008D4012001B0BDE8F08300BF59F8041CAE
:100C50008901F6D5D9F8001021F003010843C9F83D
:100C60000000FFF71FFE064641F28837D9F8000062
:100C7000616800F00C00B0EB810F97D0FFF712FE17
:100C8000801BB842F2D9032001B0BDE8F08300BF59
:100C900059F8041C8907D4D5DCE700BFD9F8002037
:100CA00046F24433C2F34042C0F600039A5C484324
:100CB000B0FBF2F0D9F8001046F20A32C1F303118A
:100CC000C0F60002515C40F2140220FA01F140F239
:100CD0000C00C2F200000068C2F200021160FFF7CF
:100CE00009FE002001B0BDE8F083000040F21400CE
:100CF00041F20401C2F20000C4F202010068096876
:100D000046F21A32C1F30221C0F60002515CC8401B
:100D10007047000040F2140041F20401C2F20000EA
:100D2000C4F202010068096846F21A32C1F3C22116
:100D3000C0F60002515CC840704700002DE9F04148
:100D400082B0002868D00446007841F20006C0074F
:100D5000C4F2020625D0706800F00C0004281BD0F5
:100D6000706800F00C00082802D17068C00313D42A
:100D70006068002800F06881B0F5A02F00F07C8149
:100D8000B0F5803F00F07C81306820F48030306026
:100D9000306820F4802076E13068800301D56068F7
:100DA000D0B32078800718D5706810F00C0F07D0EA
:100DB000706800F00C0008286ED17068C0036BD416
:100DC0003068800702D52069012825D13068616923
:100DD00020F0F80040EAC1003060207800071FD4FE
:100DE0002078400732D4E56995B1706800F00C00B6
:100DF000082840F08F80012D0ED07068216A00F421
:100E000080328A4208D1616A00F47010884203D1AE
:100E1000002002B0BDE8F081012002B0BDE8F08101
:100E2000A069002862D00020C4F242200121C0F84D
:100E30008014FFF737FD0546706A800700F18C804B
:100E4000FFF730FD401B0228F6D92AE1F06910F0C7
:100E5000805808D1F06940F08050F061F06900F0EE
:100E600080500090009847F20007C4F200073868ED
:100E7000C00529D4386840F480703860FFF712FD4F
:100E8000054600BF3868C0051ED4FFF70BFD401BA8
:100E90006428F7D905E100BF2069002840F200006E
:100EA000C4F2422000F0828001210160FFF7FAFCC9
:100EB000054600BF306880073FF588AFFFF7F2FCBA
:100EC000401B0228F6D9ECE0E068002800F08080A2
:100ED000052800F09780012800F09880306A20F003
:100EE00001003062306A20F0040092E00020C4F279
:100EF00042200021C0F88014FFF7D4FC054600BF53
:100F0000706A80077FF56CAFFFF7CCFC401B0228AE
:100F1000F6D9C6E00027C4F2422700203866FFF762
:100F2000C1FC022D05460BD13068800140F1BE8026
:100F3000FFF7B8FC401B02284FF00300F4D968E724
:100F4000306880017FF564AFFFF7ACFC401B0228DE
:100F50004FF00300F4D95CE740F21400C2F2000045
:100F6000006844F6D351C1F26201A0FB0101480AB6
:100F7000019000BF00BF0198411E002801913FF47D
:100F80002FAF00BF0198411E002801913FF428AF08
:100F900000BF0198411E002801913FF421AF00BF1E
:100FA0000198411E00280191E4D119E70021016058
:100FB000FFF778FC054600BF306880077FF50DAF6E
:100FC000FFF770FC401B02284FF00300F4D920E724
:100FD000306A20F001003062306A20F00400306294
:100FE000FFF760FC054641F2883700BF306A800792
:100FF00020D5FFF757FC401BB8424FF00300F5D94E
:1010000007E700BF306A40F004003062306A40F009
:1010100001003062FFF746FC054641F2883700BF09
:10102000306A800706D4FFF73DFC401BB842F7D971
:1010300037E000BFB8F1000F7FF4D5AEF06920F0C3
:101040008050F061CFE600BF306820F4803030601F
:10105000306820F480203060FFF724FC054600BF94
:10106000306880037FF59DAEFFF71CFC401B6428B1
:101070004FF00300F4D9CCE6306840F480203060B3
:10108000306840F480303060FFF70CFC054600BF4C
:10109000306880033FF585AEFFF704FC401B6428F1
:1010A000F6D9032002B0BDE8F08100BF206AB0F598
:1010B000803F05D17168A26821F40031114371604D
:1010C0007168626A21F47411114308437060012051
:1010D0003866FFF7E7FB0446306880013FF598AEBD
:1010E000FFF7E0FB001B02284FF00300F4D990E665
:1010F00070B538B10446406A30B10020206104F177
:10110000140007E0012070BD6068B0F5827F03D055
:1011100004F11C00002101600026A66294F8510031
:1011200020B9204684F8506000F038F8022084F896
:10113000510094E8071001F48271036802F404423C
:1011400023F040030360236911440CF4006211444E
:1011500003F002026369114403F00102A369E56927
:10116000114403F40072114405F03802256A114459
:1011700005F08002A56A114305F400521143016095
:10118000042101EA13414160C16921F40061C16198
:101190000120666584F85100304670BD80B586B088
:1011A000014640F60040C4F20100096800F5105302
:1011B00000229942049201D006B080BD41F218018C
:1011C000C4F202010A6842F480520A600A6802F41A
:1011D00080520192019A0A6842F008020A60096886
:1011E00001F0080101910199282102910221039146
:1011F0000321059102A9FFF733FA0420C4F201008C
:10120000016841F0E06141F00101016006B080BD7C
:101210002DE9F04182B01D4616460F460446FFF701
:1012200041FB94F8511001290ED18046002F4FF058
:10123000010018BF002E03D102B0BDE8F08100BF4D
:1012400094F85000012803D1022002B0BDE8F081DB
:10125000012084F850000320002184F851006165CA
:101260002763A686E686A163A187E187A06821643B
:10127000B0F5004F2068616407D1016821F040019A
:101280000160016841F4804101600168490603D4AE
:10129000016841F0400101606168731EE268B1FAC3
:1012A00081F1B3FA83F349095B09B2F5006F41EAB2
:1012B000030139D131B137F8021BC1602763E08ED9
:1012C0000138E086E08E002870D0681C0BD11AE04F
:1012D000216B31F8022BC2602163E08E0138E08679
:1012E000E08E002862D0206881688907F0D4FFF77B
:1012F000D9FAA0EB0800A842F2D338E0FFF7D2FAFF
:10130000E08E002852D0206881688907F6D5216BCD
:1013100031F8022BC2602163E08E0138E086E08E56
:101320000028F0D142E000BF39B139780173206B59
:1013300001302063E08E0138E086E08EB0B3681C97
:101340000BD123E0216B09780173206B01302063FE
:10135000E08E0138E086E08E40B32068816889071E
:10136000F0D4FFF79FFAA0EB0800A842F3D30120C6
:1013700084F85100002084F85000032002B0BDE83A
:10138000F08100BFFFF78EFAE08E78B120688168A7
:101390008907F7D5216B09780173206B0130206331
:1013A000E08E0138E086E08E0028EFD12046022151
:1013B00001222B46CDF8008002F0F0FC40B9204617
:1013C000802100222B46CDF8008002F0E7FC28B1F6
:1013D000606D40F02000606520206065A06838B92D
:1013E000002001902068C1680191806801900198F7
:1013F000012084F85100002084F85000606D00281E
:1014000018BF012002B0BDE8F0810000411E00209D
:10141000B0EB116F1CBF012070474EF21002CEF2EC
:10142000000251604EF62351CEF20001F0230B7002
:1014300007219060116070477047000070470000FE
:10144000B0B590F83C20012A04BF0220B0BD01F1E4
:1014500008053CCDD1E900CE23F47C5322F4705230
:101460001A432EF4F0431A432CF4E0431A4324F4B5
:10147000C0431A432A43C96922F4804203681143D6
:101480005964002180F83C100846B0BD10B590F8B2
:101490003C20012A4FF0020233D080F83D20026840
:1014A000D2F804E0D2F808C00C682EF07003234391
:1014B00040F2FF74C4F20004A24253600ADCB2F1AD
:1014C000804F13D040F20043C4F200039A420DD083
:1014D00011E000BF42F60043C4F201039A4205D076
:1014E00040F60003C4F200039A4204D149682CF08C
:1014F0008003194391600121002280F83D1080F89B
:101500003C20104610BD0000002804BF0120704799
:1015100010B5044690F83D0028B9002084F83C003E
:10152000204600F06FF8022084F83D00206840F269
:10153000FF730268C4F2000342F6004C9842C4F202
:10154000010C15DCB0F1804F1AD040F20041C4F21A
:101550000001884214D0984218DCB0F1804F1DD0B1
:1015600040F20041C4F20001884217D01AE000BFE7
:10157000604505D040F60001C4F200018842EAD17E
:10158000A16822F070020A439842E6DD604505D06A
:1015900040F60001C4F20001884203D1216922F41F
:1015A00040720A43A36922F08001D4F804E0E268A3
:1015B000194360450160C262C0F828E002D1616948
:1015C000CCF83010012141610269D20703D00269D1
:1015D00022F001020261002084F8461084F83E10D7
:1015E00084F83F1084F8401084F8411084F84210C9
:1015F00084F8431084F8441084F8451084F83D10B2
:1016000010BD000080B582B0006840F20041C4F215
:10161000000188421CBF02B080BD41F21C00C4F230
:1016200002000168002241F002010160006801210E
:1016300000F00200019001981D20FFF7B5F91D2070
:1016400002B0BDE88040FFF79BB9000090F83D1064
:1016500001291CBF01207047022180F83D1000685D
:1016600040F2FF72C168C4F20002904241F00101F1
:10167000C16009DCB0F1804F12D040F20041C4F2E9
:10168000000188420CD012E042F60041C4F2010190
:10169000884205D040F60001C4F20001884206D11C
:1016A000816801F00701062904BF00207047016826
:1016B00041F00101016000207047000080B590F802
:1016C0003C20012A4FF0020200F0C28080F83D2049
:1016D000D0F800C04FF67772DCF8083023EA020237
:1016E000CCF808200B684F2B28DC1F2B44DD202B67
:1016F00045D0302B43D0402B40F0AC80D1F804E0F3
:10170000C968DCF82030DCF8202022F00102CCF897
:101710002020DCF8182022F0F00242EA011123F028
:101720000A0242EA0E02CCF81810CCF82020DCF8AD
:10173000081041F0470121F0300180E06F2B27DDD8
:10174000B3F5005F48D0B3F5805F7AD0702B40F0DE
:101750008180D1E901E3C968DCF8082043EA0E037F
:1017600022F47F4243EA01211143CCF80810DCF84F
:10177000081041F0770162E00BB1102B6AD1DCF860
:10178000081021F07001194341F0070157E000BF34
:10179000502B35D0602B5DD1D1F804E0C968DCF85E
:1017A0002030DCF8202022F01002CCF82020DCF8D9
:1017B000182022F4704242EA013123F0A00242EAEA
:1017C0000E12CCF81810CCF82020DCF8081041F0EC
:1017D000670121F0100132E0D1E901E3C968DCF8CA
:1017E000082043EA0E0322F47F4243EA0121114319
:1017F000CCF80810DCF8081041F480411FE000BF6D
:10180000D1F804E0C968DCF82030DCF8202022F0B0
:101810000102CCF82020DCF8182022F0F00242EA85
:10182000011123F00A0242EA0E02CCF81810CCF89B
:101830002020DCF8081041F0570121F02001CCF8FD
:1018400008100022012180F83D10002180F83C1092
:10185000104680BD0122F5E77047000070B50446D0
:101860000068C5680669B10716D515F0020113D0E6
:101870006FF002010161012121778069800703D0A7
:101880002046FFF7E9FF05E0204600F08FF82046EC
:1018900000F03CFA00202077700719D515F00400FD
:1018A00016D020686FF00401016102212177806960
:1018B00010F4407F04D02046FFF7CEFF06E000BFC3
:1018C000204600F073F8204600F020FA0020207730
:1018D000300717D515F0080014D020686FF0080104
:1018E000016104212177C069800703D02046FFF7FA
:1018F000B3FF05E0204600F059F8204600F006FA54
:1019000000202077F00619D515F0100016D02068B9
:101910006FF01001016108212177C06910F4407F48
:1019200004D02046FFF798FF06E000BF204600F0F5
:101930003DF8204600F0EAF900202077F00718BFB4
:1019400015F0010002D1300609D412E020686FF0D2
:1019500001010161204600F0A5FA300609D515F015
:10196000800006D020686FF0800101612046FFF7FB
:1019700063FD700609D515F0400006D020686FF0B1
:1019800040010161204600F043FBB00658BF70BD26
:1019900015F0200008D021686FF0200220460A616F
:1019A000BDE87040FFF74ABD70BD00007047000001
:1019B0002DE9F04390F83C30012B04BF0220BDE834
:1019C000F0834FEAB202032A3CD8DFE802F0034377
:1019D00081BD00BF036842F600461D6A1A6AC4F260
:1019E000010622F001021A621A465C6852F818CF0A
:1019F000B3428E68D1F800E025F0020545EA0605FD
:101A00000CD1CE68D1E9057824F4407425F00C059A
:101A100026F004063C43354344EA08042CF07307DF
:101A200047EA0E075C609F614F6809695F631D624A
:101A30009F6947F008079F619F6927F004079F612E
:101A4000B2E000BF0121002280F83C200846BDE83A
:101A5000F08300BF036842F600461D6A1A6AC4F2AA
:101A6000010622F010021A621A46D3F804C052F896
:101A7000184FB3428E68D1F800E025F0200545EA02
:101A8000061510D1CE68D1E9058725F0C0096FF0A1
:101A9000400505EA06152CF4406647EA080745EAC2
:101AA000090546EA870C24F4E64444EA0E27C3F805
:101AB00004C09F614F6809699F631D629F6947F475
:101AC00000679F619F6927F480679F616BE000BF9B
:101AD000036842F600461D6A1A6AC4F2010622F43F
:101AE00080721A621A46D3F804C052F81CEFB3424F
:101AF0008E680C6825F4007545EA062511D1CE687C
:101B0000D1E9058725F44069360240F2FF4526EA0F
:101B100005052CF4405647EA080745EA090546EA58
:101B2000071C2EF073072743C3F804C0DF614F681A
:101B30000969DF631D62DF6947F00807DF61DF695C
:101B400027F00407DF612FE0036842F60047D3F86F
:101B500020C01A6AC4F2010722F480521A621A469F
:101B60005C6852F81C5FD1F800E08E68BB4204D17B
:101B70004F6924F4804444EA87142CF4005747EA60
:101B8000063725F4E64646EA0E265C60DE614E68BE
:101B900009691E641F62DF6947F40067DF61DF695E
:101BA00027F48067DF61090213681943116000217F
:101BB000002280F83C200846BDE8F083002804BFDE
:101BC0000120704710B5044690F83D0028B9002068
:101BD00084F83C00204600F06FF8022084F83D00B5
:101BE000206840F2FF730268C4F2000342F6004C22
:101BF0009842C4F2010C15DCB0F1804F1AD040F2CB
:101C00000041C4F20001884214D0984218DCB0F1BF
:101C1000804F1DD040F20041C4F20001884217D02D
:101C20001AE000BF604505D040F60001C4F2000193
:101C30008842EAD1A16822F070020A439842E6DDA8
:101C4000604505D040F60001C4F20001884203D18E
:101C5000216922F440720A43A36922F08001D4F87A
:101C600004E0E268194360450160C262C0F828E000
:101C700002D16169CCF83010012141610269D207BB
:101C800003D0026922F001020261002084F84610AC
:101C900084F83E1084F83F1084F8401084F8411016
:101CA00084F8421084F8431084F8441084F84510F6
:101CB00084F83D1010BD000082B00068B0F1804F84
:101CC00014D042F60041C4F2010188421BD141F216
:101CD0001800C4F20200016841F40061016000686C
:101CE00000F400600190019802B0704741F21800C2
:101CF000C4F20200416841F001014160406800F017
:101D000001000090009802B070470000704700008A
:101D100041B1082910D0042914BF00F1410200F19B
:101D20003F020BE090F83E20012A1CBF01207047C3
:101D3000022280F83E2013E000F140021278012ACE
:101D40001CBF012070470222082907D0042914BFB4
:101D500080F8412080F83F2002E000BF80F840205A
:101D6000006801F01F010122036A8A4023EA020190
:101D70000162036A42F64441C4F201011A43A1F12F
:101D80004403984202620FD040F2FF71C4F2000196
:101D9000884213DCB0F1804F1CD040F20041C4F205
:101DA0000001884216D01CE00A6842F400420A6032
:101DB00040F2FF71C4F200018842EBDD42F60041BF
:101DC000C4F20101884205D040F60001C4F20001CE
:101DD000884206D1816801F00701062904BF00206E
:101DE0007047016841F00101016000207047000068
:101DF00080B5026801F01F0C012303FA0CFE136A80
:101E000042F6444C23EA0E03C4F2010C1362D2F8EA
:101E100020E0ACF144039A42C2F820E013D15CF810
:101E200024EC41F211131EEA030F0CD1D2F820E08A
:101E300040F244431EEA030F05D1DCF8003023F4DE
:101E40000043CCF80030D2F820C041F211131CEA54
:101E5000030F06D1D2F820C040F244431CEA030F1E
:101E600014D0082918D004290AD000294FF0010104
:101E700014BF80F8411080F83E10002080BD00BFE4
:101E8000012180F83F10002080BD00BF136823F0BF
:101E9000010313600829E6D1012180F840100020D9
:101EA00080BD000040F2E011C2F20001884218BF7C
:101EB00070472DE9F04140F22406C2F20006F078A6
:101EC00040F600040128C4F2010440F07F8040F293
:101ED0000005C2F20005686803282DD3307900217F
:101EE0000328696072D8DFE800F0032B2D5300BF90
:101EF000012030712046402100220027FEF7CCFC53
:101F0000204680210122FEF7C7FC287840F25015B8
:101F1000C2F200052C3029687071C0B2B7714863F5
:101F20000F6428460021FFF7F3FE28460C21FFF737
:101F3000EFFEF7714AE000BF0130686046E000BF85
:101F4000022026E0032030712046402101224FF07C
:101F50000108FEF7A1FC2046802100220027FEF7A1
:101F60009BFC287840F25015C2F200052C302968FD
:101F7000B071C0B277714F63086428460021FFF743
:101F8000C7FE28460C21FFF7C3FE86F807801DE038
:101F9000042030712046402100220027FEF77CFCFF
:101FA000204680210022FEF777FC40F25015C2F255
:101FB00000052868A6F805704763076428460021D5
:101FC000FFF716FF28460C21FFF712FFB078012813
:101FD00010D1F0680B280DD30020F06020460121BD
:101FE000FEF74CFC318958B1C72903D80020308155
:101FF000F060B07020462021BDE8F041FEF744BCFF
:10200000481C308120462021BDE8F041FEF73CBC51
:1020100070470000002804BF0120704710B5044637
:1020200090F8410028B9002084F84000204600F0D4
:1020300063F8242084F841002068D4E90212C368C0
:1020400023F40053C360036923F440531A4302612D
:10205000D4E904231143C268194341F20C639A4343
:102060001143C1604169A26921F44071114343F6F3
:102070000002C4F201029042416103D0FEF736FE35
:1020800002E000BFFEF746FE626819214843910056
:10209000B0FBF1F048F21F51C5F2EB11A0FB012398
:1020A0005A094FF69C73C0F6FF7302FB03003223FC
:1020B00003EB0010A0FB0101F02303EA5113206899
:1020C00003EB0212C1F3431111448160016921F451
:1020D00090410161416921F02A014161C16841F4E7
:1020E0000051C16000202021606484F8411084F810
:1020F0004210606310BD000070B586B040F6000469
:10210000C4F20104006804F5405100268842049698
:1021100002D006B070BD00BF41F21800C4F2020048
:10212000016802AD41F480410160016801F4804121
:1021300001910199016841F004010160006829469C
:1021400000F00400019001984FF40070029002200A
:102150000390032005902046FEF782FA4FF480603A
:10216000CDE90206204629460496FEF779FA06B024
:1021700070BD0000FEE700002DE9F04383B040F69B
:102180000044C4F201041646894607462046102141
:1021900000229846FEF780FB2A208DF80100204699
:1021A00080210022FEF778FB40F2F805C2F200051C
:1021B0000DF10101284601224FF47A73FFF728F848
:1021C000204680210122FEF767FB204610210122D4
:1021D0000137FEF761FB380A8DF8020020468021A6
:1021E0000022FEF759FB0DF10201284601224FF4AF
:1021F0007A73FFF70DF8204680210122FEF74CFB91
:102200002046802100228DF80370FEF745FB0DF17A
:102210000301284601224FF47A73FEF7F9FF2046A6
:1022200080210122FEF738FB2046102101220136D1
:10223000FEF732FB300A8DF8040020468021002290
:10224000FEF72AFB01A9284601224FF47A73FEF714
:10225000DFFF204680210122FEF71EFB2046802161
:1022600000228DF80560FEF717FB0DF105012846E9
:1022700001224FF47A73FEF7CBFF20468021012222
:10228000FEF70AFB204610210022FEF705FB2B205B
:102290008DF80600204680210022FEF7FDFA0DF1A0
:1022A0000601284601224FF47A73FEF7B1FF20465B
:1022B00080210122FEF7F0FA20461021012209F1C7
:1022C0001A06FEF7E9FA300A8DF807002046802149
:1022D0000022FEF7E1FA0DF10701284601224FF432
:1022E0007A73FEF795FF204680210122FEF7D4FA8B
:1022F0002046802100228DF80860FEF7CDFA02A961
:10230000284601224FF47A73FEF782FF204680218F
:102310000122FEF7C1FA20461021012208F11A0617
:10232000FEF7BAFA300A8DF8090020468021002213
:10233000FEF7B2FA0DF10901284601224FF47A7333
:10234000FEF766FF204680210122FEF7A5FA20460F
:10235000802100228DF80A60FEF79EFA0DF10A0135
:10236000284601224FF47A73FEF752FF204680215F
:102370000122FEF791FA204610210022FEF78CFA86
:102380002C208DF80B00204680210022FEF784FAD5
:102390000DF10B01284601224FF47A73FEF738FF46
:1023A000204680210122FEF777FA03B0BDE8F083D2
:1023B0002DE9F04782B0824640F60045002000211A
:1023C0009F224F23C4F20105FFF7D6FE40F2F80624
:1023D0004FEA1A274FF44854C2F200060DF10608DE
:1023E0000DF10709284610210122FEF755FA28466B
:1023F000802100228DF80670FEF74EFA30464146E5
:1024000001224FF47A73FEF703FF28468021012250
:10241000FEF742FA2846802100228DF807A0FEF739
:102420003BFA3046494601224FF47A73FEF7F0FE3C
:10243000284680210122FEF72FFA013CD2D102B0BA
:10244000BDE8F08770B582B0154602460B46FFF72F
:1024500093FE40F60044C4F20104204610210122FC
:10246000FEF71AFA280A8DF806002046802100227D
:10247000FEF712FA40F2F806C2F200060DF106016C
:10248000304601224FF47A73FEF7C2FE20468021C7
:102490000122FEF701FA2046802100228DF8075024
:1024A000FEF7FAF90DF10701304601224FF47A7375
:1024B000FEF7AEFE204680210122FEF7EDF902B0C4
:1024C00070BD00002DE9F04F85B09A4616460C46C7
:1024D0000290FFF751FE544564D802982146B0425D
:1024E00012D900BF481C80B250455BD8881C80B20E
:1024F000504557D8C81C80B2504553D8043188B2D3
:102500005045EFD94EE000BFDDF8388040F6004777
:1025100040F2F8044FEA1829C4F20107C2F200049D
:102520000DF1120B0DF11305CDF804A0DDF808A094
:10253000039100BF384610210122FEF7ADF938465D
:10254000802100228DF81290FEF7A6F92046594608
:1025500001224FF47A73FEF75BFE38468021012298
:10256000FEF79AF93846802100228DF81380FEF795
:1025700093F92046294601224FF47A73FEF748FE6C
:10258000384680210122FEF787F90AF1010A1FFA75
:102590008AF0B042CED90399DDF804A0013188B2A7
:1025A0005045C3D905B0BDE8F08F00002DE9F04FCC
:1025B00083B00C46814637301731174640F6004647
:1025C00082B28BB248462146C4F20106FFF7D4FD21
:1025D000022F5FD140F2F8074FEA490AC2F2000722
:1025E00000214D4607E000BF01344D4601990131FD
:1025F000A82900F0AF8046F24630C0F6000010F87F
:1026000011B04FF0000801912BFA08F0C00735D047
:10261000AAEB050081B2A0B202460B46FFF7ACFD63
:10262000304610210122FEF737F900208DF808000E
:10263000304680210022FEF72FF9384602A90122F8
:102640004FF47A73FEF7E4FD304680210122FEF755
:1026500023F91F208DF80900304680210022FEF763
:102660001BF938460DF1090101224FF47A73FEF788
:10267000CFFD304680210122FEF70EF90135A8B2C8
:10268000A0EB09003828AFD008F10108B8F1080F15
:10269000BAD1ABE740F2F807C2F200074FF0000AE8
:1026A000CB4606E00134CB460AF1010ABAF1A80F85
:1026B00050D046F24630C0F6000010F81A504FF0E5
:1026C000000800BF25FA08F0C00735D01FFA8BF0CC
:1026D000A1B202460B46FFF74FFD30461021012202
:1026E000FEF7DAF800208DF80A003046802100223B
:1026F000FEF7D2F838460DF10A0101224FF47A7341
:10270000FEF786FD304680210122FEF7C5F81F2026
:102710008DF80B00304680210022FEF7BDF83846C8
:102720000DF10B0101224FF47A73FEF771FD304673
:1027300080210122FEF7B0F80BF1010B1FFA8BF09C
:10274000A0EB09003828ADD008F10108B8F1080F56
:10275000B8D1A9E703B0BDE8F08F00002DE9F04142
:1027600082B04FF4FC65152B04463CBF4FF60005C4
:10277000CFF6FF75022AA3F101002BD1632853D8AD
:1027800003EB830048F21F52C000C5F2EB12A0FB1E
:102790000202A4EB52104FF6F672104401F113023C
:1027A0000531A4F12E031FFA80F88EB297B24FF0D4
:1027B000000C99B230463A464346CDF800C0FFF7C8
:1027C00081FEA4F10900ADB283B2304641463A46DB
:1027D00027E000BF632827D803EB830048F21F528D
:1027E000C000C5F2EB12A0FB020204EB5212481D1E
:1027F0000B32143104F12E031FFA82F886B28FB225
:102800004FF0000C9AB2404631463B46CDF800C02E
:10281000FFF758FE04F10A00ADB280B231464246DD
:102820003B460095FFF74EFE02B0BDE8F081000088
:102830002DE9F04F81B040F60044C4F20104204677
:1028400040210122FEF728F8204610210122FEF740
:1028500023F8204680210122FEF71EF820464FF47F
:1028600080710122FEF718F82046402100224FF027
:102870000009FEF711F8C820FDF7C2FE20464021EE
:102880000122FEF709F81420FDF7BAFE20464FF4A6
:1028900080710122FEF700F8204610210022FDF78A
:1028A000FBFF11208DF80300204680210022FDF758
:1028B000F3FF40F2F805C2F200050DF103012846CE
:1028C00001224FF47A73FEF7A3FC204680210122F7
:1028D000FDF7E2FF6420FDF793FE20461021002261
:1028E000FDF7DAFF21208DF8030020468021002229
:1028F000FDF7D2FF0DF10301284601224FF47A7350
:10290000FEF786FC204680210122FDF7C5FF204608
:1029100010210022FDF7C0FFB1208DF803002046F2
:1029200080210022FDF7B8FF0DF1030128460122A6
:102930004FF47A73FEF76CFC204680210122FDF7EC
:10294000ABFF204610210122FDF7A6FF05208DF8E0
:1029500003002046802100220527FDF79DFF0DF191
:102960000301284601224FF47A73FEF751FC2046FA
:1029700080210122FDF790FF204610210122FDF762
:102980008BFF3A262046802100228DF80360FDF758
:1029900083FF0DF10301284601224FF47A73FEF7FD
:1029A00037FC204680210122FDF776FF20461021CA
:1029B0000122FDF771FF2046802100228DF803607F
:1029C000FDF76AFF0DF10301284601224FF47A73E7
:1029D000FEF71EFC204680210122FDF75DFF204608
:1029E00010210022FDF758FFB2208DF80300204689
:1029F00080210022FDF750FF0DF10301284601223E
:102A00004FF47A73FEF704FC204680210122FDF783
:102A100043FF204610210122FDF73EFF2046802182
:102A200000228DF803700527FDF736FF0DF1030135
:102A3000284601224FF47A73FEF7EAFB20468021F4
:102A40000122FDF729FF204610210122FDF724FF76
:102A50002046802100228DF80360FDF71DFF0DF157
:102A60000301284601224FF47A73FEF7D1FB20467A
:102A700080210122FDF710FF204610210122FDF7E1
:102A80000BFF2046802100228DF80360FDF704FF34
:102A90000DF10301284601224FF47A73FEF7B8FBCB
:102AA000204680210122FDF7F7FE2046102100225A
:102AB000FDF7F2FEB3208DF80300204680210022AE
:102AC000FDF7EAFE0DF10301284601224FF47A7367
:102AD000FEF79EFB204680210122FDF7DDFE204609
:102AE00010210122FDF7D8FE2046802100228DF81A
:102AF00003700527FDF7D0FE0DF1030128460122E2
:102B00004FF47A73FEF784FB204680210122FDF703
:102B1000C3FE204610210122FDF7BEFE2046802183
:102B200000228DF80360FDF7B7FE0DF10301284682
:102B300001224FF47A73FEF76BFB204680210122BD
:102B4000FDF7AAFE204610210122FDF7A5FE204632
:102B5000802100228DF80360FDF79EFE0DF1030138
:102B6000284601224FF47A73FEF752FB204680215B
:102B70000122FDF791FE204610210122FDF78CFE77
:102B80002046802100228DF80370FDF785FE0DF1AF
:102B90000301284601224FF47A73FEF739FB2046E1
:102BA00080210122FDF778FE204610210122FDF749
:102BB00073FE2046802100228DF80360FDF76CFE35
:102BC0000DF10301284601224FF47A73FEF720FB32
:102BD000204680210122FDF75FFE204610210122C0
:102BE000FDF75AFE2046802100228DF80360FDF794
:102BF00053FE0DF10301284601224FF47A73FEF7CC
:102C000007FB204680210122FDF746FE20461021C9
:102C10000022FDF741FEB4208DF8030020468021FC
:102C20000022FDF739FE0DF10301284601224FF481
:102C30007A73FEF7EDFA204680210122FDF72CFE83
:102C4000204610210122FDF727FE03208DF8030006
:102C50002046802100224FF0030AFDF71DFE0DF1F2
:102C60000301284601224FF47A73FEF7D1FA204679
:102C700080210122FDF710FE204610210022FDF7E1
:102C80000BFEC0272046802100228DF80370FDF73F
:102C900003FE0DF10301284601224FF47A73FEF77B
:102CA000B7FA204680210122FDF7F6FD20461021CB
:102CB0000122FDF7F1FD62208DF8030020468021FE
:102CC0000022FDF7E9FD0DF10301284601224FF432
:102CD0007A73FEF79DFA204680210122FDF7DCFD84
:102CE000204610210122FDF7D7FD4FF002082046B3
:102CF000802100228DF80380FDF7CEFD0DF1030148
:102D0000284601224FF47A73FEF782FA204680218A
:102D10000122FDF7C1FD204610210122FDF7BCFD77
:102D200004208DF80300204680210022FDF7B4FD29
:102D30000DF10301284601224FF47A73FEF768FA79
:102D4000204680210122FDF7A7FD20461021002208
:102D5000FDF7A2FDC1208DF803002046802100224E
:102D6000FDF79AFD0DF10301284601224FF47A7315
:102D7000FEF74EFA204680210122FDF78DFD204608
:102D800010210122FDF788FD2046802100228DF8C8
:102D90000370FDF781FD0DF10301284601224FF478
:102DA0007A73FEF735FA204680210122FDF774FD83
:102DB000204610210022FDF76FFDC2208DF8030090
:102DC000204680210022FDF767FD0DF10301284612
:102DD00001224FF47A73FEF71BFA2046802101226C
:102DE000FDF75AFD204610210122FDF755FD0D206B
:102DF0008DF80300204680210022FDF74DFD0DF1E6
:102E00000301284601224FF47A73FEF701FA2046A7
:102E100080210122FDF740FD204610210122FDF70F
:102E20003BFD2046802100228DF803904FF0000BDF
:102E3000FDF732FD0DF10301284601224FF47A73AC
:102E4000FEF7E6F9204680210122FDF725FD204608
:102E500010210022FDF720FDC3208DF8030020463D
:102E600080210022FDF718FD0DF103012846012203
:102E70004FF47A73FEF7CCF9204680210122FDF74A
:102E80000BFD204610210122FDF706FD8D2720466F
:102E9000802100228DF80370FDF7FEFC0DF1030187
:102EA000284601224FF47A73FEF7B2F920468021BA
:102EB0000122FDF7F1FC204610210122FDF7ECFC78
:102EC0006A208DF80300204680210022FDF7E4FCF3
:102ED0000DF10301284601224FF47A73FEF798F9A9
:102EE000204680210122FDF7D7FC20461021002238
:102EF000FDF7D2FCC4208DF803002046802100227B
:102F0000FDF7CAFC0DF10301284601224FF47A7344
:102F1000FEF77EF9204680210122FDF7BDFC204608
:102F200010210122FDF7B8FC2046802100228DF8F7
:102F30000370FDF7B1FC0DF10301284601224FF4A7
:102F40007A73FEF765F9204680210122FDF7A4FC83
:102F5000204610210122FDF79FFCEE208DF8030092
:102F6000204680210022FDF797FC0DF10301284641
:102F700001224FF47A73FEF74BF92046802101229B
:102F8000FDF78AFC204610210022FDF785FCC520B4
:102F90008DF80300204680210022FDF77DFC0DF115
:102FA0000301284601224FF47A73FEF731F92046D7
:102FB00080210122FDF770FC204610210122FDF73F
:102FC0006BFC4FF00E092046802100228DF8039003
:102FD000FDF762FC0DF10301284601224FF47A73DC
:102FE000FEF716F9204680210122FDF755FC204608
:102FF00010210022FDF750FCE0208DF80300204650
:1030000080210022FDF748FC0DF103012846012232
:103010004FF47A73FEF7FCF8204680210122FDF779
:103020003BFC204610210122FDF736FC10208DF8D4
:103030000300204680210022FDF72EFC0DF1030144
:10304000284601224FF47A73FEF7E2F820468021E9
:103050000122FDF721FC204610210122FDF71CFC76
:103060002046802100228DF80390FDF715FC0DF11C
:103070000301284601224FF47A73FEF7C9F820466F
:1030800080210122FDF708FC204610210122FDF7D6
:1030900003FC2046802100228DF80380FDF7FCFB15
:1030A0000DF10301284601224FF47A73FEF7B0F8C0
:1030B000204680210122FDF7EFFB2046102101224E
:1030C000FDF7EAFB2046802100228DF803A0FDF7E2
:1030D000E3FB0DF10301284601224FF47A73FEF75A
:1030E00097F8204680210122FDF7D6FB20461021CB
:1030F0000122FDF7D1FB2046802100228DF80390AC
:10310000FDF7CAFB0DF10301284601224FF47A7343
:10311000FEF77EF8204680210122FDF7BDFB204608
:1031200010210122FDF7B8FB07272046802100224D
:103130008DF80370FDF7B0FB0DF103012846012265
:103140004FF47A73FEF764F8204680210122FDF7E0
:10315000A3FB204610210122FDF79EFB2046802183
:1031600000228DF80380FDF797FB0DF1030128463F
:1031700001224FF47A73FEF74BF82046802101229A
:10318000FDF78AFB204610210122FDF785FB204632
:10319000802100228DF80370FDF77EFB0DF1030105
:1031A000284601224FF47A73FEF732F82046802138
:1031B0000122FDF771FB204610210122FDF76CFB77
:1031C0004FF00A0A2046802100228DF803A0FDF767
:1031D00063FB0DF10301284601224FF47A73FEF7D9
:1031E00017F8204680210122FDF756FB20461021CA
:1031F0000122FDF751FB12208DF8030020468021AB
:103200000022FDF749FB0DF10301284601224FF48E
:103210007A73FDF7FDFF204680210122FDF73CFB7C
:10322000204610210122FDF737FB27208DF80300EF
:10323000204680210022FDF72FFB0DF103012846D7
:1032400001224FF47A73FDF7E3FF2046802101222B
:10325000FDF722FB204610210122FDF71DFB372040
:103260008DF80300204680210022FDF715FB0DF1AB
:103270000301284601224FF47A73FDF7C9FF204667
:1032800080210122FDF708FB204610210122FDF7D5
:1032900003FB2046802100228DF803B0FDF7FCFAE5
:1032A0000DF10301284601224FF47A73FDF7B0FFB8
:1032B000204680210122FDF7EFFA2046102101224D
:1032C000FDF7EAFA0D208DF8030020468021002248
:1032D000FDF7E2FA0DF10301284601224FF47A735B
:1032E000FDF796FF204680210122FDF7D5FA204602
:1032F00010210122FDF7D0FA2046802100228DF80E
:103300000390FDF7C9FA0DF10301284601224FF49D
:103310007A73FDF77DFF204680210122FDF7BCFA7C
:10332000204610210122FDF7B7FA10272046802100
:1033300000228DF80370FDF7AFFA0DF10301284666
:1033400001224FF47A73FDF763FF204680210122AA
:10335000FDF7A2FA204610210022FDF79DFAE12098
:103360008DF80300204680210022FDF795FA0DF12B
:103370000301284601224FF47A73FDF749FF2046E6
:1033800080210122FDF788FA204610210122FDF755
:1033900083FA2046802100228DF803704FF0100B35
:1033A000FDF77AFA0DF10301284601224FF47A73F2
:1033B000FDF72EFF204680210122FDF76DFA204601
:1033C00010210122FDF768FA2046802100228DF8A5
:1033D0000390FDF761FA0DF10301284601224FF435
:1033E0007A73FDF715FF204680210122FDF754FA7C
:1033F000204610210122FDF74FFA032720468021A5
:1034000000228DF80370FDF747FA0DF103012846FD
:1034100001224FF47A73FDF7FBFE20468021012242
:10342000FDF73AFA204610210122FDF735FA204631
:10343000802100228DF80370FDF72EFA0DF10301B3
:10344000284601224FF47A73FDF7E2FE20468021E0
:103450000122FDF721FA204610210122FDF71CFA76
:103460000F208DF80300204680210022FDF714FA7A
:103470000DF10301284601224FF47A73FDF7C8FECF
:10348000204680210122FDF707FA20461021012263
:10349000FDF702FA06208DF8030020468021002265
:1034A000FDF7FAF90DF10301284601224FF47A7372
:1034B000FDF7AEFE204680210122FDF7EDF9204602
:1034C00010210122FDF7E8F92046802100228DF825
:1034D0000380FDF7E1F90DF10301284601224FF4C5
:1034E0007A73FDF795FE204680210122FDF7D4F97D
:1034F000204610210122FDF7CFF908208DF80300A6
:10350000204680210022FDF7C7F90DF1030128466E
:1035100001224FF47A73FDF77BFE204680210122C1
:10352000FDF7BAF9204610210122FDF7B5F9204632
:10353000802100228DF803A0FDF7AEF90DF1030103
:10354000284601224FF47A73FDF762FE204680215F
:103550000122FDF7A1F9204610210122FDF79CF977
:1035600013208DF80300204680210022FDF794F9F6
:103570000DF10301284601224FF47A73FDF748FE4E
:10358000204680210122FDF787F9204610210122E3
:10359000FDF782F926208DF80300204680210022C5
:1035A000FDF77AF90DF10301284601224FF47A73F1
:1035B000FDF72EFE204680210122FDF76DF9204601
:1035C00010210122FDF768F93627204680210022CC
:1035D0008DF80370FDF760F90DF103012846012213
:1035E0004FF47A73FDF714FE204680210122FDF787
:1035F00053F9204610210122FDF74EF900208DF8E5
:103600000300204680210022FDF746F90DF1030159
:10361000284601224FF47A73FDF7FAFD20468021F7
:103620000122FDF739F9204610210122FDF734F976
:103630000D208DF80300204680210022FDF72CF993
:103640000DF10301284601224FF47A73FDF7E0FDE6
:10365000204680210122FDF71FF92046102101227A
:10366000FDF71AF92046802100228DF80390FDF71E
:1036700013F90DF10301284601224FF47A73FDF787
:10368000C7FD204680210122FDF706F920461021C2
:103690000122FDF701F92046802100228DF803B0B8
:1036A000FDF7FAF80DF10301284601224FF47A7371
:1036B000FDF7AEFD204680210122FDF7EDF8204602
:1036C00010210022FDF7E8F82046802100228DF825
:1036D0000360FDF7E1F80DF10301284601224FF4E4
:1036E0007A73FDF795FD204680210122FDF7D4F87D
:1036F000204610210122FDF7CFF805208DF80300A8
:10370000204680210022FDF7C7F80DF1030128466D
:1037100001224FF47A73FDF77BFD204680210122C0
:10372000FDF7BAF8204610210022FDF7B5F8204633
:10373000802100228DF80370FDF7AEF80DF1030132
:10374000284601224FF47A73FDF762FD204680215E
:103750000122FDF7A1F8204610210122FDF79CF877
:1037600078208DF80300204680210022FDF794F890
:103770000DF10301284601224FF47A73FDF748FD4D
:10378000204680210122FDF787F8204610210022E3
:10379000FDF782F829208DF80300204680210022C1
:1037A000FDF77AF80DF10301284601224FF47A73F0
:1037B000FDF72EFD204680210122FDF76DF801B0B6
:1037C000BDE8F08FB0B584B040F2C80042F20041CD
:1037D000C2F20000C4F2010100244FF4602201256E
:1037E00004730475C261C0E9001484600561FCF7CC
:1037F00027FE002818BFFCF7AFFC40F2C800C2F259
:10380000000001A9CDE901550394FCF753FD002800
:1038100018BFFCF7A1FC04B0B0BD00002DE9F04FCB
:1038200085B04FF0000A41F21800CDF810A0C4F2A4
:103830000200016840F6000541F0100101600168D6
:10384000C4F2010501F01001009100990168002205
:1038500041F02001016001684FF0E00801F0200113
:1038600000910099016841F004010160016801F0D4
:10387000040100910099016841F0080101600068AD
:10388000E02100F00800009000982846FDF704F8B9
:1038900005F5806420464FF4E87100224FF4E87982
:1038A000FCF7FAFF0020C1F2210001AE4FF0010B3E
:1038B000CDE9020A28463146CDF804B0FCF7D0FE27
:1038C000022728463146CDE9018BCDF80CA004979C
:1038D000FCF7C6FE20463146CDE9019BCDE903A7A2
:1038E000FCF7BEFE062002210022FDF75DF806204F
:1038F000FDF746F805B0BDE8F08F000070B540F266
:10390000F80043F2000CC2F20000C4F2010C4FF4C4
:1039100082724FF4004300214FF0020E01244FF455
:1039200000750826C0E900C20A22C0E90231C0E9D8
:1039300004E4C0E90656C0E90811C0E90A12FDF71F
:10394000D7FB002808BF70BDBDE87040FCF704BC81
:1039500070B598B040F60004C4F2010440F2501073
:10396000002104F51052C2F20000472340F2E7366E
:103970001191CDE90F11CDE90D11CDE90B11CDE973
:103980000911CDE90711CDE90511CDE90311CDE903
:103990000111C0E90023C0E90216C0E904118161E8
:1039A000FEF70CF9002818BFFCF7D6FB40F25010C8
:1039B000C2F2000010A9FDF769FD002818BFFCF74E
:1039C000CBFB602009900020CDE90A00CDE90C0076
:1039D000CDE90E0040F25010C2F2000009A9002209
:1039E000FDF7E6FF002818BFFCF7B6FB40F25010C9
:1039F000C2F2000009A90C22FDF7DAFF002818BF67
:103A0000FCF7AAFB40F250154FF40050C2F200053B
:103A10000026069001A928460596CDE90366CDE962
:103A200001660896FDF70CFD002818BFFCF794FB13
:103A30002868CDE91666B0F1804F159614961FD010
:103A400042F60041C4F2010188423ED141F2180021
:103A5000C4F20200016841F004010160006814A989
:103A600000F00400139013984FF41060149002209B
:103A7000159017902046FCF7F3FD18B070BD00BFFD
:103A800041F21800C4F20200016841F00401016033
:103A9000006814A900F00400139013984FF400403C
:103AA00014900220159017902046FCF7D9FD0420B1
:103AB000C4F2010001684FF6FF42CFF6FF02114049
:103AC00041F0E06141F48071016018B070BD000008
:103AD000B0B590B040F298100021C2F200004FF053
:103AE00080424FF6FF73CDE90811CDE90611CDE90B
:103AF0000411C0E90021C0E9021301618161FEF7F0
:103B00005DF8002818BFFCF727FB40F29810C2F2BE
:103B1000000008A9FDF7BAFC002818BFFCF71CFB41
:103B200040F298146020C2F200040190002501A91F
:103B300020460022CDE902550595FDF739FF002802
:103B400018BFFCF709FB2068CDE90E55B0F1804F96
:103B50000D950C9522D042F60041C4F20101884235
:103B600044D141F21800C4F20200016841F004019E
:103B7000016000680CA900F004000B900B984FF452
:103B800010600C9002200D900F9040F60000C4F2DF
:103B90000100FCF765FD10B0B0BD00BF41F2180098
:103BA000C4F20200016841F00401016000680CA940
:103BB00000F004000B900B984FF400400C90022092
:103BC0000D900F9040F60000C4F20100FCF748FD94
:103BD0000420C4F2010001684FF6FF42CFF6FF0255
:103BE000114041F0E06141F48071016010B0B0BD5E
:103BF00080B586B040F2E01040F200420021C2F2EF
:103C00000000C4F20002472340F2F31C0591CDE905
:103C10000311CDE90011C0E90023C0E9021C0161D4
:103C20008161FDF771FC002818BFFCF795FA4FF48D
:103C30008050029040F2E010C2F2000002A9FDF7AD
:103C40003DFD002818BFFCF787FA40F2E010C2F2F1
:103C500000006946FDF71AFC002818BFFCF77CFA43
:103C600006B080BD80B540F2282043F60001C2F2C4
:103C70000000C4F2010100234FF00C0C4FF4E132BC
:103C800080E80E00C0E90333C0E905C3C361FEF755
:103C9000C1F9002808BF80BDBDE88040FCF75CBAD0
:103CA00070B584B040F23854C2F2000440F2B03132
:103CB00046F2C123C2F20001C0F6000320460A22E8
:103CC00000F02AFF4AF63811C0F60001204601F044
:103CD000EBF846F22C31C0F60001204601F004F961
:103CE0004B2520460A210A228C23009500F0B0FFC4
:103CF00020464FF6FF7101F097F820464FF4FC6123
:103D000001F0A2F820460021002601F0DDF840F283
:103D1000F445C2F200052846002101F0A5F8284626
:103D20004FF6FF7101F0B0F87E20CDE9006040F25F
:103D30002400C2F20000282500F1100120460022D4
:103D40000023029500F004FD46F23C32C0F600026A
:103D50002046002100F0A2FD20460021002200F0B4
:103D6000C7FD204600214FF4FC6200F06DFD04A267
:103D70002046002104B0BDE8704000F0E3BD00BF64
:103D80004D6561737572696E672E2E2E00000000FE
:103D9000FEE70000FEE70000704700002DE9F04359
:103DA00081B0089C984615460E468146FCF77AFD80
:103DB000201A00EB0804FCF775FD40F21401C2F272
:103DC00000010968C1F3CB3161430091D9F80010BB
:103DD0008A683240921BB2FA82F25209AA423DD05E
:103DE000074618F1010031D0FCF75CFDC01BA04272
:103DF00038D2009800990028A1F101010091D9F86A
:103E00000010896808BF044601EA0600801BB0FA6A
:103E100080F04009A842E7D120E000BF8868304028
:103E2000801BB0FA80F04009A84217D08868304063
:103E3000801BB0FA80F04009A8420FD0886830405B
:103E4000801BB0FA80F04009A84207D08868304053
:103E5000801BB0FA80F04009A842DFD1002001B0F9
:103E6000BDE8F083D9E900014268B1F5827F22F014
:103E7000E00242600BD1D9F80810B1F5004F02D032
:103E8000B1F5806F03D1016821F040010160D9F8DC
:103E90002810B1F5005F07D1016821F400510160DD
:103EA000016841F400510160012089F851000020AF
:103EB00089F85000032001B0BDE8F083704700008E
:103EC000FCF7F6BC7047000040F2E010C2F20000C0
:103ED000FDF7C4BC2DE9F04F07789FB3D0F804A0DC
:103EE000DDF82C90C7F1000B0AF1400C4FF00008F0
:103EF00003261CF8404C04F00307032F26D00BEBDD
:103F00000605022D1ED01CF8204C04F0030EBEF155
:103F1000030F1FD0012D15D09CF8004004F00307BB
:103F2000032F1DD075B19CF8204004F00307032F28
:103F30001AD004360BEB060708F10408032F0CF126
:103F4000800CD6D1FF2040B2BDE8F08FACF1400C20
:103F50000EE000BF48F00108ACF1200C08E000BF03
:103F6000A6F1010804E000BF48F003080CF1200CA2
:103F70004FF480770F80D0E90376002014A5C1E9C3
:103F80000176C1E903760AEB4817DDE909BEC1E90C
:103F9000050544F65576F96104F03401C0F60006D3
:103FA00078700125B8763B824FF0FF33CA3140B2BA
:103FB0003D76A7F812B0A7F814E0A7F81690C7E965
:103FC0000163FB607A768CF80010BDE8F08F00BFCB
:103FD0002D00000080B590F800E0BEF1000F1FD06A
:103FE00040681C3005E000BFBEF1010E00F120006A
:103FF00016D010F81CCC0CF00303022BF4D110F8EF
:10400000043C012BF0D110F8033C8B42ECD1016849
:104010008A604CF0600100F81C1C002040B280BD9A
:10402000FF2040B280BD000080B590F800E0BEF1F6
:10403000000F1FD040681C3005E000BFBEF1010E2C
:1040400000F1200016D010F81CCC0CF00303022B5A
:10405000F4D110F8043C012BF0D110F8033C8B4252
:10406000ECD101684A614CF0600100F81C1C002092
:1040700040B280BDFF2040B280BD000080B590F806
:1040800000E0BEF1000F1FD040681C3005E000BF0B
:10409000BEF1010E00F1200016D010F81CCC0CF07F
:1040A0000303022BF4D110F8043C012BF0D110F8DB
:1040B000033C8B42ECD101684A604CF0600100F88F
:1040C0001C1C002040B280BDFF2040B280BD00001B
:1040D000B0B5037863B3406800F11C0404E000BF8E
:1040E000013B04F1200423D014F81CCC0CF0030095
:1040F0000228F5D114F8040C0128F1D114F8030CAE
:104100008842EDD121689507487891F800E020F0C9
:1041100006034EF002004B7008700DD4500759BFD3
:104120000EF0FD00087043F004034B7007E000BF81
:10413000FF2040B2B0BD00BF43F002034B7002F05D
:10414000010003F0FE02104448704CF0600004F8D7
:104150001C0C002040B2B0BD80B590F800E0BEF16C
:10416000000F1FD040681C3005E000BFBEF1010EFB
:1041700000F1200016D010F81CCC0CF00303022B29
:10418000F4D110F8043C012BF0D110F8033C8B4221
:10419000ECD101688A614CF0600100F81C1C002021
:1041A00040B280BDFF2040B280BD00002DE9F04F3D
:1041B00085B040F218080546824206468946C2F29A
:1041C0000008C8BF1646B8BF15468B42C8BF9946FF
:1041D000D8F800008A46B8BF9A4690F850100E9F53
:1041E00089070DD5D0F84CC028B20FFA8AF132B247
:1041F0000FFA89F30097E04700287BD0D8F8000039
:10420000711B0AB2A9EB0A0381EAE2311EB2A1EBEB
:10421000E2310FFA81F883EAE631A1EBE6310CB224
:104220000121012A4FF00102B8BF4FF0FF32039283
:10423000012E0368B8BF4FF0FF31019128B20FFA89
:104240008AF13A463E469847A045049428DA1FFA78
:104250008AF01FFA89F140F2180BDDF804908142D0
:10426000C2F2000B46D0A0B232464608002700BF7B
:10427000464430B2A042A8BF361B0398A8BF0544ED
:10428000DBF80000CA44036828B20FFA8AF114462A
:1042900098472246049C781C07B2A742E8DB29E035
:1042A00040F2180B019BB8F1010FC2F2000B21DBA9
:1042B0001FFA88F0B14646080027CDF8088000BFF5
:1042C000264430B24045A4BFA6EB08069A44DBF86A
:1042D0000000039A9846154403680FFA8AF128B241
:1042E0004A4698474346DDF80880781C049C07B28C
:1042F0004745E5DB05B0BDE8F08F00002DE9F04F44
:1043000081B040F2180B8246824281460F46C2F2CB
:10431000000BC8BF9146B8BF92468B42B8BF1F463C
:10432000DBF800008846C8BF984690F858100A9DF0
:1043300089070AD5466D0FFA8AF039B20FFA89F269
:104340000FFA88F30095B047A8B10FFA89F40FFA75
:1043500088F800BF564600BFDBF8000039B203689A
:1043600030B22A469847701C06B2A642F4DD781C8B
:1043700007B24745EEDD01B0BDE8F08F40F218010D
:10438000C2F200010968D0E90020C1E90C207047A1
:10439000844601608280C3804FF00410591FCCF81E
:1043A0002000501FACF82610ACF81E1048F6EF3174
:1043B000ACF82400ACF81C0040F20110C0F25E0121
:1043C000ACF8380000206FF07F42CCF8441040F287
:1043D0001801CCF83000CCE90F20CCE90400CCF86F
:1043E0001800CCF84C008CF85000CCF854008CF835
:1043F0005800C2F200010120C1F800C0704700005F
:104400002DE9F04F85B00492A0F1B0024C2A019141
:1044100000F23980DFE802F028373737372A37379C
:104420003737373737373737373737372C37373727
:1044300037373737373737373737373737372E3715
:104440003737373730373737373737373237373708
:1044500037373737373737373737373737373437EF
:1044600037373737360000BFF8200CE0E6200AE087
:104470008E2008E0992006E09A2004E0842002E0E3
:10448000942000E0812040F21804C2F20004D4F825
:1044900000C0BCF83410002900F0F0804A07BCF9D5
:1044A00036204FEAD1074FF0010618BF06EBD107BF
:1044B000012AC0F2E380002F00F0E080DCF8301029
:1044C00092B278430E9D00FB0216002103970DE087
:1044D0000298D4F800C00130BCF9362001B204982B
:1044E000914200F10100049080F2C8800291BCF872
:1044F000349001994FF000080AE000BF4FF0000926
:1045000008F101081FFA88F0B84206F10106DFD26F
:104510005FEA0940F2D0206896F800B004685FEACC
:10452000CB701A4608BF2A460F4608B204991D46AA
:104530000FFA81FA5146A0471FFA89F4012C07F1BE
:10454000010000F08F8040F21801C2F200010968FA
:104550002A460B685FEA8B710E9958BF0A4600B273
:1045600051469847022C07F102007BD040F2180117
:10457000C2F2000109682A460B685FEA4B710E9986
:1045800058BF0A4600B251469847032C07F1030072
:1045900068D040F21801C2F2000109682A460B688F
:1045A0005FEA0B710E9958BF0A4600B25146984710
:1045B000042C07F1040055D040F21801C2F20001AA
:1045C00009682A460B685FEACB610E9958BF0A4614
:1045D00000B251469847052C07F1050042D040F241
:1045E0001801C2F2000109682A460B685FEA8B6174
:1045F0000E9958BF0A4600B251469847062C07F15B
:1046000006002FD040F21801C2F2000109682A46C4
:104610000B685FEA4B610E9958BF0A4600B25146DB
:104620009847072C07F107001CD040F21801C2F28E
:10463000000109682A460B684FFA8BF1002900B285
:104640005146DDF838B058BF5A46984707F108017F
:1046500040F21804039FA9F108092B46C2F2000496
:104660005D464DE72B4640F21804039F0E9D4FF028
:1046700000090146C2F2000442E700BF05B0BDE8F0
:10468000F08F00002DE9F04381B040F21808C2F22B
:1046900000080E46D8F8001014468146054600BFB3
:1046A00020780A280CD160780A280BD1A0780A2833
:1046B0000CD1E0780A280DD18D880434F0E700BFD2
:1046C00050B30BE040B3012206E000BF20B302224A
:1046D00002E000BF00B303228D881444B1F93430E6
:1046E0002AB2B1F904701A44BA4205DBCA8E91F9B4
:1046F00039303244D6184D46D1E90F3729B232B29B
:104700000097FFF77DFED8F800100134888E91F9EC
:10471000382028448518C3E701B0BDE8F0830000C5
:1047200040F218020146C2F20002012011607047F7
:1047300040F21801C2F200010968086470470000E5
:1047400040F21801C2F200010968C8637047000016
:104750002DE9F04F07789FB3D0F804A0DDF82C9036
:10476000C7F1000B0AF1400C4FF0000803261CF8BB
:10477000404C04F00307032F26D00BEB0605022D57
:104780001ED01CF8204C04F0030EBEF1030F1FD006
:10479000012D15D09CF8004004F00307032F1DD015
:1047A00075B19CF8204004F00307032F1AD004369B
:1047B0000BEB060708F10408032F0CF1800CD6D18F
:1047C000FF2568B2BDE8F08FACF1400C0EE000BFF1
:1047D00048F00108ACF1200C08E000BFA6F1010888
:1047E00004E000BF48F003080CF1200CD0E903708E
:1047F00045F6094EC1E9037040F21220888202207A
:104800000AEB481700258875C0F6000E38764FF081
:10481000FF30C1E900550D72C7E901E0F86004F00E
:10482000B400DDE9096B4A308CF8000068B27D7095
:10483000BD763B827E82A7F814B0A7F816907A76F0
:10484000F961BDE8F08F000080B590F800E0BEF19E
:10485000000F1FD040681C3005E000BFBEF1010E04
:1048600000F1200016D010F81CCC0CF00303022B32
:10487000F4D110F8043C022BF0D110F8033C8B4229
:10488000ECD101680A614CF0600100F81C1C0020AA
:1048900040B280BDFF2040B280BD000080B590F8DE
:1048A00000E0BEF1000F1FD040681C3005E000BFE3
:1048B000BEF1010E00F1200016D010F81CCC0CF057
:1048C0000303022BF4D110F8043C022BF0D110F8B2
:1048D000033C8B42ECD101684A604CF0600100F867
:1048E0001C1C002040B280BDFF2040B280BD0000F3
:1048F00080B590F800E0BEF1000F1FD040681C307A
:1049000005E000BFBEF1010E00F1200016D010F846
:104910001CCC0CF00303022BF4D110F8043C022B46
:10492000F0D110F8033C8B42ECD10168CA604CF026
:10493000600100F81C1C002040B280BDFF2040B286
:1049400080BD000080B590F800E0BEF1000F1FD0E0
:1049500040681C3005E000BFBEF1010E00F12000F0
:1049600016D010F81CCC0CF00303022BF4D110F875
:10497000043C022BF0D110F8033C8B42ECD10168CF
:104980000A604CF0600100F81C1C002040B280BDA1
:10499000FF2040B280BD00002DE9F04F81B040F211
:1049A0001808C2F20008D8F8001091F84800C207B1
:1049B0001CBF00F0FE0081F84800D1E9040B00287C
:1049C00018BF58453CD1BBF1000F0AD09BF8080036
:1049D000810604D5584601F0ABFA9BF808000007A1
:1049E00002D401B0BDE8F08F584600F0D7FC9BF828
:1049F000000000286AD04FEA4019002603E000BFFB
:104A00002036B14534D0DBF80400875D07F00301A0
:104A10000229F5D185196C78B80603D56A6858461D
:104A2000294690473807EBD578B2B0F1FF3FE7DC75
:104A300014F04100E4D06A68584629469047DFE701
:104A40009BF81C2048619207C1F818B044BF9BF83E
:104A500008105FEA017143D4017A834601F097019F
:104A6000283101729BF808008106B3D4B7E700BF74
:104A70009BF800004FF0000A02210028C8F808A0A7
:104A800088F80410ADD04701E94608F10405002676
:104A900003E000BF2036B742A3D0DBF80400815DFD
:104AA000304401F0030102290090F3D1817E0029F6
:104AB000F0D0C8F80890008BDBF84010A8F805008B
:104AC00028468847009880F81AA0E3E70020C8F835
:104AD0000800022088F8040001B0BDE8F08F00BF94
:104AE000BBF81410828A91420ED1BBF81810028BC9
:104AF000914209D1BBF81610C28A914204D1BBF889
:104B00001A10428B9142A7D0584601F065F9D8F8A7
:104B100000004069A0E7000000284FF0FF0C18BF1C
:104B2000002903D14FFA8CF0704700BF002AF9D05A
:104B3000F0B5541E02F0030C4FF0000E032C4FF0A2
:104B4000000418D302F0FC0501F17C0603270024C1
:104B5000043406F87C7C46F860EC06F85C7C46F889
:104B600040EC06F83C7C46F820EC06F81C7C46F845
:104B700080EBA542ECD1BCF1000F14D066010325F7
:104B800001EB44178D550026BCF1010FFE610AD0E0
:104B9000BCF1020F87F82050FE6304D0032687F88B
:104BA00040600026FE654160022101724FF2F00173
:104BB000C0F2F001016140F21801C2F200014FF0B1
:104BC000000C0968C0F814C002708A88C988013ACC
:104BD000013941830321017740F2022103640185F9
:104BE000112148F28003028380F82A106FF07F4180
:104BF000FF22C0F28003C0E90B12C0E90D130F21A0
:104C0000C0F80CC0C0E908CC80F83C10BDE8F0400A
:104C10004FFA8CF0704700004FF0FF01A8B140F24E
:104C20001802C2F200021268526982420DD0017A63
:104C300089075EBFFF2148B27047002101720164FD
:104C400001704160C0E90511017748B2704700006A
:104C50002DE9F04F83B0B8B3824652EA01004FF01D
:104C6000FF002CD49AF8087017F0020627D00C9E8B
:104C7000B01A00B20A284FF0FF0020DB5D1A2DB2F7
:104C80000A2D1CDB40F2180BC2F2000BDBF800C04F
:104C9000BCF80450013D2CB29C4210DBBCF806501D
:104CA000013D2DB2B5420ADB3807AAF81410AAF864
:104CB0001620AAF81830AAF81A600BD4002040B2C7
:104CC00003B0BDE8F08F00BFFF2040B203B0BDE8E5
:104CD000F08F00BFDCF81400504505D0002040B232
:104CE00003B0BDE8F08F00BFCDE90154A2B3029933
:104CF000501E4FF0000900B2DCF8447021EAE17563
:104D0000002948BF89469CF858100026002848BF53
:104D10000646890720EAE0740AD5DCF854C00FFA89
:104D200089F031B22A4623460097E047A0B100BF80
:104D3000C84600BFDBF8000031B203680FFA88F004
:104D40003A46984708F101000FFA80F8A845F1DDCE
:104D5000701C06B2A642EBDDBAF81A00019B0130C6
:104D600001B2994207DCDBF80000029A476C002090
:104D70000097FFF7C3FABAF81400C0B30138BAF9C4
:104D800016900FFA80F8BAF91A10DBF80000B8F1A3
:104D9000000F4F4628EAE87658BF4FF00008494513
:104DA000B8BF0F46C8BF894690F85810456C8907B0
:104DB00009D5446D0FFA88F039B20FFA89F33246FB
:104DC0000095A04798B10FFA89F900BF444600BF8B
:104DD000DBF8000039B2036820B22A469847601C0D
:104DE00004B2B442F4DD781C07B24F45EEDDBAF8E8
:104DF0001800029A013000B2904209DCDBF8007022
:104E0000BAF91610BAF91A307F6C0097FFF776FAE4
:104E10009AF8080000F09F0020308AF8080000206F
:104E200040B203B0BDE8F08F10B1027A930703D40B
:104E3000FF2040B2704700BF016142F020010172C3
:104E4000002040B27047000010B1027A930703D4EB
:104E5000FF2040B2704700BF016342F06001017261
:104E6000002040B27047000010B1027A930703D4CB
:104E7000FF2040B2704700BF816342F060010172C1
:104E8000002040B27047000010B1027A930703D4AB
:104E9000FF2040B2704700BF416342F060010172E1
:104EA000002040B27047000010B1027A930703D48B
:104EB000FF2040B2704700BF016242F06001017202
:104EC000002040B27047000010B1027A930703D46B
:104ED000FF2040B2704700BFC16242F06001017222
:104EE000002040B27047000080B510B1027A9307ED
:104EF00002D4FF2040B280BDB1F806E090F83CC07B
:104F00000FFA8EF30133634542F060020272416290
:104F100006DB0EF1020180F83C1002F0BF010172C5
:104F2000002040B280BD000070B1017A40F218024A
:104F3000C2F20002126801F097012831017210617B
:104F4000002040B2704700BFFF2040B27047000011
:104F5000FEE700002DE9F04F8BB08B464978DBF877
:104F60001C40CA0725D04AB2B2F1FF3F08DD2278C3
:104F70008B0711D4D30718D002F0FE020EE000BF59
:104F80009BF8003001228BF81A2043F020028BF8A6
:104F9000002022788B07EDD542F0010222709BF8A9
:104FA000002042F020028BF8002001F0FE018BF877
:104FB00001109BF800108A0640F150810A073FD487
:104FC000BBF908A0BBF90A80BBF90C10BBF90E2095
:104FD00040F21809514554464746C2F20009C8BF7D
:104FE0000C46B8BF8A464245B8BF1746D9F80010EC
:104FF000C8BF904691F85820056990070BD54E6DB3
:105000000FFA8AF039B222B20FFA88F30095B0474E
:10501000002800F01D8126B20FFA88F8544600BF20
:10502000D9F8000039B2036820B22A469847601CBC
:1050300004B2B442F4DD781C07B24745EEDD07E167
:1050400049065CBF21785FEA817140F1BA8088B17E
:10505000017A89070ED5017F878AC38A11F0010280
:105060001CBF03330337890704D590F83C1019445B
:105070004B1CFFE7BBF81010BBF814603944BBF8B9
:1050800012203744BBF816601A443344ABF80810BA
:10509000ABF80A20ABF80C70ABF80E30B0F91A6020
:1050A0001BB2B34280F2DA80B0F9186038B2B04275
:1050B00080F2D48066782778D4E901E506F0010C07
:1050C000FF070895CDF81CE009D0B70703D4770790
:1050D00005D5D4E9035E07957546CDF820E0032792
:1050E0000294BCF1000F08BF012739440FFA81F97F
:1050F000B9180FFA81F8C01B0197D91B40F21807A5
:1051000000B24C46C2F200074845C8BF0446B8BFCB
:105110008146386809B246464145B8BF0E4690F808
:105120005820C8BF884691070AD5D0F854C00FFA56
:1051300089F031B222B20FFA88F30095E047B0B19E
:1051400024B20FFA88F800BFCA4600BF386831B2EF
:1051500003680FFA8AF02A4698470AF101000FFA0D
:1051600080FAA245F2DD701C06B24645ECDDBBF8C4
:105170000800019ABBF80A101044ADF81400881812
:10518000BBF80C10ADF81600881ABBF80E10ADF87D
:105190001800881A029CADF81A0012208DF824001D
:1051A000D4E9050104904FF00210CDF8260003A8C1
:1051B000039100F07DFA9BF8000000F0BF008BF82F
:1051C000000023786778BBF80800BBF80A10BBF82A
:1051D0000C20BBF80E50FF0703F0010326D1102767
:1051E000002B08BF0C27E45907B20FFA82F80EB261
:1051F00038463146424633460094FEF7D7FF2DB27B
:105200003846294642462B460094FEF7CFFF3846E3
:1052100031463A462B460094FEF7C8FF40463146D9
:1052200042462B460094FEF7C1FF11E04AF6A8065D
:105230004AF6D807C0F60006002B00B209B212B237
:105240002BB2C0F6000708BF3E46009600F00AF8F1
:105250009BF8000000F0DF008BF800000BB0BDE809
:10526000F08F00002DE9F04F87B00C4610990746EB
:105270000D68501E994616468A4602B238462146A7
:10528000234606920095FEF791FF601CA9F10101EB
:10529000DAF804500FFA80FB0FFA81F838465946C5
:1052A0003A4643460095FEF781FFDAF80850384643
:1052B000494632464B46CDF810900095FEF776FFF2
:1052C000DAF80C50304621463246434603940095A6
:1052D000FEF76CFF781CDAF81050B11E0FFA80FA56
:1052E0000AB2504659465B4605920095FEF75EFFAE
:1052F0001099A9F10202A01C4C690FFA82F901B2BF
:10530000504652464B4602910094FEF74FFF1098CC
:10531000069D8469504641462A4643460094FEF75E
:1053200045FFDDF840802846D8F81C4059462A46FB
:105330004B460094FEF73AFFB81C029DD8F8207047
:10534000F11E04B20AB2204629462B460097FEF70A
:105350002DFF04990398CA1E0330D8F8247016B2A2
:1053600001B22046224633460097FEF71FFF204633
:10537000059CD8F82870494622464B460097FEF710
:1053800015FFD8F82C702046294622463346009750
:10539000FEF70CFF07B0BDE8F08F0000F0B5037812
:1053A000002B00F0AE8040F21801C2F200010A6842
:1053B000D0F804E0167AB2F90A10002E18BF0126C0
:1053C000B1F1FF3018BF0120064239D0B2F90C20EC
:1053D000012B03F0010C40F095800023BCF1000F7D
:1053E00000F08F800EEB43105B011EF80370054642
:1053F00015F8013F07F04B070A2F1FD15E06B0F9E1
:10540000086003F0620758BF7B1DB14203F0DF065E
:1054100012DBB0F90C70B9420EDCB0F90A108A4206
:105420000ADBB0F90E00824206DC43F02006580683
:105430005CBF06F0F900861C46F040032B70F0BDFF
:10544000581E032803F0030180F0BC8000220029CD
:1054500057D00EEB421052011EF80270024612F8AD
:10546000013F07F04B070A2F10D15F060ED503F05E
:10547000FE0743EA871747F008079E0658BF43F028
:105480001007FBB247EA931323F046030129137078
:1054900037D0024612F8213F12F8017C07F04B0783
:1054A0000A2F10D15F060ED503F0FE0743EA8717D7
:1054B00047F008079E0658BF43F01007FBB247EAC3
:1054C000931323F046030229137008BFF0BD10F8B0
:1054D000411F10F8012C02F04B020A2A10D14A0693
:1054E0000ED501F0FE0241EA821242F008028B065C
:1054F00058BF41F01002D1B242EA911121F04601A9
:105500000170F0BD03F0FE000EF12004002308E05E
:1055100045F0400602336670984204F140043FF4BF
:105520005DAF14F8206C14F81F5C06F04B060A2ED1
:1055300020D16F0634F9187C05F0620658BF751D3E
:10554000B94205F0DF0613DB34F9147CB9420FDCF5
:1055500034F9167CBA420BDB34F9127CBA4207DC10
:105560006E0645F020065CBF06F0F905AE1C00BFD4
:1055700046F040052778667807F04B070A2F04F8B5
:105580001F5CC7D17706B4F9087006F0620558BFF2
:105590006E1DB94206F0DF05BADBB4F90C70B942F2
:1055A000B6DCB4F90A70BA42B2DBB4F90E70BA4292
:1055B000AEDC750646F020055CBF05F0F905023546
:1055C000A6E700BF03F0FC000EF14003002207E055
:1055D000043283F82150904203F180033FF437AF47
:1055E00013F8407C13F83F6C07F04B070A2F10D1DB
:1055F00077060ED506F0FE0746EA871747F008073C
:10560000B50658BF46F01007FEB247EA961727F0D6
:10561000460613F8207C13F81F5C07F04B070A2F8F
:1056200003F83F6C10D16F060ED505F0FE0745EA72
:10563000871747F00807AE0658BF45F01007FEB2BF
:1056400047EA961727F046051F785E7807F04B0764
:105650000A2F03F81F5C10D177060ED506F0FE075F
:1056600046EA871747F00807B50658BF46F0100707
:10567000FEB247EA961727F0460693F8207093F893
:10568000215007F04B070A2F5E70A1D16F069FD5FE
:1056900005F0FE0745EA871747F00807AE0658BF32
:1056A00045F01007FEB247EA961727F046058FE748
:1056B0002DE9F04F95B042680A901068002850D04C
:1056C0000A980368002B4CD00A9FD188B7F90A00CA
:1056D000B7F90E7009B23F1A8F420E9141DB0A9E54
:1056E000928831891FFA80FC0591B089317E0D9234
:1056F000728BB6F81CE001261D46069202E000BF40
:10570000013604352C780A2C0CD0CCB16C780A2CDC
:105710000CD0ACB1AC780A2C0CD08CB1EC780A2C43
:105720000CD1EDE701366C780A2CF2D10136AC7859
:105730000A2CF2D10136EC780A2CE1D0002CE0D111
:1057400011F0300F10D00125B6B2CFF6FF75AD1BAA
:105750000E9A05FB0EF506FB1256374401373E0440
:1057600003D515B0BDE8F08F0027059A0125861AEC
:105770000D9AD008540718BF05EBD2000E9A002AE4
:1057800006F10102049240F39D81060400F0EC81D1
:1057900001F001020E9C0392C1F3400285B2029215
:1057A00005FB04F208920A9AC1F300113FB202F11C
:1057B000100602F1140847FA01F10D9F069A01380C
:1057C0003A4407920EEB040280B240F21804B64647
:1057D0006144C4460130C2F20004019209910C9068
:1057E00011951496002019460A78EAB10A2A1BD0AE
:1057F0004A787AB10A2A0DD08A787AB10A2A0DD06D
:10580000CA787AB10A2A0DD0043104300A78002A05
:10581000ECD109E040F0010006E000BF40F00200DA
:1058200002E000BF40F00300069AC0F101015143BD
:105830000D9A00FB12100499084400B200283FF5AD
:1058400090AF029980B2C84003990029059908BF1A
:1058500001440F9106E000BF07980F990B9B01448C
:105860000F9101331878A0F1B0014C2900F23A8071
:10587000DFE801F0283E3E3E3E2A3E3E3E3E3E3EB2
:105880003E3E3E3E3E3E3E3E2C3E3E3E3E3E3E3E4A
:105890003E3E3E3E3E3E3E3E3E3E2E3E3E3E3E3E38
:1058A000303E3E3E3E3E3E3E323E3E3E3E3E3E3E32
:1058B0003E3E3E3E3E3E3E3E3E3E343E3E3E3E3E12
:1058C000360000BFF82013E0E62011E08E200FE044
:1058D00099200DE09A200BE0842009E0942007E055
:1058E000812005E000283FF43CAF0A2800F0E28068
:1058F0000A99089A49680B93096802FB0010002175
:105900001390099812900DE00C981399014413918B
:1059100010990E9801318142129800F10100129005
:105920003FF49AAFDDF834A0DDF83CB04FF000084A
:105930000026109108E000BF4FF0000A0136B0B217
:10594000A84208F10108DFD25FEA0A40F4D01399B7
:10595000206811F808400368E007704608BF6046F9
:10596000129902680DB20FFA8BF029466746F1468C
:105970009847BC461FFA8AF7012F0BF1010000F08F
:105980008F8040F21801C2F20001096800B20B6872
:10599000A107494658BF61460A682946E14698472B
:1059A000022F0BF1020073D040F21801C2F2000185
:1059B000096800B20B686107149958BF49460A6824
:1059C00029469847032F0BF1030061D040F21801DC
:1059D000C2F20001096800B20B682107149958BF90
:1059E00049460A6829469847042F0BF104004FD016
:1059F00040F21801C2F20001096800B20B68E1062A
:105A0000149958BF49460A6829469847052F0BF153
:105A100005003DD040F21801C2F20001096800B251
:105A20000B68A106149958BF49460A682946984749
:105A3000062F0BF106002BD040F21801C2F2000134
:105A4000096800B20B686106149958BF49460A6894
:105A500029469847072F0BF1070019D040F2180785
:105A6000C2F20007396800B20B6861B2149C0029C9
:105A7000214658BF49460A6829469847119D0BF1AF
:105A8000080BAAF1080AA646CC463C4656E700BFDA
:105A9000DDF850E0119D4FF0000A8346CC4604E04B
:105AA000119D4FF0000A8346CE4640F21804C2F220
:105AB000000443E70198099901330144099191E6F3
:105AC00001330133002019460A78EAB10A2A1BD0B3
:105AD0004A787AB10A2A0DD08A787AB10A2A0DD08A
