:020000040800F2
:10000000D8090020D900000801440008093B000875
:1000100000000000000000000000000000000000E0
:1000200000000000000000000000000089460008F9
:100030000000000000000000034400088B46000898
:10004000EB00000800000000B1440008EB000008CD
:10005000EB000008EB000008EB0000084D0D000865
:1000600000000000390C0008490C0008290C0008A9
:10007000ED090008EB000008EB000008000000009C
:100080004147000800000000000000002147000870
:100090000000000031470008EB000008EB000008FA
:1000A000EB000008EB000008EB000008CD4E000854
:1000B000DD4E00080000000000000000000000000D
:1000C0000448854600F080FC004800473559000888
:1000D000C046C046D809002004488047044800476D
:1000E000FEE7FEE7FEE7FEE7FEE7FEE71D47000846
:1000F000C100000830B50B46014600202022012433
:1001000009E00D46D5409D4205D31D469540491B4B
:100110002546954040191546521E002DF1DC30BD94
:10012000D2B201E00270401C491EFBD2704700228F
:10013000F6E710B513460A4604461946FFF7F0FFE6
:10014000204610BDF8B502464A40D40F42004B008D
:1001500052085B089A4202D20246084611464A00FB
:1001600023D0C30D4A00DDB2120EAD1A202D35DAB0
:1001700049020126490AF6058A19002C00D052428C
:1001800020214F1B1146B9402A411018C20D9A4236
:1001900021D0002C17D0012D08DCDA05801AD20FEF
:1001A0008019D207DBB200F043FBF8BDDA05801AF4
:1001B000012340001B06C01880185A428018CA0F3D
:1001C0001043490007E04908C2071143DA05801AC5
:1001D00080194008801800F023FBF8BD610001225F
:1001E000511A001BF7E70122D2075140AAE701226A
:1001F000D2075040A6E7024670B54A40D30FDB074E
:1002000040002DD04A002AD0010E140E0002120226
:100210000919400A520A8418E50104465443000AA9
:10022000120A2E045043A4194219200CC543AA18DF
:10023000120C0125AD03521C521912047F392404FB
:1002400000D0521C104301D44000491EC2B20C061B
:10025000C0092018401C4008802A02D003E000207A
:1002600070BD40084000002900DA0020184370BD2E
:1002700070B502464A40D50F40004A00ED074008DD
:100280005208002814D0002A12D0C40DD30D410208
:100290000120C0055202490A520AE41A091812182C
:1002A0007D34914201D3641C00E04900002C01DA46
:1002B000002070BD0023914201D3891A03434008F6
:1002C00049000028F7D100290AD0914202D101212A
:1002D000C90705E0914201D2012101E00121C94392
:1002E000E005C018401900F09BFA70BDF0B5074654
:1002F0000846584087B0C00F049048000E46590089
:1003000040084908BC1A884105D2384631461E4685
:1003100017460B4602465800400810434DD0300D9A
:10032000039040055900400D490D0590401A029078
:10033000402873DA18030121000B090508430190D6
:1003400004980092002806D01146019A49420020E4
:10035000904100910190029840210A1A0199009859
:1003600000F02AFA05460C466B4607CB00F045FA2A
:10037000C0197141039A0E0D0023D71756401A4633
:100380007A40164344D0049A002A2DD0029A012ABA
:10039000039A15DC1205C01A914101263605001C8E
:1003A0007141D20F059ED2070093019202962A4610
:1003B000234600F083FA07B0F0BD38463146FAE72D
:1003C0001605234A0F46B218C01AB7410121090584
:1003D000001C4F4100187F41114618187941E20F67
:1003E00010436D19644113E0E2076D08154364087A
:1003F000C2071443039A01261205C01A914136051B
:10040000001C7141CE07400830434908C0185141D3
:100410002A46234600F045FACDE7FFE7049801227B
:100420004000C117121A00238B4104983146C417AB
:10043000381AA141EEE730B40124E407634030BC30
:1004400054E730B40124E407614030BC4EE70000BB
:100450000000E0FFF0B51FB488B00B9909980024A4
:1004600048400999C00F490049080991C0070B99F4
:100470000090490049080B9109990898A64608433D
:100480001CD00B990A98084318D009980124400001
:10049000420D4800410D099824050003000B20433C
:1004A00009900B980003000B20430B9050181C4937
:1004B0004018002201901446104605E00020014635
:1004C0000DB0F0BD032801DA034600E003239C468B
:1004D000C11A0AAE0AE05F0008ADED5B4F00F75BA2
:1004E0007D430027AA187C41491C5B1E6145F2DD53
:1004F000410004AB5A522104120C0A43240C401C44
:100500000828DFDB01980290009970460191009065
:10051000059B049A0799069800F0D0F9D0E70000EF
:100520000DFCFFFFF0B50C465C4085B0E40FE4071E
:1005300003944C000026640859009446490802467A
:100540000296224321D062460A431ED06200570D14
:100550004A000E032303550D012402462C492405AD
:10056000781B1B0B360B4018234326436146009033
:100570001C46501AB44103D30098401C009002E07E
:10058000921800985B41002803DA0020014605B06C
:10059000F0BD0020012109050746864611E06446AA
:1005A0001D46141BB54106D36546521BB341744624
:1005B00007430C43A646CD07400849082843921834
:1005C0005B4105460D43EAD11046184313D06046FF
:1005D000194650407140084306D06046101AB34196
:1005E00006D20122002306E000220123DB0702E0FD
:1005F0000122D2435310009874460105381C614112
:10060000029C039D0019694100F04BF9BFE700000F
:10061000FD03000070B54B005B0803430BD04B009B
:100620005C0D002633466542B341D417AD1AA34191
:1006300002DB0020014670BD12053018514170BD2B
:1006400010B500229623114600F0F2F810BD00000C
:100650000EB5C217C10F5040CA0740180021054B04
:100660000293019200910A460B4600F027F903B06D
:1006700000BD0000330400000EB5054902910021C1
:1006800000910A460B46019100F018F903B000BD35
:1006900033040000410040020122400AD205090E45
:1006A00080187F2901DA00207047962903DC962202
:1006B000511AC84070479639884070474A0009036C
:1006C0000123090B1B051943094B10B5520D9A4222
:1006D00001DA002010BD064B34339A4203DC9A1A2B
:1006E00000F07AF810BD03495118884010BD000091
:1006F000FF030000CDFBFFFFC20FD2074000400800
:100700000BD0C10D0723DB01C91840020905400ABF
:100710001143C2084007114370470020014670474B
:10072000CB0FDB07490010B5490802460A4307D042
:100730000A0D07240903E401090B121B002A01DC3E
:10074000002010BDC900440F0C43C100E018D205C1
:10075000801800F065F810BDF0B51FB40646002003
:1007600082B005464024019100901BE00199224689
:100770000F46304600F030F8049A059B801A9941E4
:1007800010D310461946224600F016F8361A8F414B
:100790000197224601200021009F00F00DF8381833
:1007A0004D4100902046641E0028DFDC019B00982C
:1007B0002946324607B0F0BD10B5202A04DB0146B9
:1007C000203A9140002010BD914020239C1A0346FE
:1007D000E3401943904010BD10B5202A04DB0846C1
:1007E000203AD040002110BD0B46D340D0402024F9
:1007F000A21A91400843194610BD10B5202A06DB05
:10080000CB170846203A1041C1170B4306E00B46B0
:100810001341D0402024A21A91400843194610BD2C
:10082000002904DA401C490001D14008400070470B
:1008300070B40024050C05D11024000402D1002955
:1008400021D01124050E01D100020834050F01D179
:100850000001241D850F01D18000A41C002801DBAC
:100860004000641C002908D020252E1B0D46F540B1
:10087000A14000D001212943084301061B1B000AA7
:10088000DB1D02D5002070BC7047DB0518188018EE
:100890000029F8DA401C4900F5D170BC400840003E
:1008A000704710B5002B08DA0024401C61419218F3
:1008B0005B411A4301D14008400010BDF0B51FB4A0
:1008C00082B005460C0003D0084604F01FFB02E08E
:1008D00004F01CFB20300246009021462846FFF71A
:1008E0006BFF049B059A04460F46184311430843C7
:1008F00014D0184610431BD0009840210A1A1846FD
:100900000599FFF769FF05460E46009A0599049878
:10091000FFF752FF084305D0012004E02046394686
:1009200007B0F0BD0020C11705430E432C433743E9
:1009300000990E986305401A7905E40A00220C43D9
:10094000FD0A0A3002D500200146E9E70105101929
:1009500069410C9C0D9D00196941FFF7A2FFDFE77B
:100960004A0009030123090B1B0519430A4B10B563
:10097000520D9A4202DA0020014610BD064B343374
:100980009A4203DC9A1AFFF727FF10BD034BD218D7
:10099000FFF712FF10BD0000FF030000CDFBFFFFBB
:1009A00010B5002904DB0124E40740428C412146B4
:1009B000002B04DB1C460123DB075242A341994272
:1009C00000D1904210BD0000064C0125064E05E006
:1009D000E36807CC2B430C3C98471034B442F7D360
:1009E000FFF772FB385C0008585C000810B502483D
:1009F00000F07EFB10BD0000C800002070B504466A
:100A0000006803F045FA002824D02068816889072F
:100A1000C90F04D18168104A11401031816001F082
:100A2000A9F8054612E001F0A5F8401B02280DD9EF
:100A300020688068400709D5A06D10210843A06593
:100A4000E06D01210843E065084670BD20688068BC
:100A50004007E8D4002070BDE8FFFF7F10B5846A2E
:100A6000A16D502211420DD1A06D01214902084310
:100A7000A065206803F010FA00281BD0A07E002893
:100A800007D017E0A16DC90624D5204600F02EFB43
:100A900010BD2068016809070CD503F0F9F901467B
:100AA000012000290AD0A16D20221143A165E16D2A
:100AB0000143E165204600F017FB10BD21684A683C
:100AC0000C239A434A60A16DFF22013291430143F6
:100AD000A165EFE7216D496B884710BD10B5806AAD
:100AE000816D402211438165C16D04221143C165AE
:100AF00000F0FCFA10BD10B5806A00F0F6FA10BDE7
:100B0000F8B50446006881688907CD0F03F0B8F98D
:100B100000282AD0002D28D12068816805221140A4
:100B200010250126012914D18168114A1140891C20
:100B3000816021680320086001F01CF8074610E07E
:100B400001F018F8C01B02280BD920688068C00784
:100B500007D0A06D2843A065E06D3043E06501201B
:100B6000F8BD20688068C007EAD10020F8BD000009
:100B7000E8FFFF7FF8B5044600200090206803F0EE
:100B80007FF9002845D120688168234A102611404A
:100B9000002930D18168D5432940491C81601F4814
:100BA000006807218905084000020AD51D481C4934
:100BB0000068FFF79FFA401C00E0401E00900028EC
:100BC000FBD1607E012824D000F0D4FF07461BE053
:100BD00003F056F9002804D1206881682940491C97
:100BE000816000F0C7FFC01B02280DD92068006893
:100BF000C043C00708D0A06D3043A065E06D01215F
:100C00000843E0650846F8BD20680168C943C90784
:100C1000DED10020F8BD0000170000800827014049
:100C2000400D03003800002010B5024800F08EFD92
:100C300010BD00006C02002010B5024800F086FDD7
:100C400010BD00002C01002010B5034800F07EFD0F
:100C5000024800F07BFD10BD200500207C0500202F
:100C600010B50446006C0949800880004018606493
:100C7000207814210838FFF73DFA04498031A16437
:100C8000C106C90E01208840E06410BD0008024082
:100C90000179084B8906890E8A00D2180265054A37
:100CA0004432491E42658A07920F012191408165B5
:100CB00070470000FC080240F0B5846CC56C6560AC
:100CC000046D002C02D0446D856D65600B4C656829
:100CD000066C1C273E400127B7403D436560046811
:100CE00063608368102B036803D099600068C2605A
:100CF000F0BD9A600068C160F0BD000000000240D5
:100D000010B5104C0E482178405C0F49085C03F088
:100D100091FC0D4821780838405CC043C0B203F014
:100D200089FC03F06FFC322004F0DCFD2078401CCD
:100D3000C0B22070062801D30020207010BD000032
:100D4000240000202A0000204400002010B52020AC
:100D500000F038FE10BD72B6FEE70000F0B50446A4
:100D6000002089B02546064640350290287D01289E
:100D70000ED001272F752046FFF7C2FE0590206890
:100D800003F082F80028A06D05D01021084388E008
:100D9000022009B0F0BDFF21013188430221084340
:100DA000A0652068C168414A11400491C168D243DE
:100DB0001140C16000212068826817239A43DB0735
:100DC0001A4382603A4A20680DE0029B5B1C029342
:100DD000934208D3A06D0221884310210843A065E7
:100DE000002028754DE08368DB0FEED18030406B2A
:100DF000491C4006400E86190829DCD33046FFF70F
:100E000079F90146206882682A4B1A40521C826098
:100E100020680269920F920713D1274A12680F26A1
:100E2000B60432400726B604B2420AD3920C3E46BC
:100E3000D21E96407208019600E0521E0192002ACE
:100E4000FBD18030426BD209D2010A434263206851
:100E500081681940891C816000F08CFE064612E012
:100E600000F088FE801B02280DD9206803F00CF8E2
:100E7000002808D0A06D10210843A065E06D38431C
:100E8000E065012085E7206802F0FEFF0028E7D139
:100E90002068C168049A1143C160A06D8008800079
:100EA000401CA06500202875059872E703800000AB
:100EB00000F20200E8FFFF7F0827014070477047FB
:100EC00070477047F8B5002706460446403600973D
:100ED000307D0D4601280FD001203075206802F0CA
:100EE000D7FF00280AD0A06D20210843A065012764
:100EF000002030753846F8BD0220F8BD6868022829
:100F00007ED001222169D207914202D0121D914266
:100F100006D120682968826A4903490B0A436EE0BA
:100F2000C206D20E0F20216E9040814328684303F1
:100F300002D0C3074BD102E04000C00E48E0830757
:100F400001D5012044E0430701D5022040E003071A
:100F500001D503203CE0C30601D5042038E0830618
:100F600001D5052034E0430601D5062030E0030614
:100F700001D507202CE0C30501D5082028E0830512
:100F800001D5092024E0430501D50A2020E003050E
:100F900001D50B201CE0C30401D50C2018E083040C
:100FA00001D50D2014E0430401D50E2010E0030408
:100FB00001D50F200CE0C30301D5102008E0830306
:100FC00001D5112004E0400301D5122000E00020EB
:100FD0009040014321666968E2698808401C90429C
:100FE00010D820682B68826A9C46C906C90E0F2358
:100FF0008B409A4363469B001B0F8B401A4300E0D3
:101000003BE082622168AB6828684A69000282433B
:1010100018404001400902434A612868002800DB6B
:1010200066E72B4A116807239B051940294B984214
:1010300014D10B0212D4C0020143104602F034FF57
:10104000264825490068FFF755F80C21401C484305
:1010500000E0401E00900028FBD149E7204B984259
:1010600003D1CB0101D4800205E01E4B9842D7D1B9
:101070004802D5D45802014325E001212069C9075F
:10108000884202D0091D884206D120682968826AF8
:101090004903490B8A43826228680028C0DA0C4A57
:1010A000116807239B0519400A4B984201D1C002E1
:1010B00008E00B4B984201D1800203E0094B9842B3
:1010C000AED140028143104602F0EEFE10E7000070
:1010D00008270140001000B0400D03003800002038
:1010E000004000B8002000B470477047704700000F
:1010F000F8B50446006806684568B0070FD5A8072C
:101100000DD5A06DC00604D4A06D0121C90208430D
:10111000A0652046FFF7D3FE216802200860474FF4
:10112000700701D5680703D4300728D5280726D5CE
:10113000A06DC00604D4A06D012149020843A0653A
:10114000206802F0A9FE002813D0A07E002810D14C
:101150002068016809070CD502F09AFE01460120BB
:10116000002960D0A16D20221143A165E16D0143EA
:10117000E1652046FFF7B8FF21680C2008603006C3
:101180000CD528060AD5A06D012109040843A065E5
:10119000204600F065F9216880200860F0050BD535
:1011A000E80509D5A06D012149040843A065204642
:1011B000FFF786FE20680760B0050DD5A8050BD5A2
:1011C000A06D012189040843A0652046FFF779FE40
:1011D0000120216840020860F00618D5E80616D5FF
:1011E000206B002804D02068C0688007800F0BD0D7
:1011F000A06D012189020843A065E06D022108432A
:10120000E0652046FFF772FF216810200860B004F7
:1012100008D5A80406D52046FFF750FE0120216816
:1012200040030860F8BD21684A680C239A434A606D
:10123000A16DB9430143A1659BE7000000010000D7
:10124000FEB50027044601973E4602970097002806
:1012500005D02546A06D2035002802D007E00120EA
:10126000FEBD204600F0FEF8E665542006552068D5
:101270008168C900C90F12D18168724A11400122E8
:1012800012071143816071486F490068FEF732FF11
:101290004000801C00E0401E00900028FBD1206828
:1012A0008168C900C90F08D1A16D10221143A16541
:1012B000E16D01221143E165174602F0E9FDA16DE0
:1012C000C90601D4002804D0A06D10210843A065F0
:1012D000B4E0A06DFF210131884302210843A065DD
:1012E000206802F0CDFD00286DD1217EA068890321
:1012F0000843617ECA03A17E4B031A431043226B4D
:10130000002A01D0012212031043E268104322692F
:10131000002A02DA5200520801E00122520510436D
:101320002A7B52001043019A10432A78012A09D1DE
:10133000002922D0A16D20221143A165E16D012277
:101340001143E165616A002906D0FF23C1331940CA
:10135000A26A0143104608432168CA683C4B1A4000
:101360000243CA606168029A890F8907E06C0A43E8
:1013700010432A7F012A04D00CE00121090408430C
:10138000E0E7636C226C491C1A43A36C0B431146C3
:101390001943084321680A692E4B1A4002430A6127
:1013A00003216068890788420DD0590788420AD016
:1013B0004900884207D0284A91680F239B0499432B
:1013C0001840014391600021626B206802F073FDB8
:1013D0002249A26B206802F06EFD0F202169C043F4
:1013E00000291CD00122520591420AD121688A6A43
:1013F000227F9200121FD206D20E9040226E10431E
:10140000886220684069616B4007400F88420BD1B9
:10141000E665A06D80088000401CA0650FE0216893
:101420008A6A02438A62ECE7A06D02218843102198
:101430000843A065E06D01210843E06501273846B7
:10144000FEBD0000E8FFFF7F400D030038000020D4
:101450000102DEFF02FCFF1F0027014004FFFF071F
:1014600070470000F0B587B0054614216846FEF7C6
:101470005EFE2949286888424CD12848026801212B
:1014800009050A4302600068084024490590403974
:10149000486B012210434863486B10400590486B2D
:1014A000022420434863486B0327204005904020D6
:1014B000009000260520694601970296000700F07B
:1014C00097FA6946164801970296009400F090FA40
:1014D000154C14482060A6600520E66060608020FE
:1014E0002061400060618000A0612020E061C001B7
:1014F0002062204600F086F9002801D0FFF72BFC7F
:101500002C65002211460C20A56200F0B7FD0C20CE
:1015100000F0A8FD07B0F0BD0024014040100240DB
:1015200000040050080002402C010020F7B50446DA
:10153000006802F0ADFC002845D125464035287DE5
:10154000012840D001272F752068C1681F4EC907A8
:101550000CD102F095FC002804D02068816831404D
:10156000891C81602068C1683943C1602046FFF74B
:1015700001FB002826D1A06D15490840FF2101314B
:101580000843A0650020E065226D1249D162226DFA
:1015900011491163226D1149516322681C211160A8
:1015A0002875206841681022114341602168206D30
:1015B0004031029B019A00F077F921688A68324035
:1015C000121D8A60FEBD0220FEBD0000E8FFFF7F05
:1015D000FEF1FFFF5D0A0008F70A0008DD0A0008B7
:1015E000F8B5064604464036307D012807D001276D
:1015F00037752046FFF702FA050002D028E00220E6
:10160000F8BD206D2521095C022907D100F024F8DE
:10161000050003D0A06D40210843A0652068416803
:10162000102291434160002D204602D0FFF768FA56
:1016300009E0FFF765FA050005D1A06DFF21013132
:1016400088433843A0652068C16849084900C160E3
:10165000002030752846F8BDF0B5002808D00146B6
:1016600020314A79022A05D00422C2630020087181
:101670000120F0BD026813680E24A3431360426C7E
:101680001468FF2301339C431460026814686408E3
:10169000640014600C4A5568066C1C242640012422
:1016A0002746B7403D435560826CC56C5560026D5E
:1016B000002A05D015689D431560826D406D42601B
:1016C0004C7100200871F0BD00000240F8B5002404
:1016D000024620325179022903D00421C16301243A
:1016E0002DE001680B680E25AB430B6001680B68A9
:1016F0005B085B000B60416C0B68FF250135AB4359
:101700000B6010494D68066C1C231E4001231F46C8
:10171000B7403D434D60816CC56C4D60016D002943
:1017200006D00E681D02AE430E60416D856D4D60A2
:10173000537100211171816B002900D08847204628
:10174000F8BD000000000240C06B7047F0B42C49A7
:101750000C6802681368056C1C273D400426AE40E7
:10176000264211D05E070FD513689B0603D4146878
:1017700004239C4314604B68046C04223C40A24048
:1017800013434B60016B1CE00227AF400646274025
:101790002036002F19D09F0717D513689B0605D454
:1017A00013680A24A3431360012272714B68046C0E
:1017B0001C2214400222A24013434B6000213171CD
:1017C000C16A00291AD0F0BC08470827AF40274259
:1017D00014D01B0712D513680E24A34313604B6863
:1017E000046C1C22144001221546A5402B434B607B
:1017F000C263727100213171416BE2E7F0BC704746
:101800000000024070B504003FD02548256814212F
:101810002818FEF76FFC8000206402202646203640
:10182000707128681F4908402860E168A0686269F3
:101830000843216911430843A1690843E16908434A
:10184000216A084321680A68104308602046FFF7B0
:1018500007FA0121A06889030025884200D165604C
:101860002079616C8006800E0860A06CE16C41609C
:101870006068401E03280AD82046FFF709FA206D49
:101880000560606DA16D416004E0012070BD2565BB
:101890006565A565E563012070713571002070BD37
:1018A000F8FFFDBF0F80FFFFF8B504468C462030DF
:1018B0000179002501290BD0012606714179002705
:1018C000012907D08021E163077101252846F8BD71
:1018D0000220F8BD02214171E763206801684908D0
:1018E0004900016061462046FFF7E6F9206B0028B9
:1018F0002068016801D00E2205E0042291430160B6
:10190000206801680A2211430160606C0168CA0303
:10191000074902D502680A430260206D002802D000
:1019200002680A4302602068016831430160CDE724
:101930000001000070B5044600F01CF90546601C6B
:1019400002D004480078241800F014F9401BA0428B
:10195000FAD370BD2C00002070B5144C0646A07858
:10196000002501280DD1A570052211491148FFF766
:10197000DDFD114801F022FB104801F01FFB01F0D2
:1019800061F9E570202E0DD120210D4800F0DEF820
:10199000002807D12079002805D0012802D125711F
:1019A0000420607070BD01202071FAE70000002063
:1019B00074000020C800002060030020AC03002059
:1019C0000004005070B5084D0446E868204203D07A
:1019D000EC60204600F00AF82869204203D02C6110
:1019E0002046FFF7B9FF70BD0018024070470000A5
:1019F000F0B5002303249AE02A4601259D402A40A1
:101A00007ED00E79B607B60F012E01D0022E16D168
:101A100086682746B4465E00B646B7406646BE4373
:101A2000B446CF687646B740664637438760466817
:101A3000AE430D79ED06ED0F9D40354345600D79C0
:101A4000ED43AD0708D0C5685F002646BE40B543EC
:101A50008E68BE402E43C6600D79AD07AD0F022DD6
:101A60000ED1DD08AD002D18AC462D6A5E07F60ECE
:101A70000F27B740BD430F69B7402F4365462F621C
:101A800005685F002646BE40B5430E79B607B60F1F
:101A9000BE402E4306604D68AD03AD0F46D09E0894
:101AA000264DB6007519AC462D6E9E07F60E0F2713
:101AB000B740BD4305273F07B84201D100270FE0DB
:101AC0001F4FB84201D101270AE01E4FB84201D191
:101AD000022705E01C4FB84201D1032700E005278B
:101AE000B7402F43154D664637662D684E689543BF
:101AF000F60200D51543114F3D607D68954300E027
:101B000014E04E68B60200D515437D600B4D80355C
:101B10006E684F689643BF0300D516436E602E680B
:101B20004F689643FF0300D516432E605B1C0A687E
:101B30001546DA4000D05FE7F0BD00000018024013
:101B40000004005000080050000C005000690840DC
:101B500000D001207047426913460B401B0491439B
:101B60000B4383617047002A01D081617047816215
:101B70007047000001488068704700002C0000207A
:101B800070B5024640325378202B1CD11378012BBC
:101B900019D00123137024245470046825689D43D0
:101BA0002560046825681E03B54325600468256820
:101BB0000D432560006801681943016020205070C2
:101BC0000020107070BD022070BD70B5024640321A
:101BD0005378202B1BD11378012B18D001241470BB
:101BE0002423537003681D68A5431D6005682B6896
:101BF0000F263602B34309021943296000680168C1
:101C000021430160202050700020107070BD022020
:101C100070BD000070B5040006D0254640356878D8
:101C20000026002802D005E0012070BD2E7020465D
:101C300000F072F9242068702068016849084900A2
:101C400001600F21606809068843216808612168E6
:101C50008A680120C00382438A60E1680129A16883
:101C60002FD0212292021143226891600121E26863
:101C7000C902022A2268536825D08B435360216829
:101C80004A68124B1A434A602168CA688243CA6094
:101C9000616920690843A169090208432168C86095
:101CA000216AE06908432168086020680168012210
:101CB000114301606664202068702663AE700020C6
:101CC00070BD0143D0E70B43D8E70000008000025D
:101CD000FFB5054604464035687881B0202878D1A4
:101CE0002878012875D001202870FFF743FF0746A8
:101CF000012200901923D103204601F0B5FF0028EE
:101D00003CD1222068701020A870002666640398D9
:101D10006062049860856663618D2F48FF2903D94E
:101D2000FF22228500903BE0618D218500903DE0FF
:101D30002046029901F082FF16E001F0CFFF002853
:101D40001CD12068406A616A0870606A401C606249
:101D5000208D401E81B22185608D401E6085608D82
:101D6000002801D000290CD0608D0A9900283A463D
:101D70002046E2D102F004F800281CD0012005B072
:101D8000F0BD00970022802120460A9B01F06CFFE5
:101D90000028F3D1608DFF2805D9FF222285009607
:101DA00001231B06C4E7608D20850096208D01234A
:101DB000C2B25B06BCE721682020C86121684A687E
:101DC000064B1A404A606870AE702E700020D6E74D
:101DD000FFE70220D3E700000024008000E800FEB7
:101DE000FFB5054604464035687881B0202877D194
:101DF0002878012874D001202870FFF7BBFE074621
:101E0000012200901923D103204601F02DFF002864
:101E100051D1212068701020A870002666640398B4
:101E20006062049961856663628D3949FF2A03D92E
:101E3000FF222285CB0206E0628D228501235B060C
:101E40001204120C0FD0226800789062606A401C65
:101E50006062608D401E6085208D401E2085401C84
:101E6000C2B2009101E0002200912046029901F0E7
:101E7000E5FE16E001F0AFFF00281CD1606A216882
:101E800000788862606A401C6062608D401E6085D8
:101E9000208D401E80B22085618D002901D0002850
:101EA0000CD0608D0A9900283A462046E2D101F014
:101EB00067FF00281DD0012005B0F0BD009700226B
:101EC000802120460A9B01F0CFFE0028F3D1608DCF
:101ED000FF2806D9FF22228501231B060096C4E7AE
:101EE00014E0608D20850096208D0123C2B25B0630
:101EF000BBE721682020C86121684A68054B1A4069
:101F00004A606870AE702E700020D5E70220D3E7DB
:101F10000020008000E800FE30B58DB0044614219A
:101F20006846FEF704F9182105A8FEF700F91749DD
:101F30002068884227D1202000250590079505A814
:101F400000F018F9002801D0FEF705FF104C616B76
:101F5000022001436163616B02950140032000028E
:101F60000B91009012200190062004900395694681
:101F70000848FFF73DFDE16B012040050143E163A7
:101F8000E16B01400B910DB030BD000000540040EA
:101F9000001002400004005002488168027889184D
:101FA000816070472C00002010B5084800240168AB
:101FB000821511430160204600F00AF8002801D084
:101FC000012401E000F028F8204610BD0020024066
:101FD00070B50F4E002431780546002915D07D20BC
:101FE000C000FEF787F801460A480068FEF782F84D
:101FF00000F0F4FE002808D1042D06D20022294664
:10200000401E00F03BF8756000E00124204670BDE2
:102010002C0000203800002008B509480168012282
:102020001143016000681040009005484038C26BC1
:1020300001040A43C263C06B0840009008BD000061
:1020400040100240002809DBC106C90E012088406B
:1020500003490860BFF34F8FBFF36F8F70470000D5
:1020600080E100E0002805DBC106C90E01208840A0
:10207000014908607047000000E100E010B502F07F
:102080005DFF10BD10B50F4C216803225202914331
:1020900001432160C11FFF39FA390ED10A480621D8
:1020A000006848430949FEF725F8401C02E0002873
:1020B00005D0401E61694905F9D4002010BD0320F8
:1020C00010BD0000007000403800002040420F00AA
:1020D00010B50C480621006848430B49FEF70AF882
:1020E0000A490A680B149A430A60401C02E000285F
:1020F00005D0401E4A699205F9D4002010BD032086
:1021000010BD00003800002040420F000070004069
:1021100002480168021411430160704700700040DA
:102120000248016882151143016070470070004049
:1021300010B50C460D490028486904D0800508D424
:10214000FFF7E6FF05E0800503D5FFF7C1FF002894
:1021500009D107480169042291430161012C03D090
:1021600040BF20BF20BF10BD30BF10BD0070004079
:1021700000ED00E0F8B50446006800264D4D8003F0
:1021800058D54C4800274038C06BC00009D4494896
:102190004038C26B01040A43C263C06B0840012788
:1021A000009045480168821511430160FFF7E2FC89
:1021B000009005E0FFF7DEFC0099401A022825D8C0
:1021C0003D480068C005F5D5E869032109020840CB
:1021D0000FD0616981420CD0E86903210902EA69E4
:1021E0008843012109040A43EA61EA698A43EA61F2
:1021F000E861C0070FD0FFF7BDFC009008E0FFF7D3
:10220000B9FC0099411A2D48814201D9032609E001
:10221000E8698007F3D5E869032109028843616909
:102220000843E861002F05D022484038C26B010402
:102230008A43C2632078C00705D068696168800856
:102240008000084368612078800606D5686903210C
:1022500009038843A168084368612088400411D5B8
:10226000686921698000800808436861012120694C
:102270008907884206D10F484038C16801221204FC
:102280001143C1602088000512D5686903218903C4
:102290008843E168084368610121E0688903884256
:1022A00006D104484038C168012212041143C160BC
:1022B0003046F8BD40100240007000408813000016
:1022C000F8B50F46060043D04D4D28684007400F33
:1022D000B84213D22868C008C00038432860FFF70E
:1022E00049FC044605E0FFF745FC011B45488142D7
:1022F00061D828684007400FB842F4D13068424C9A
:1023000081070DD5400704D5A068072109030843BC
:10231000A060A0680F2109028843B1680843A0604B
:102320003078C00732D0706801280AD002280BD05C
:1023300000280FD03449403103280ED0C9698907DD
:1023400004E02168890301E021688901002906DB96
:102350000120F8BD21684905F8E7096AEFE7A1689F
:10236000C908C9000143A160FFF704FC009006E022
:10237000FFF700FC0099411A224881421BD8A0684F
:10238000382108407168C9008842F1D128684007A7
:10239000400FB84217D91A480168C908C900394323
:1023A0000160FFF7E7FB054607E0FFF7E3FB411B92
:1023B0001448814201D90320F8BD11480068400744
:1023C000400FB842F1D13078400706D5A068072108
:1023D00009038843F1680843A06000F039F8A16858
:1023E0003C2289091140094A515CC906C90EC840FE
:1023F0000749086007480068FFF7EAFDF8BD0000DC
:10240000002002408813000000100240845B000896
:1024100038000020300000200248C169202211430A
:10242000C16170474010024006480749006889684A
:10243000064A4904490F8900515CC906C90EC840C3
:10244000704700003800002000100240C45B000804
:1024500010B5204CA068204A8006400F16D0A06816
:102460008006410F501001290FD0A1688906490F3D
:10247000022912D0A0688006400F042823D0A0684B
:102480008006400F032821D0002010BD20680121C4
:102490008004400F8140104612E0E1688B07E1683C
:1024A0009B0F4906490F491C032B00D01046FDF72E
:1024B00021FEE1684904490E4843E168490F491C7F
:1024C000FDF718FE10BD0120C00310BD7D200002E5
:1024D00010BD0000001002400024F400F8B5040014
:1024E0007ED020783827C007E94D002846D0A8685C
:1024F000E96838408907890F102802D008280BD0D6
:1025000001E0032908D001206268000482420AD158
:1025100029680143296015E0286880032ED560688A
:102520000028DDD02AE0052301211B0489049A42FA
:102530002A6802D10A432A60EAE782432A602868AF
:1025400088432860606800280CD0FFF713FB06461C
:1025500004E0FFF70FFB801B642873D82868800312
:10256000F7D50BE0FFF706FB064604E0FFF702FB9A
:10257000801B6428F1D828688003F7D4207880076E
:1025800069D5A868E96838408A070721920FC9020F
:10259000102802D0002813D001E0022A10D0E068F1
:1025A000002846D0286888432169084328602868A5
:1025B000FF21013108432860FFF7DCFA06462CE0D2
:1025C0002A68520502D5E268002A89D06A687F230A
:1025D0001B029A4363691B021A436A60002800E0E9
:1025E0008DE00ED128688843216908432860286857
:1025F00001218004400F8140A648FDF77BFDA649DC
:102600000860A6480068FFF7E3FC002877D122E0C5
:10261000FFF7B0FA801B02289FD828684005F7D53D
:1026200068687F210902884361690902084368607C
:1026300011E02968FF20013081432960FFF79AFAF1
:10264000064605E098E0FFF795FA801B022884D83B
:1026500028684005F7D42078914E00072ED5A86849
:102660008006400F03280AD0A0690028306A16D0DF
:10267000012108433062FFF77DFA07460BE0306A1C
:1026800080071BD5A06900289FD017E0FFF772FADA
:10269000C01B022870D8306A8007F7D50EE04008CA
:1026A00040003062FFF766FA074604E0FFF762FA7F
:1026B000C01B022860D8306A8007F7D42078400712
:1026C0006CD5A86800278006400F042818D0E86B56
:1026D000C00008D4E96B012000070143E963E96BFE
:1026E0000140012700916F480168C90519D40168AC
:1026F000821511430160FFF73DFA00900DE083E081
:10270000F06980074AD5A06800287DD046E0FFF731
:1027100031FA0099401A02282ED862480068C00594
:10272000F5D5A168012910D004200529F16911D03F
:1027300049084900F161F1698143F161A06800280D
:1027400016D0FFF717FA00900EE0F0690121084358
:10275000F061F3E70143F161F7E7FFF70BFA009946
:10276000411A5148814265D8F0698007F5D50EE0DD
:10277000FFF700FA009007E05CE0FFF7FBF9009933
:10278000411A4948814255D8F0698007F5D4002F95
:1027900004D0E96B012000078143E963E069002868
:1027A00073D0A9688906490F02294DD00126360643
:1027B0000228286805D0B0432860FFF7DBF90446FB
:1027C0003AE0B0432860FFF7D5F9074604E0FFF789
:1027D000D1F9C01B02282DD828688001F7D4616A7E
:1027E000206AA26A0843E16A120211430843216B7E
:1027F0000843E9682D4A11400843E86028683043DF
:102800002860E868012100E03DE009070843E8602E
:10281000FFF7B0F9044604E0FFF7ACF9001B02280B
:1028200008D828688001F7D52FE0FFF7A3F9001B2F
:10283000022801D90320F8BD28688001F5D4E86892
:102840001B490840E86020E00128F4D0E868226ACB
:102850008107890F914216D17021626A014091422D
:1028600011D17F21A26A09020140120291420AD1CC
:102870001F214904E26A0140914204D1400F216BBB
:102880004007884201D00120F8BD0020F8BD0000BB
:10289000001002400024F400380000203000002026
:1028A0004010024000700040881300008C80C11F5F
:1028B000FCFFFEEFF7B5054604462035287A0128CF
:1028C0001CD001202872022068722168CA20486248
:1028D000216853204862206881690127BF02B943FB
:1028E00081612068C16D04221143C1652048C06820
:1028F000400619D4FFF73EF9064611E00220FEBD5E
:10290000FFF738F9811B7D20C000814208D921687A
:10291000FF20486203206872002028720320FEBD59
:102920002068C0684007EBD521680198486120689D
:102930008169C908C900816120688169029A1143CF
:1029400081610C4801680122D204114301602068B2
:102950008169521111438161206881693943816124
:102960002168FF2048620120687200202872FEBDA5
:102970000028004080180240704710B504460068E7
:10298000016D490706D5C16D04221143C16520467A
:10299000FFF7F2FF01202034607210BD70B50446CD
:1029A0000120002C4BD025462035687A002806D11E
:1029B00028721120C0026060204600F047F8022013
:1029C00068722068C168C943C90639D5CA21416205
:1029D000216853204862204601F020FD002829D1BB
:1029E00020688169184A1140816121688869A2685C
:1029F000E369104362691A431043886121682069C2
:102A0000086120680169A28912041143016120460E
:102A100001F026FD00280DD121688A69D200D20874
:102A20008A6121688A69636AA6691A43236A334303
:102A30001A438A612268FF215162002801D070BDCB
:102A400000200121697270BDBFFF8FFB10B588B0F7
:102A5000044618216846FDF76AFB1449206888423D
:102A600022D1012040040090401205906846FFF7F3
:102A700081FB002801D0FEF76EF90D48C1690122E3
:102A8000D2031143C1610A484038C26B01150A43A1
:102A9000C263C06B00220840069001210220FFF7AC
:102AA000EDFA0220FFF7DEFA08B010BD0028004062
:102AB00040100240F8B5064605462036307A0B46EF
:102AC00001280FD00127377202207072002A0BD024
:102AD000D8789C78000404435878097800024903A8
:102AE000084317E00220F8BD5878C10603D5EF214E
:102AF00008400A305870D87801F084FC04045878F3
:102B000001F080FC00020443987801F07BFC044350
:102B10001878400304432968CA2048622968532072
:102B20004862284601F07AFC002806D10748044094
:102B300028684460284601F093FC2A68FF2151620E
:102B4000002800D1777200213172F8BD3FFFFF00ED
:102B5000F7B5064605462036307A0C46012810D0D7
:102B600001203072022070722968CA2048622968E8
:102B700053204862284601F051FC0027002802D06B
:102B800027E00220FEBD029800282868806926D030
:102B9000400600D4E7702078A378000403436078EF
:102BA000E178000289050843034318480340286878
:102BB000036028688169012292049143816121693F
:102BC000E068084329688A6910438861284601F053
:102BD00047FC2A68FF215162002813D014E0400608
:102BE00000D4E770207801F00DFC0304607801F058
:102BF00009FC00020343A07801F004FC0343E078E1
:102C00008005D1E7012171723772FEBD7F7F7F00A1
:102C100070B5044621680A48C860FEF7ABFF7D2600
:102C20000546F60006E0FEF7A5FF401BB04201D9BD
:102C3000032070BD2068C0688006F4D5002070BDF8
:102C40005F000100024801690222114301617047DF
:102C500000E000E0F8B504000CD0606A0025002810
:102C60000AD02561656126464036A562707F00283E
:102C700008D00BE00120F8BD6168C81FFD38F2D014
:102C8000E561F0E73577204600F05CF802227277C4
:102C9000206801684023994301600723E1681B0213
:102CA000994201D9002001E0012000030F273F02D3
:102CB000B94202D0994200D0A562FF236168053372
:102CC00019402127A368BF023B40194323691340E1
:102CD000227D1943D207D20F11430123A2695B025F
:102CE0001A401143E26938231A401143226A8023B3
:102CF0001A401143A26A9B011A40114322681160D5
:102D0000A1690422090C1140626A10231A40114380
:102D1000626B08231A4011430F23E2681B021A401A
:102D200011430122120310400143206841602068D2
:102D3000C16952109143C16125660120707700205E
:102D4000F8BD000070B586B0064614216846FDF750
:102D5000EEF91D493068884234D11C48026881145C
:102D60000A43026000680840059018484038416BEB
:102D7000012211434163406B002510400590144827
:102D80000090022001900520029503956946049564
:102D90000007FEF72DFE104C0E48206011206060E9
:102DA0001020E560A0606561A561E5618020256275
:102DB00020612046FEF726FD002801D0FDF7CBFF5D
:102DC0007465A66206B070BD00300140401002403C
:102DD00002100000580002406C020020094910B5A2
:102DE000401E884201D9012010BD074C60610321BB
:102DF000081F02F0A3F80020A06107202061002036
:102E000010BD0000FFFFFF0000E000E00248016984
:102E1000022291430161704700E000E07047704773
:102E200070470000F0B5034620331A7F012A24D0F2
:102E300001221A7702225A7704686268A568104F47
:102E4000BC4205D116460F22120596434A6832430A
:102E50007026B2430E68164366600068B84202D01E
:102E6000084A904204D180228968954329438160B1
:102E70000120587700201877F0BD0220F0BD000037
:102E8000002C01400004004070B5040005D0254628
:102E90002035687F002802D006E0012070BD0020A8
:102EA0002877204600F016F802206877211D206858
:102EB00001F04EFC012240342272AA77EA77227098
:102EC0006270A270E27022716271A271E2716A771F
:102ED000002070BD08B5224A01682248914207D1FE
:102EE0000268C1140A43026000680840009008BDEF
:102EF0001D4A91420FD11B484038C26B02210A4340
:102F0000C263C06B00220840009011461020FFF7FA
:102F1000B5F810200FE0154A91420FD10268C9138D
:102F20000A43026000680022084000901146132006
:102F3000FFF7A4F81320FFF795F808BD0C4A91425B
:102F4000FBD10268012149040A43026000680022A3
:102F50000840009011461520FFF790F81520EAE789
:102F6000002C0140401002400004004000200040BE
:102F700000440140014620314A7F012A01D001204E
:102F8000704702224A770068094A0121904202D024
:102F9000084A904207D18268074B1A40062A05D09A
:102FA000DB1F9A4202D002680A4302600020704789
:102FB000002C0140000400400700010001462031C0
:102FC0004A7F012A01D00120704702224A77016816
:102FD000CB6801221343CB6000680949884202D0C4
:102FE0000849884207D18168074B1940062905D056
:102FF000DB1F994202D00168114301600020704735
:10300000002C0140000400400700010001680A6A2A
:10301000074B1A4207D10A6A9B101A4203D10A6869
:10302000520852000A600121203041770020704789
:10303000111100000168CA6852085200CA60016894
:103040000A6A084B1A4207D10A6A9B101A4203D136
:103050000A68520852000A6001212030417700209E
:103060007047000011110000F8B5054604462035F0
:10307000287F0026012817D001272F7702206877A4
:10308000226890682F4B1840FF231B0298439060E2
:103090000868502838D00EDC20284FD006DC0028E5
:1030A0004CD010281ED149E00220F8BD302845D070
:1030B000402817D13AE060282ED0702818D001227D
:1030C0001203801A0FD090420CD1CB684A688968ED
:1030D000206801F081FB206881680122920311437E
:1030E000816000E001266F77002028773046F8BD28
:1030F000CB684A688968206801F06EFB216888689F
:10310000772210438860EEE7CA684968206801F0BA
:1031100079FB5021206806E0CA684968206801F000
:1031200082FB6021206801F063FBDCE7CA68496824
:10313000206801F067FB40212068F4E7226801461F
:103140001046F0E788FFCEFF70470000F8B5044650
:103150000068C66805690027A907002913DAB107C6
:1031600011D5F91E01610120207720688069800750
:10317000204602D0FFF7E8FF04E000F08BF820467D
:1031800000F089F82777680716D5700714D5042052
:103190002168C0430861022020772068806980058B
:1031A000800F204602D0FFF7CFFF04E000F072F856
:1031B000204600F070F82777280715D5300713D57B
:1031C00008202168C0430861042020772068C06976
:1031D0008007204602D0FFF7B7FF04E000F05AF85E
:1031E000204600F058F82777E80616D5F00614D5E3
:1031F00010202168C0430861082020772068C0693A
:103200008005800F204602D0FFF79EFF04E000F00B
:1032100041F8204600F03FF82777E80708D0F0078C
:1032200006D001202168C0430861204600F034F830
:10323000280601D4A80407D5300605D5216813480F
:1032400008612046FFF7EBFDE80507D5300605D5F8
:1032500021680F4808612046FFF7E0FD680608D5A1
:10326000700606D540202168C0430861204600F062
:103270002DF8A80608D5B00606D520202168C04341
:1032800008612046FFF7CCFDF8BD00007FDFFFFF9F
:10329000FFFEFFFF7047704710B5026808480068DE
:1032A000824206D1074801214171C3780A2B00D31D
:1032B000817005480068824201D1FDF721FD10BDF3
:1032C0006003002000000020AC030020704710B510
:1032D000014680310A79012A15D001220A7124227F
:1032E0008A6002681368146864086400146001222C
:1032F00052079343002242660068036020208860E2
:103300000A71104610BD022010BD10B50446803071
:10331000C068202801D0022010BD00290BD0002A4F
:1033200009D00123A0681B03984206D12069002818
:1033300003D1C80701D0012010BD0120E0660020A4
:103340002067204601F024FD010003D1E06E012832
:1033500002D00121084610BD206810220262EFF35E
:103360001080012383F3108823681C6814431C60B9
:1033700080F31088EEE700000A4A10B590420FD1A2
:103380000A460949074800F067FB3222064905480A
:10339000FFF7BBFF05480068016804229143016004
:1033A00010BD00008C040020940000207C0500204B
:1033B000704770B5044605468034207901281AD03C
:1033C000012020712420A060286806680268520845
:1033D000520002602868826807235B069A430A430A
:1033E0008260284601F032FA286806602020A0603A
:1033F0000020207170BD022070BD70B504460546E6
:1034000080342079012819D0012020712420A06067
:1034100028680668026852085200026028688268BC
:10342000D200D2080A438260284601F00FFA2868C9
:1034300006602020A0600020207170BD022070BDB9
:1034400070477047F8B50446EFF31080012181F30F
:10345000108821680A68C0239A430A6080F31088A4
:10346000EFF31080012181F3108821688A6801231D
:10347000DB059A438A6080F31088216888682546B6
:103480000006102680350027002818DAEFF3108098
:10349000012282F310888A6880239A438A6080F32D
:1034A0001088E06F00280AD08763E06FFEF7D4F839
:1034B000002804D0E06FFEF747F920280ED05620F0
:1034C00007530121606E4907884203D12068816952
:1034D000314381612020A8600020F8BD2E610320C7
:1034E000F8BD7047F8B503680446D96918689A684A
:1034F000B44D0E462E4025468035002E75D0B24E76
:10350000B24F1640074037436ED0CF0706D0C705ED
:1035100004D501271F622B693B432B618B0708D51C
:10352000D30706D0276802233B622B6904273B435D
:103530002B614B0708D5D30706D0276804233B62CD
:103540002B6902273B432B610B0709D5202303403E
:10355000334305D02668082333622E691E432E614B
:103560000B0509D5430107D501232668DB02336229
:103570002B69202633432B612B69002B42D089060F
:103580000AD520210840C9050A40104304D0616FC4
:10359000002901D0204688472869216889684906A2
:1035A00002D42821084232D0204601F0EDFA2168E9
:1035B0008868400627D5EFF31080012282F3108837
:1035C0008B68402293438B6080F310882868002822
:1035D00019D07F4981632868FEF778F8002811D058
:1035E0002868816B0DE000E017E08E0615D50127F5
:1035F00020263F07064017403E430ED0616FB5E0DE
:1036000020468847F8BD2046FFF76BFFF8BD2046EF
:10361000FFF767FF00202861F8BDE66E012E7DD11F
:10362000CE067BD5C60679D510221A622368986823
:10363000264640064036002849DA2968086840686E
:103640000004000CE8D0B78B8742E5D9F083086806
:103650000068800634D4EFF31080012181F31088D4
:1036600019681701B943196080F31088EFF31080CF
:10367000012181F3108821688B685B085B008B60F7
:1036800080F31088EFF31080012181F31088216806
:103690008B684027BB438B6080F310882020E86054
:1036A0000020E066EFF31080012181F3108821688B
:1036B0000B6893430B6080F310882868FDF7CCFFFC
:1036C00002202067B08BF18B401A81B235E0B08BBD
:1036D000F18B401A81B2F08B00289DD000299BD03D
:1036E000EFF31080012686F310881E68FF2721372C
:1036F000BE431E6080F31088EFF31080012383F334
:10370000108823689E68304FFF433E409E6080F3E0
:1037100010882020E8600020E06600E011E060678B
:10372000EFF31080012383F3108823681D6895430D
:103730001D6080F31088022020672046FFF71CFEE2
:10374000F8BDCE0208D5560206D501200005186244
:103750002046FFF776FEF8BD0E060BD50127802622
:10376000FF0506403A40164304D0A16F002900D05F
:1037700046E7F8BD4A0614D5420612D52046EFF3B7
:103780001081012282F310881A684024A2431A6033
:1037900081F310882021A9600021816700F0B2F92F
:1037A000F8BD0A0205D5420003D52046FFF748FEC2
:1037B000F8BDC901FCD50028FADA2046FFF7F8FD6C
:1037C000F8BD00000F0800000100001020010004F7
:1037D000154A000870B5040005D025468035A86854
:1037E000002802D006E0012070BD0020287120468C
:1037F00000F026F82420A8602068016849084900E4
:103800000160A06A002802D0204601F041F820465D
:1038100001F00AFA0128E7D0206841680922D202A3
:1038200091434160206881682A2291438160206829
:103830000168012211430160204601F08FF870BD3C
:10384000F0B58DB0064614216846FCF770FC1821CF
:1038500005A8FCF76CFC464A3168464F0224012556
:10386000002091422CD106460690059505A8FEF74A
:1038700081FC002801D0FDF76EFA3E484030026816
:10388000012189030A430260006808400B90786BAD
:1038900028437863786B6946C007C00F0B900320FC
:1038A000400251C105206946000703960495FEF7C2
:1038B0009FF8002201211B20FEF7E0FB1B2052E0B5
:1038C0002D4A914251D1FA6B012149040A43FA630E
:1038D000FA6B0A400B92796B29437963796B0290FA
:1038E000C907C90F0B9101940C2104460390009164
:1038F0000520694604950007FEF77AF8204D1F4819
:10390000286035206860294610208027083191C141
:103910006C61AC61EC6128462C62FDF773FF0028F6
:1039200001D0FDF718FAF567AE621448144D143053
:103930005C352860AC60EC606C61AC61EC612F615F
:1039400034202C6268602846FDF75CFF002801D017
:10395000FDF701FA80208551002201211C20AE6272
:10396000FEF78CFB1C20FEF77DFB0DB0F0BD0000C8
:103970000038014000100240004400401C0002409A
:103980002005002070477047FFB506460446803684
:10399000B06883B00D46202802D0022007B0F0BDE9
:1039A000002D0CD00598002809D00120A168000343
:1039B000814206D12069002803D1E80701D0012007
:1039C000ECE7002030612120B060FEF7D3F80190D1
:1039D000274640370598B8820598F8820120A168EB
:1039E0000003814202D12069002802D002950025FF
:1039F00015E00020029012E000228021204601F014
:103A00001DFA002818D10298002819D021680078E2
:103A100088620298401C0290F88A401EF882F88A58
:103A2000019B002806980090E6D100224021204604
:103A300001F004FA00280AD02020B0600320ADE78E
:103A400028882168C005C00D8862AD1CE4E72020ED
:103A5000B0600020A2E7000070B50546044680353E
:103A6000A868202801D0022070BD00290BD0002AB0
:103A700009D00123A0681B03984206D120690028C1
:103A800003D1C80701D0012070BD20464030216518
:103A90008282C282002028612121A960E16F002971
:103AA00018D0154BCB62E36F14491963E36F1449C7
:103AB0005963E16F134688632668216D32462832C8
:103AC000E06FFDF7F1FE002804D0102028612020CF
:103AD000A860D8E7216840200862EFF31080012138
:103AE00081F3108821688A6880231A438A6080F3F2
:103AF0001088002070BD0000334B00087F4B000889
:103B0000294A000870477047FEE701688A69D24376
:103B1000920701D400228A6200688169C943C907FB
:103B200003D081690122114381617047F7B50446D2
:103B3000006882B0816900262746C90640373546AD
:103B40000092002945DA1021C16132E00398401C3F
:103B50002FD0FEF70FF80099411A0398814201D83F
:103B6000002826D120684168012292031140BA78CA
:103B70008369DB431B0417D401239B03994213D0B1
:103B8000202A11D0416819434160FDF7F3FF0090EE
:103B90000AE0FDF7EFFF01460098081A192803D93B
:103BA00020200543012604E020688069C043800688
:103BB000EFD420688069C043800602D5002EC5D0AE
:103BC00004E0002E02D121682020C86104200543B2
:103BD000012621688869C20504D501221543120215
:103BE000CA610126410508D508210D43CA01216893
:103BF000CA610126800502D40AE0800506D50220AC
:103C0000054321680002C861012601E0002E0FD0A3
:103C10002046FFF77AFF20684168074A114041605B
:103C2000606C28436064202078700020B870387081
:103C3000304605B0F0BD000000E800FE890510B573
:103C4000890D12041143029C194302682143490063
:103C500050684908630D034C234398430843506060
:103C600010BD0000FF63FF03F8B51D4617460E4662
:103C7000044626E029462046069AFFF757FF00280B
:103C800001D00120F8BD681C1BD0FDF773FF069919
:103C9000401AA84201D8002D13D12068816930460E
:103CA00088430CD00020B8420BD1616C2020014326
:103CB0006164403460700020A0702070E1E7012052
:103CC000F1E7206881693046884304D00020B8427B
:103CD000D0D00020F8BD0120F9E70000F7B500259D
:103CE00020270646044640363EE02046029A0199C7
:103CF000FFF71CFF002800D0012520688169C94317
:103D0000890619D4002D17D181698169C943C90673
:103D100010D41021C161042060642068C76120684C
:103D20004168164A1140416077700020B0703070D1
:103D3000012501E000206064FDF71CFF01460298A8
:103D4000091A0198814201D800280DD1002D0BD10C
:103D500020688069C043400706D5606C38436064C2
:103D6000777000203070012520688069C0434007CB
:103D700001D5002DB9D02846FEBD000000E800FEA8
:103D800070B516460D4604461EE0324629462046CA
:103D9000FFF7CCFE002801D0012070BDFDF7EAFE40
:103DA000801BA84201D8002D0ED120688069C04335
:103DB000800609D5616C2020014361644034607045
:103DC0000020A0702070E7E720688069C04380066B
:103DD000DBD4002070BD70B516460D46044620E0C9
:103DE000324629462046FFF7A1FE002801D00120D7
:103DF00070BD681C15D0FDF7BDFE801BA84201D820
:103E0000002D0ED120688069C043800709D5616C00
:103E1000202001436164403460700020A070207055
:103E2000E5E720688069C0438007D9D4002070BDD1
:103E300004481021017041708170C170017141719D
:103E4000704700002400002010B58407A40F094823
:103E5000E10701D0002200E001228021FDF783FE6E
:103E600005490648A20701D5002200E00122FDF71E
:103E70007AFE10BD00040050000800000000005051
:103E80008068C007C00F70478068C007C00F7047C8
:103E900080684007C00F7047C0680005800F01D0E0
:103EA0000020704701207047026807239B059A4352
:103EB0000A430260704710B5436904242140072477
:103EC0008C40A3438A401343436110BD3EB5002498
:103ED0003148009401942F490294016084600905DF
:103EE000C46041600425491245610161047644764D
:103EF00001228276446205218462C161014620313B
:103F00000A7307224263046382630C77C464FDF77B
:103F100097F9002801D0FCF71EFF2048009001947B
:103F2000694602941C48FCF7CDFF002801D0FCF73D
:103F300012FF1B480090694601951748FCF7C2FF25
:103F4000002801D0FCF707FF1648009008200190D8
:103F500069461148FCF7B6FF002801D0FCF7FBFECC
:103F6000114800900C20019069460B48FCF7AAFF0D
:103F7000002801D0FCF7EFFE0C48009010200190C3
:103F800069460548FCF79EFF002801D0FCF7E3FED8
:103F90003EBD000000240140C80000204000001881
:103FA00000020024001000B0002000B4004000B85F
:103FB00008B51048816B012211438163806B10406A
:103FC0000022009011460920FEF758F80920FEF75C
:103FD00049F8002211460A20FEF750F80A20FEF7A1
:103FE00041F8002211460B20FEF748F80B20FEF79F
:103FF00039F808BD00100240F0B587B014216846BA
:10400000FCF795F82F48416B022631434163416B21
:1040100031400591426B04210A434263426B0A40DE
:104020000592416B012421434163406B41212040B3
:1040300005900520002249010007FDF794FD0022AC
:1040400085212148FDF78FFD1020009000250520D7
:104050006946019502940007FDF7CAFC202701AAD2
:10406000009770C2052069460007FDF7C1FC0520D6
:104070006A4671C269461448FDF7BAFCE002694617
:1040800031C10520694600070395FDF7B1FC2120E9
:10409000000401906946009702940B48FDF7A8FCC4
:1040A0008020694631C1694607480395FDF7A0FCA9
:1040B000002201210720FDF7E1FF0720FDF7D2FFD5
:1040C00007B0F0BD001002400004005010B51348C6
:1040D0001149016012494160002181600161416123
:1040E00081610122C161C2600162FDF793FD002878
:1040F00001D0FCF730FE00210848FDF741FD002803
:1041000001D0FCF728FE00210448FDF75EFD0028E1
:1041100001D0FCF720FE10BD0054004088010020B3
:10412000B57DB11030B587B014216846FBF7FFFFAD
:104130000024234805942149846001607F21C160E7
:1041400044618461FF21C4610161012189074462E6
:104150000162FEF723FC002801D0FCF7FCFD0F21D3
:1041600068460170172545708470019403940022FD
:10417000694613480494FEF7EBFC002801D0FCF7D5
:10418000EAFD0221684601750721417585751821F0
:10419000C175002205A90A48FEF78CFC002801D051
:1041A000FCF7D9FD042200210548FEF783FB002817
:1041B00001D0FCF7D0FD07B030BD00000028004062
:1041C000DC01002010B511480F490160FF210531C5
:1041D000416007221202C260002181600222026156
:1041E0000122426152028261016208224162C2617F
:1041F000816207220163C2624163FEF72BFD002842
:1042000001D0FCF7A8FD10BD0030014008020020DD
:1042100010B50A48084901600022094982604160DE
:1042200063210261C16080218161FEF72DFE0028BB
:1042300001D0FCF790FD10BD00200040600300207D
:10424000FF18000010B50B48094901600A49416098
:104250000021816013220161C2604161802181617E
:10426000FEF712FE002801D0FCF775FD10BD00001E
:1042700000440140AC030020FF18000010B588B0D6
:104280000024059406941649164803940494009457
:104290000194029412C004608460C46012490461F5
:1042A00041600838FEF7F0FD002801D0FCF753FD0F
:1042B00001200003039003A90A48FEF7D5FE002859
:1042C00001D0FCF748FD009401946946054802942A
:1042D000FEF7A8FD002801D0FCF73DFD08B010BD99
:1042E000002C0140C8020020FFFF000010B588B07C
:1042F00000240094019417480294039404940594B4
:104300001349069401603F218460416004611249B1
:104310008461C160FEF7B8FD002801D0FCF71BFDE9
:1043200001200003009069460A48FEF79DFE002820
:1043300001D0FCF710FD049404A906480694FEF78A
:1043400071FD002801D0FCF706FD08B010BD00008B
:104350000004004014030020FFFF000010B51848BF
:1043600016490160E1214902416000218160C1607C
:1043700001618161C16101620C224162426181621D
:10438000FFF728FA002801D0FCF7E5FC00210C48D3
:10439000FFF733F8002801D0FCF7DDFC00210848C6
:1043A000FFF707F8002801D0FCF7D5FC0448FEF71A
:1043B0008EFF002801D0FCF7CEFC10BD0038014074
:1043C000F803002010B50D480B490160E1214902B6
:1043D000416000218160C16001618161C161016250
:1043E0000C22416242618162FFF7F4F9002801D09A
:1043F000FCF7B1FC10BD0000004400408C0400201C
:10440000FEE770470022014602E00A39C9B2521C99
:104410000A29FAD21007000E08437047F8B504467F
:1044200000680025C168490618D4C168802211437C
:10443000C160FDF79FFB27460646203708E0FDF7E1
:1044400099FB811B7D20C000814201D903257D722B
:104450002068C068400601D4032DF0D12846F8BD7D
:10446000F8B5124C0026E16880229143E160A16911
:10447000054689062035002907DBFEF7C9FB002821
:1044800011D00320687206460DE0A1692027B943C8
:10449000A161FEF7BDFB002802D00320687206462A
:1044A000A0693843A0613046F8BD000000280040F4
:1044B00010B50248FEF761FA10BD0000DC010020D3
:1044C0007FB504461DA0006803900020461E0D46DF
:1044D00001900290012303AA882100961848FDF755
:1044E0007FFC0A20FDF726FA062301AA8921144839
:1044F0000096FDF7EDFB6846808840BAFCF7A0F80F
:104500001049FBF778FE104E3146FBF7B1FE0F491C
:10451000FBF769FE28606846017AC27908021043F9
:1045200040BAFCF78DF80A49FBF765FE3146FBF708
:104530009FFE0849FBF757FE20607FBDFD0000008D
:104540008801002000002F4300FF7F470000384211
:104550000000FA420000C040F8B5284E202534463D
:104560002434002806D0012825D0022801D0FFF7E6
:104570005FFCF8BD2249F069FBF73DFEFCF78AF8C5
:1045800087B21F49306AFBF736FEFCF783F886B224
:1045900064213846FBF7AEFDE07008460A21FBF7C0
:1045A000A9FD284320710A213846FBF7A3FD61715C
:1045B0006421304613E0708964210746FBF79AFDB9
:1045C0002843E0700A213846FBF794FD0F460A2184
:1045D000FBF790FD21716771B08964210646FBF7F6
:1045E00089FD207008460A21FBF784FD284360708E
:1045F0000A213046FBF77EFDA170F8BD00000020C7
:104600000000204110B50A4C002204212046FDF78D
:10461000AAFA00BF012204212046FDF7A4FA00BF38
:1046200000BF002204212046FDF79DFA10BD0000C6
:1046300000040050F8B500240527124E05463F0738
:10464000002201213046FDF78EFA280601D501220D
:1046500000E0002220213846FDF785FA6806050EA5
:10466000012211463046FDF77EFA00BF641CE4B219
:10467000082CE5D300BF00BF002201213046FDF722
:1046800072FAF8BD00040050704710B5FDF784FCC5
:1046900010BD000030B591B034216846FBF747FDEE
:1046A000002401200D940E940F9440021094FDF705
:1046B000E9FCFDF735FD1848C16918229143C16135
:1046C00006200090012002900002039040200590F7
:1046D00008200A90022580030B900795000304949C
:1046E0000C90089509946846FDF7F8FE002801D063
:1046F00072B6FEE707200D900F9402210E951094DC
:104700000DA8FDF7DDFD002801D072B6FEE7FDF72C
:1047100083FE11B030BD0000401002407047000021
:1047200010B50248FEF712FD10BD00006003002026
:1047300010B50248FEF70AFD10BD0000AC030020D2
:1047400010B50248FEF702FD10BD00001403002062
:1047500070B502681B4B1C4E984201D0B04203D189
:104760007024A2434C682243184C194D984208D03B
:10477000B04206D0174EB04203D0A04201D0A842AA
:1047800004D103263602B243CE6832438026B243B8
:104790004E69324302608A68C2620A688262984245
:1047A00003D0A04201D0A84201D1096901630121CF
:1047B00041610169C90703D00169490849000161E4
:1047C00070BD0000002C0140000400400044014086
:1047D000004801400020004030B58468FF252D02CC
:1047E0001B021343AC430B432343836030BD0000E3
:1047F0008268034B1A400A4307210A4382607047CC
:104800008FFFCFFF30B5036A046A64086400046256
:104810008469F025AC43120122430A24A3430B43CD
:104820008261036230BD30B5046A036A1025AB4370
:10483000036283690F252D031203AB431A43A023A0
:104840009C43090121438261016230BDF8B50446F1
:10485000416E4034002915D00068816880680901E4
:104860004D0F0A4E400F3746315C083F385CC000A0
:10487000FBF740FC6085785D715DC000FBF73AFC9A
:104880002085F8BD01206085FAE700007C5B000808
:1048900010B5018D090707D501684A680123DB03BC
:1048A0009A43836B1A434A60018DC90707D0016898
:1048B0004A6801235B049A43C36A1A434A60018D24
:1048C000890707D501684A6801231B049A43036BD3
:1048D0001A434A60018D490707D501684A680123D8
:1048E0009B049A43436B1A434A60018DC90607D55E
:1048F0000268916801231B039943C36B19439160BC
:10490000018D890607D501688A6801235B039A43F4
:10491000036C1A438A60018D490612D503685A68F0
:1049200001210905446C8A4322435A60426C8A4241
:1049300007D10268516803235B059943836C1943CF
:104940005160018D090607D501684A680123DB041F
:10495000C06C9A4302434A6010BD0000FEB5054694
:104960000026803504462E61FDF704F90190206889
:10497000006820270007002817DA25480090002249
:1049800039042046019B00F059FA00280DD0EFF3BE
:104990001080012181F3108821680A6880239A43DE
:1049A0000A6080F31088AF6028E020680068400744
:1049B00027D5174800900121002289052046019B38
:1049C00000F03CFA00281CD0EFF31080012181F3A5
:1049D000108821680A68FF2321339A430A6080F314
:1049E0001088EFF31080012181F3108821688A6814
:1049F000520852008A6080F31088EF602E71032005
:104A0000FEBDAF60EF60E66626672E710020FEBD3A
:104A1000FFFFFF0110B5806A002201464031CA83C2
:104A2000CA82FEF75EFD10BDF8B5846A204680306C
:104A300081680546C668206880680027000600284F
:104A400006DA212904D156200753204600F0CEF87B
:104A500020688068400606D5222E04D15E200753C8
:104A6000204600F091F8286910210843286120466B
:104A7000FEF737FDF8BD70B501460968806A096820
:104A800000228906002938DB5E210A52EFF31081EB
:104A9000012383F3108803681C68FF250135AC43AC
:104AA0001C6081F31088EFF31081012383F31088D9
:104AB00003689C68640864009C6081F31088EFF3CD
:104AC0001081012383F3108803689C684025AC4360
:104AD0009C6081F3108820238C210B50C16E01292A
:104AE0000BD1EFF31081012383F3108803681C6856
:104AF0001025AC431C6081F310880267C16E012948
:104B000002D0FEF73FFF70BD5C21095AFEF734FC6E
:104B100070BD10B5806A01210167C16E012902D004
:104B2000FEF731FF10BD5C21095A4908FEF724FC4D
:104B300010BD10B501460968806A096889061BD452
:104B4000002256210A52EFF31081012282F31088CD
:104B5000026893688024A343936081F31088EFF385
:104B60001081012282F310880068026840231A43F2
:104B7000026081F3108810BDFEF7C4FF10BD10B5B0
:104B8000806AFEF7C0FF10BD10B5EFF3108101225F
:104B900082F3108802681368FF242134A343136052
:104BA00081F31088EFF31081012282F310880268EC
:104BB00093680D4C2340936081F31088C16E0129E6
:104BC0000BD1EFF31081012282F310880268136881
:104BD0001024A343136081F3108820228C210A50F3
:104BE0000021C166416710BDFEFFFFEF10B5EFF376
:104BF0001081012282F3108802681368C024A34345
:104C0000136081F31088EFF31081012282F3108882
:104C1000026893680124E405A343936081F310883C
:104C200020218030816010BDF8B50446806821697C
:104C3000E26908436169002511432268084311684D
:104C40004B4B194001431160206841680322120355
:104C50009143E26811434160A169206A08432168D9
:104C60008A68444B1A4002438A602068C16A626ABB
:104C7000090909011143C1623F492068884211D1E5
:104C80003E4840698007800F0FD0012806D00228D7
:104C900002D003280BD103E0022109E0042107E040
:104CA000082105E03649884201D1002100E01021A9
:104CB0000120E369C003334A334E344F834227D186
:104CC000002906D0022907D0042907D008293FD19E
:104CD00008E0FDF7A9FB03E0104603E0FDF7B8FB91
:104CE00000283AD0616A4900715AFBF703FA6168FB
:104CF00040004A088018FBF7FDF901461039B94217
:104D000026D82249491C01400007400F084322E0F1
:104D1000002906D0022907D0042907D0082917D175
:104D200008E0FDF781FB03E0104603E0FDF790FB90
:104D3000002812D0616A4900715AFBF7DBF96168FB
:104D40004A088018FBF7D6F901461039B94201D953
:104D5000012502E080B22168C86020460121403070
:104D60004185018500206067A0672846F8BD0000E6
:104D7000F369FFCFFFF4FF110038014040100240FB
:104D8000004400400024F4005C5B0008EFFF0000DA
:104D900070B5044681654030828300202546803509
:104DA00028612221E9602968002919D0204BCB62B3
:104DB0002B68204919632B681F49596329681346DA
:104DC0008863A66D2168324624312868FCF76CFDA3
:104DD000002805D0102028612020E860012070BD47
:104DE000206900280CD0EFF31080012181F3108896
:104DF00021680A68FF2301331A430A6080F3108890
:104E0000EFF31080012181F31088226893680B432F
:104E1000936080F31088EFF3108081F3108821688D
:104E20008A6840231A438A6080F31088002070BD8E
:104E3000774A0008134B0008294A0008FFB581B0E3
:104E400005460E46044680350A9F32E0781C30D075
:104E5000FCF790FE0499401AB84218D8002F16D0DB
:104E600020680168490724D5802E22D0402E20D00A
:104E7000C169C94309070CD4082606622046FFF71A
:104E800083FE2E6100202871012005B0F0BD0320B3
:104E9000FBE7C069C04300050BD401202168C002B4
:104EA00008622046FFF770FE20202861002028714C
:104EB000EDE72068C1693046884305D0002103989A
:104EC0008142C3D00020E0E70121F8E710B5024895
:104ED000FEF708FB10BD0000F803002010B50248E3
:104EE000FEF700FB10BD00008C0400200FB410B5CD
:104EF00003A9044B044A029800F00CF910BC08BC4A
:104F000004B0184715590008700000202021020C39
:104F100001D010211046020A01D0104608390209BA
:104F200001D01046091F820801D01046891E420890
:104F300001D0881E7047081A704700008307FF22BF
:104F4000DB0E9A408907090E9940002808DB830888
:104F500009489B001B181868904308431860704765
:104F60000007000F0838830804489B001B18D86905
:104F700090430843D861704700E400E000ED00E092
:104F800002E008C8121F08C1002AFAD17047704712
:104F9000002001E001C1121F002AFBD17047000070
:104FA000F0B51FB486B00998089A030D002102439A
:104FB00014D05148514A181850430514119801282B
:104FC00010981AD0281A401C00264D4F4D490096C3
:104FD00001910490002812DA444211E01198012452
:104FE00049A3012801D11098C1430698119A846001
:104FF0000360C26041600BB0F0BD4042E4E704468C
:10500000210500203F4A001C51410391029012E00B
:10501000E00707D032463B4601990098FBF71AFAA1
:105020000191009032463B4610461946FBF712FAB2
:1050300006460F466410002CEAD10498039B002812
:10504000029A0999089806DAFBF704FA019B009A7C
:10505000FBF700FA05E0FBF765FA019B009AFBF706
:1050600061FA04460E460022284BFBF799FC03D850
:105070000020C043014607E00022254B2046314670
:10508000FBF734F9FBF76CFC102409E0002C0ADB79
:105090000A220023FBF760FB079B30321A55641E7F
:1050A00002460A43F2D11122641C079B121B1C19F1
:1050B000119B012B03D0012308430ED10AE00843C2
:1050C00004D0112010900020119077E71098151A45
:1050D0006D1E0BE01098824202DD00236D1C03E080
:1050E000824201DA00236D1E002BEED00698119942
:1050F0008260C16030C07EE701FCFFFF104D000000
:10510000000014400000F03F300000000000F043B9
:105110000000E03FFFB597B0064600251BE22528BA
:1051200076D100242746F749049400E00443761C16
:1051300032780120203A90400842F7D130782A286E
:105140000ED00222307801463039092916D8049948
:105150000A235943303940181443761C0490F1E770
:10516000189802C804911890002904DA012040031D
:1051700004434842049002200443761C30782E28D1
:1051800014D1042004437078761C2A2809D1189879
:10519000761C80C8189009E00A214F43303FC71998
:1051A000761C3078014630390929F5D930786C28D9
:1051B00010D006DC4C281AD068280ED06A2817D1E7
:1051C00004E0742813D07A2812D110E001204005A1
:1051D00004430CE00121090501E0032109050C430A
:1051E0007178814203D1012000052418761C761CB9
:1051F000307866280BD013DC58287DD009DC0028D5
:105200007BD04528F6D04628F4D047281AD1A9E10A
:1052100018E0632835D0642870D0652812D1A1E148
:1052200070286CD008DC6728F1D069287DD06E2802
:105230000DD06F2806D1BCE073282ED0752873D00E
:10524000782859D01A9A199990476D1C82E160020A
:10525000400F022809D003280DD0042818980168AF
:105260000DD00D60001D189074E11898EA170168C0
:105270000D604A60F6E7189801680D80F2E70D703E
:10528000F0E718986A4601781172001D1890002006
:10529000507202A80090012005E0189802C81890EA
:1052A00000200091C04361070ED5002101E0019963
:1052B000491C0191B94213DA8142F8DB019A009945
:1052C000895C0029F3D10BE0002101E00199491C20
:1052D00001918142FADB019A0099895C0029F5D19C
:1052E000019904981A9B471A21463846199A00F0EA
:1052F00099FA4019019903E051E030E115E050E0DE
:10530000451807E0009800990078491C00911A9A06
:10531000199990470198401E0190401CF2D12146F6
:1053200038461A9B199A12E137E00A2000210090B2
:1053300001916002410F022907D0189A01CA189200
:10534000C2179446032908D00AE01898C01DC10866
:10535000C90005C91891944607E000B2C2179446E7
:10536000042902D140B2C1178C46002261469445FF
:1053700006DA0A460021404291418C462D2102E086
:10538000210504D52B216A461173012103E0E107B1
:1053900001D02021F7E7029156E00A200AE0102010
:1053A00008E0102000900021042004430191082708
:1053B00003E008200021019100906002410F0229C2
:1053C00007D0189A01CA189200229446032908D0DF
:1053D00008E01898C01DC108C90005C91891944675
:1053E00003E080B2042900D1C0B20021029121075C
:1053F0002AD531780D91702906D0009A1021019B91
:105400004A401A4305D00EE040216A46117301213B
:1054100008E06146014306D030216A4611730D99B8
:10542000517302210291009A0821019B4A401A43BC
:105430000AD16146014301D1610705D530216A4691
:10544000117301217F1E02913178582904D02EA1B9
:105450000E910DA90D910DE030A1F9E76146019B78
:10546000009AFBF779F90E9B8C469B5C0D9A521EB5
:105470000D92137061460143F0D10D9805A9081AE9
:1054800020300190600703D501200004844300E030
:1054900001270198874201DD381A00E000200199B8
:1054A00000904118029809180498401A0490E003EB
:1054B00006D421461A9B199A049800F0B3F94519AD
:1054C000002706E003A81A9AC05D199990476D1C41
:1054D0007F1C02988742F5DBE0030CD521461A9B1E
:1054E000199A049800F09EF9451904E01A9A3020A0
:1054F000199990476D1C0099481E00900029F5DC11
:105500001FE00000092801003031323334353637CE
:1055100038396162636465660000000030313233FF
:10552000343536373839414243444546000000009F
:105530000D980D990078491C0D911A9A1999904768
:105540006D1C0199481E01900029F1DC4DE100F02D
:1055500059F94519761C3078002800D0DFE5284637
:105560001BB0F0BD600700D406271898C01DC10805
:10557000C90048680A680831C30FDB071891190091
:1055800001D09CA108E0210501D59BA104E0E10721
:1055900001D09AA100E09AA14300109130785B08F5
:1055A00065280CD006DC452809D046281DD04728A0
:1055B00041D141E0662818D067283CD13CE0002169
:1055C000112F01DB112000E0781C0191009008A947
:1055D00011A8FFF7E5FC139905910021119A159286
:1055E0007F1C12980197009150E00120C0070390A2
:1055F0000120019008A9009711A8FFF7D1FC139A88
:10560000149905920022119B009212981593059A05
:105610000192002901D0104602E0791C4018019047
:10562000381A01D5019804E04042401E0090781CD1
:105630000190C01B029043E0012F00DA01270021F6
:10564000112F01DD112000E038460191009008A9DA
:1056500011A8FFF7A5FC13990591119A0021129842
:1056600015920091019721070CD40599B94201DBED
:10567000019900E00191012904DD159A491E515C50
:10568000302906D0B84201DA011D05DA0121029164
:1056900015E00199491EEDE7002805DC0099411845
:1056A00000910199091A03E0019A411C914200DD21
:1056B00001910099401A401C02900120C0070390FC
:1056C000200706D402990198814202DB0020C043E2
:1056D000029000206946C87707AF0121039803377D
:1056E000C907884224D0022011902B2012900398E1
:1056F00000280CDA404203902D20129007E00A2186
:105700000398FAF7F7FC30317F1E03903970119936
:10571000481E11900029F2DC03980028EFD1791E71
:10572000129808703078202108404530BF1E38702C
:1057300006A8C01BC01D039010980078002800D058
:105740000120019941180298C017091803980918F7
:105750000498401A401E0490E00306D421461A9B88
:10576000199A049800F05EF84519109800780028FE
:1057700003D01A9A199990476D1CE00324D521464D
:105780001A9B199A049800F04DF845191CE00098EE
:10579000002807DB00990598884203DD1598405CD6
:1057A000199901E0199930201A9A904700986D1CB8
:1057B000401C00900298401E0290002804D11A9AC2
:1057C0002E20199990476D1C0199481E01900029BF
:1057D000DDDC05E038781A9A7F1C199990476D1C1A
:1057E0000399481E03900029F4DC21461A9B199A5C
:1057F0000498ACE62D0000002B0000002000000003
:1058000000000000F8B5044600251E46174688042F
:1058100004D405E039462020B0476D1C641EF9D53C
:105820002846F8BDFFB50446002581B01E46C803D2
:1058300001D5302700E02027880404D505E038464C
:105840000399B0476D1C641EF9D5284605B0F0BD1C
:10585000F8B51C4DE888FAF70FFF02460B461A48C8
:105860001A49FAF75FFEFAF75BFF194F19493861D9
:105870000090A8880024184E4018FAF7E9FE324636
:10588000164BFAF7E7FD0022154BFAF72FFDFAF752
:1058900047FF40004008FAF72FFFFAF741FF06469E
:1058A0006000285AFAF7CCFE0099FAF7A4FCA2008F
:1058B0000449641C0C31E4B28850052CF0D37E619D
:1058C000F8BD00007400002085EB51B81E85F33F41
:1058D00000000020EEFBFFFF9A9999999999D93F12
:1058E00000003E4070B5094D281A84B20848FDF703
:1058F00041FB074801684C62006801E0416A8CB2D4
:10590000AC42FBD30248FDF781FB70BDFAFF0000FB
:105910001403002038B50446684604700448022386
:10592000012269468069FEF72FF8204638BD000045
:10593000000000208AB0FCF737FBFEF7ABFEFEF755
:105940005BFBFEF735FBFEF799FCFEF707FDFEF764
:10595000E9FBFEF7CBFCFEF7B9FAFEF7B7FBFEF763
:1059600057FCFEF76FFCFEF72DFDFEF72BFC002029
:10597000FEF76AFA6948FDF765FD6948FDF71EFB09
:105980006848FDF71BFB6848FDF718FB6748FDF703
:1059900015FB0020664A10211154401CC0B2062895
:1059A000FAD36448FBF7DAF90920FCF74BFB052230
:1059B00061496048FBF7BAFD6420FBF7BBFF5E4915
:1059C000322220315D48FDF7A0FC5D480068016887
:1059D000042291430160564C0025243C6079012843
:1059E0006DD16571E079401CC0B2E071462805D3E5
:1059F0004F49E5710839081DFEF762FDA079401C8A
:105A0000C0B2A071322805D3A571FFF721FF20781D
:105A1000FEF7A2FD207A401CC0B220725A2844D35F
:105A2000257280214748FCF796F8434E46490C36CC
:105A300077683846FAF7DFFBFAF75EFE0122FAF7DD
:105A4000E9FDFAF73BFE60813846FAF755FE012280
:105A500001910090FAF7DEFD3C4A3D4BFAF762FDFA
:105A600000223C4BFAF7F6FCFAF728FE80B2A08140
:105A700007902A48A0613069FAF73EFE06900F466B
:105A8000F068FAF739FE059104906069FAF734FE80
:105A9000039102903068FAF72FFE024607980890AB
:105AA0000B4607972C48FFF721FA607A401CC0B2DA
:105AB00060726E2803D36572E078401CE0706078F5
:105AC00000280DD0C10704D04008400060700120BC
:105AD00020706078410703D5FB2108406070257075
