:020000040800F2
:10000000881000208D010008514D00089348000819
:1000100000000000000000000000000000000000E0
:10002000000000000000000000000000455700082C
:100030000000000000000000E9560008BD5700085D
:100040009F010008000000009F0100089F010008B8
:100050009F0100089F0100089F010008312500084A
:1000600000000000812400089F0100089F01000893
:100070009F0100089F01000831580008000000009F
:100080004158000800000000000000009F01000827
:10009000000000009F0100089F0100089F01000868
:1000A0009F0100089F0100089F0100089F010008B0
:1000B0009F01000800000000000000000000000098
:1000C00000F002F800F053F80CA030C808382418EB
:1000D0002D18A246671EAB4654465D46AC4201D180
:1000E00000F045F87E460F3E0FCCB646012633425F
:1000F00000D0FB1AA246AB4633431847A07200005B
:10010000C0720000103A02D378C878C1FAD85207FA
:1001100001D330C830C101D504680C6070470000BD
:100120000023002400250026103A01D378C1FBD813
:10013000520700D330C100D50B60704710B5662957
:1001400002D106F0F5FB10BD642902D100F050F891
:1001500010BD002010BD1FB501F018FC04000020E8
:10016000002106F08BFAE0601FBD10B510BD01F054
:10017000E9FF1146FFF7EFFF06F0C2F902F001F8C0
:1001800003B4FFF7F2FF03BC02F078F8074880479A
:1001900007480047FEE7FEE7FEE7FEE7FEE7FEE76B
:1001A00004480549054A064B704700002D580008D1
:1001B000C1000008880A002088100020880C002058
:1001C000880C00200FB41CB5084B06AA7B44694676
:1001D0000090059801F035FB04460020694601F0C7
:1001E00043FB20461CBC08BC04B01847991600000D
:1001F000F7B5002575291068009914A611D0C046DE
:10020000C046002802DA404211A608E000990968B9
:100210008A0701D50FA602E0490704D50EA60125DD
:1002200001E0C046C046009F0024243704E001F0EE
:1002300020FB30313955641C0028F8D12B4632465A
:100240002146009801F093F8FEBD00000000000078
:100250002D0000002B00000020000000F3B5044634
:10026000002081B020622046E1688847002872D0D3
:10027000252802D06268A168ABE0594F00267F4470
:100280002046E16888472028054608DB312D06D244
:10029000781920380078002801D00643F0E7B0072D
:1002A00001D5042086430020E0610746A0612A2D85
:1002B0000AD0284605F073FF002827D0B80000199F
:1002C000303D0090856119E00298BA00121902C809
:1002D000916102902046E1688847012F054617D1B9
:1002E000E06900281FDA202086431CE000980A21DC
:1002F0008069484300994019303888612046E16898
:100300008847054605F04BFF0028EFD1012F0AD0A2
:100310002E2D08D12046E168884705462020064357
:100320007F1C022FC3DBA069002803DA4042A061D2
:1003300001200643F00701D0102086436C2D0BD01E
:10034000682D09D04C2D3CD06A2D38D0742D38D072
:100350007A2D36D016E040E0E1682F4620468847E7
:10036000B842054609D16C2F29D001208002E168EE
:10037000064320468847054604E06C2F1DD0FF2029
:1003800001300643002D28D028464138192803D8CB
:100390000120C00206432035204626602946029AE5
:1003A0001646FFF7CBFE002810D001280BD0F61D13
:1003B000F008C0000830029055E74020E1E78020B7
:1003C000D5E70020D3E7361D02964CE76268284641
:1003D000A1689047206A401C44E7206AFEBD0000E7
:1003E000706F000030B5441C03E00178401C002908
:1003F0000DD08107F9D10B4BDD0104C8D11A91430F
:100400002940FAD0001B0A0603D0C01E30BD001BD5
:1004100030BD0A0401D0801E30BD0902FCD0401E50
:1004200030BD00000101010101E004C0091F0429E1
:10043000FBD28B0701D50280801CC90700D0027057
:10044000704700290BD0C30702D00270401C491E20
:10045000022904D3830702D50280801C891EE3E7AA
:100460000022EEE70022DFE7002203098B422CD3B3
:10047000030A8B4211D300239C464EE003460B43F4
:100480003CD4002243088B4231D303098B421CD356
:10049000030A8B4201D394463FE0C3098B4201D348
:1004A000CB01C01A524183098B4201D38B01C01A80
:1004B000524143098B4201D34B01C01A52410309F7
:1004C0008B4201D30B01C01A5241C3088B4201D3A6
:1004D000CB00C01A524183088B4201D38B00C01A53
:1004E000524143088B4201D34B00C01A5241411A7A
:1004F00000D201465241104670475DE0CA0F00D05D
:100500004942031000D34042534000229C46030955
:100510008B422DD3030A8B4212D3FC22890112BADB
:10052000030A8B420CD3890192118B4208D38901B3
:1005300092118B4204D389013AD0921100E08909CB
:10054000C3098B4201D3CB01C01A524183098B42AC
:1005500001D38B01C01A524143098B4201D34B0195
:10056000C01A524103098B4201D30B01C01A5241F8
:10057000C3088B4201D3CB00C01A524183088B427F
:1005800001D38B00C01A5241D9D243088B4201D308
:100590004B00C01A5241411A00D2014663465241F3
:1005A0005B10104601D34042002B00D549427047F2
:1005B00063465B1000D3404201B50020C046C046F0
:1005C00002BD7047704770470246C80FC00781439D
:1005D0004B0030B54B405B009B0D20D01923DB0650
:1005E000C91801231B05994220DB0324A407042515
:1005F0001346AB400BD3002B04D1EB0613409B00FA
:10060000E34204D401246407002312195941FF2353
:100610001B0599420BD2C9000143500F09E0CB02E0
:1006200004D501430803024305D0054830BDFF212E
:10063000C905084330BD084607210905884330BD78
:100640000000C07FF0B50C46871A9C410D46861A03
:100650009D4103D2C01BA141D21963410D0D1F0D55
:10066000C94EEC1BAE435CD07F057F0D0026002FEA
:1006700051D02D05AC46A943DD020123ED0A1B052F
:100680001D4320231B1B24D41746E7403818714113
:100690002F46E740CC199D402818314661410C0D8A
:1006A00027D161449A4013D50023401C5941520080
:1006B0000ED14008400001224B005205D34207D31F
:1006C00005204007C14201D5B04900E0B04930469D
:1006D000F0BD6B00002A00D001229A181F23203C95
:1006E0001B1B01D5002302E0E540281871410C0DC9
:1006F000D7D0012424050919C407CD0740084908AB
:10070000E40F28436144002CD5D00024401C6141F3
:100710009A40D0D1CDE76A05520DD9D1C90FC9078A
:10072000D5E79C4D4E00002801D0012400E00024B4
:1007300034195F00002A01D0012600E00026BE190E
:10074000954FAC420CD8AE420AD8B44206D001252F
:100750006D05EC42BCD010461946F0BD9942FCD064
:1007600000203946F0BDF0B51FB40C460F46811A83
:100770009F412546861A9D4106D20125ED076F400F
:10078000401ABC4152187B41210D1E0D8D1BAC46F9
:100790007D4D8D437ED075056D0D7CD00D05AE462B
:1007A000AC431B031B0B794D52429D4120236646EF
:1007B0009B1B14D31746F74038180026009074414D
:1007C00060462F460741E41900989D40281866416D
:1007D00016D4714671189A4025D5012320E093184C
:1007E0002A466A415200002B00D0521C1E23203E94
:1007F0009B1B002B61DD3541EE1728186641E8D5BB
:10080000001876415B1C9A4000D3401C4B05F3183E
:100810001524E34010D3002B52D071467118D30F2A
:10082000C01802D3491C05B0F0BD0123DB079A4272
:10083000F9D140084000F6E701225205B21801D173
:10084000002853D00123CC0ADB029943891E002AD9
:1008500008D1020C03D0020C0004103902E0024659
:10086000002020390023550B05D112020823550B17
:1008700001D152010D23550C01D112011B1DD50CC4
:1008800001D192009B1C150D01D152005B1C20254B
:10089000EE1A01E02CE022E00546F54015439840B1
:1008A000CA1AE10769181305C918002ABBDA032020
:1008B00040070818C10FC9070FE071466118B2E779
:1008C000F10740080843711071444A000CD001231D
:1008D0005B059A42A7D2C90FC9070020A3E74905C3
:1008E000490D26D1002001E00028F4D100219AE72B
:1008F000284D6600002801D0012100E00021711878
:100900005F00002A01D0012600E00026BE19224F18
:10091000A94210D8AE420ED8B14208D001256D05CB
:10092000E94206D01946A802414010467BE79C42A6
:1009300001D0214677E70020394674E710B50C4610
:100940005C4005D50124E4076340FFF70CFF10BDB0
:10095000FFF778FE10BD30B40C465C4004D501248E
:10096000E407634030BC6DE630BCFCE670B50124A2
:10097000E40761400D465D4002D4FFF763FE70BDA1
:100980006340FFF7F0FE70BDFF0700000000F0FFBE
:100990000000F07F0000E0FF0000F87FF0B5F94DA7
:1009A0000C091E092C402E402F468BB0A7437DD04A
:1009B000B543FCD0002E7AD0002CFCD00D465D4013
:1009C000ED0F2543AC1BFF25AD0464190894C50247
:1009D000440DC9022143500DDC0204430120C0072D
:1009E00001430443D2020191200C110C00958C4666
:1009F000010423468B430A9161460904E24D8A4370
:100A00000991010A7D4449198039097805464D4309
:100A100001266D18F605751B6943C90C640B891C0A
:100A20004C436418B5012C1B250C2E04B4434C43D5
:100A30004D43210C691889090591009DE90701D0F2
:100A40000121C90704912C4601996708CD072F435E
:100A50004C08059DE10B4D432D0C29466646754318
:100A600002950D4645432E46029D7D1BB4410095DF
:100A70000D465D4301942C0C2F040D465543AE46A4
:100A80002D0C3D43029503947546049C2D04641B74
:100A9000049406D2029C039D641C002675410395B4
:100AA000029401AC70CC009F7D1B01E03EE162E14D
:100AB000B44109040095079101940599A408614384
:100AC000090C0C464443650BE7040C466646744328
:100AD000A646640B3C43039502947446049DE404CB
:100AE0002C1B049406D2029C039D641C00267541B5
:100AF0000395029401AC70CC009F7D1BB44101941E
:100B00000C465C430095650FE7000C465443A6462F
:100B1000640F3C43039502947446049DE4002C1B2F
:100B2000049406D2029C039D641C00267541039523
:100B3000029401AC70CC009F7D1BB441AE09AF069E
:100B4000049DC900AD092F43049DA406AD0604957C
:100B5000079D344369180791059DE10B4D432D0C0A
:100B600029466646754302950D4645432E46029D2D
:100B70007D1BB44100950D465D4301942C0C2F0460
:100B80000D465543AE462D0C3D43029503947546E4
:100B9000049C2D04641B049406D2029C039D641CD7
:100BA000002675410395029401AC70CC009F7D1B1B
:100BB000B44101948C050694079C890A611800953C
:100BC0000791019C0599A4086143090C0D46454312
:100BD000680BEF040D46644665436C0B3C43049F71
:100BE000ED047D1BAC4602D20025641C6841009ECA
:100BF000019D371B85410846584301950C46460F19
:100C0000C5005443600F28436546E4002C1B02D204
:100C10000025401C6E41019D3F1AB5412846BD0983
:100C2000800628438446A009BF064E020699A40602
:100C300076180743079D002068410A9907901943D9
:100C40000020099B00906046FF1913434041E20FCA
:100C500064003A43A4460446D71A8C41A04203D903
:100C60000120009020463A46C70F94184041624642
:100C7000D20F2243644664000494009CBE46640084
:100C8000D71AA446044602978C417746002F01D11B
:100C9000A04204D96046401C8446029A2046C40FF4
:100CA000A64694184041049A0546D20F2243644652
:100CB0006400D31A8D417146002901D1A84202D99E
:100CC00028461A46641C10430122002800D016430F
:100CD00061020020079B891904465C410223002C15
:100CE00002DB491813466441089DCE0A2D145D1994
:100CF0004B056705E10A2C050D1908993E43C90704
:100D00006940002B08D0934006D30022761C514145
:100D1000002B01D1760876001C4A002D43DB1542DA
:100D200041D0AA433FD030460BB0F0BD06180D4667
:100D30004D41174C7642AC411AD395181C465C4184
:100D4000134A6D42A24113D3012252054C00D442F2
:100D50000AD15C00D4420BD04B4002D59202114321
:100D6000E2E749004908DFE75940C90FC90718E021
:100D700000200849D8E7054801420DD10342F7D0C9
:100D8000F2E700000000FF07FB6700000000F07FB3
:100D90000000E0FF0000F87F114859400143C012F5
:100DA00041400020C0E70123089A9B069A4205DCD7
:100DB000032252078918C90FC907B5E70522520750
:100DC0008918074A1143D2125140ADE770B5154654
:100DD0001C4602460B4628462146FFF7DFFD70BD44
:100DE000FFFFFF7F1F22030C02D10F22000402D05D
:100DF000030E03D004E00020014670470002083AC9
:100E0000030F01D10001121F830F01D18000921E38
:100E1000002801DB4000521E120551184205C01285
:100E2000411810467047C10FC90700D04042012247
:100E300092071143D6E701218907D3E7F0B58B4C20
:100E40000F09254689B0BD437BD01D092646AE4318
:100E5000FAD00E465E402740F60F3E43254071D043
:100E600024012142FBD0FF24AD19A4042D1B0395BE
:100E700001252D05DB02DB0AC9022B43C90A2943E0
:100E80001E010901040F130F050121431701880BEF
:100E9000820391432D098C46A90B1E438A03954377
:100EA000B30B9A0396433F09BA0B9403A7430296E8
:100EB0002E467E430497B6464E19D7190C46019626
:100EC000544305977E43371B7646BF1B3601B64613
:100ED000BE0B361900967646BC043719009C01D328
:100EE000641C00946400002F01D001263443029E4C
:100EF000049F754366467E430496760034196E005F
:100F000034190094029C019E1C196643751BAE4661
:100F1000069465464519059C05956C4359437546ED
:100F20000891691A0191049E01465143A41B049142
:100F3000611A009C0791E10605D061090122114365
:100F400002E072E06EE06109089D00272C0A2D0680
:100F50006918049D7C412A0A2D066918019D624189
:100F6000AC0DAD026D185441079A910D92025519BE
:100F70006141029A644658435443069B059A5A437A
:100F8000121A131B9A0E9B015B187A41010B000584
:100F9000C3185141220A200644195A419A4200D2EC
:100FA000491C01204002814203D315230226F64347
:100FB00002E014230326F6432020C51AA940174651
:100FC000AF40DA400A4320460399D8400914731809
:100FD00019055118039A3843D2075140AC4009D043
:100FE0000122944006D30022401C5141002C01D123
:100FF000400840001E4A934212D3012203989206F1
:10100000904207DB0520400709181A480143C01227
:10101000414004E0032040070818C10FC907002021
:1010200009B0F0BD0020F107FAE705180C464C4165
:1010300011486D42A04115D394181A465A410E48E2
:10104000644290410ED301204A004005824209D3F8
:101050005A00824206D35940C90F084AC9070020E6
:101060001143DDE700200649DAE700000000FF0732
:10107000FE070000FFFFFF7F0000E0FF0000F07FA1
:101080000000F87F0121C9050123411842001B0619
:10109000D3185B0E0AD0C1100722D2068918400768
:1010A0005242D14201D5520089187047090208D531
:1010B0000146002A03D0C10FC9070020704710461F
:1010C0007047420202D000200249704707210905FB
:1010D0000143F4E70000F87FF0B5FF252D04C609B1
:1010E000C209FF2704462E400137CB093E43484042
:1010F0002A402B400746002A6BD0002B69D0AA4219
:1011000067D0AB4265D0002800DA32460125ED05F4
:1011100029432C4309022002090AD21A4B0C7F24CE
:10112000E31A434C000A7C44E35C7D242404121936
:1011300014145B00A218884201D3521C00E0400046
:1011400049420C465C4324115C43DB016415E318FF
:10115000040A5C43C502200D0C4644436419250A69
:101160005D432303EC0C0D46654300030019EB18A7
:101170004C42A34201D35B18401CD4052018002B1D
:1011800007D05B00C91804D3401C002901D14008D6
:1011900040003F2189048A4209D3002A08DC110655
:1011A000090F04D0032149074018C00FC007F0BD44
:1011B00001224100120689187F2252069142F6D27E
:1011C00005214907C84201D59010F0BDFF20C00598
:1011D000F0BD002F00DA32461648AA4207D2AB42D1
:1011E00005D21902090E17D0F80FC007F0BDFF2570
:1011F00063002D06AB42F9D84900A942F6D8AB42AC
:1012000001D1A942F2D0A94201D1002101E061003F
:101210004908D0050843F0BD1102090EFBD0FF209C
:101220000243D005F0BD0A460146104654E70000CF
:10123000596100000000C07F10B501469E240002E5
:10124000CA15A307002A02D01843002A04DBA21AF9
:10125000002A0CDDD04010BD1206120E01D1400054
:101260004008A21A03D4D04040420028F3DDFF22F8
:1012700048001206904201D9002010BDC817C04393
:10128000584010BD0102C21504D00123DB071943E9
:10129000002A0ADB9E239A1A02D40846D0407047DF
:1012A000FF2241001206914201D900207047C01769
:1012B000C04370471F22030C02D10F2200041CD030
:1012C000030E01D10002083A030F01D10001121FE1
:1012D000830F01D18000921E002801DB4000521EC6
:1012E000D2055118021251181922904004D3491CFA
:1012F000002801D14908490008467047C10FC907B5
:1013000000D04042012292071143D3E7012189070F
:10131000D0E7000010B5FF22C30D134009D05A409A
:1013200007D0914205DA5C42A14202DDC9050818E6
:1013300010BDC40FE407002B06D0002A06D00029F8
:1013400002DBFF20C0050443204610BD4102FCD053
:10135000004810BD0000C07F10B500F01BFB006806
:1013600010BD10B5044600F015FB046010BDFFB5BC
:1013700004460D4681B0243000902168880604D5CB
:101380001022E0699143216000E00120A84201DDC4
:10139000471B00E000270498A1697A191018081A61
:1013A000A0612078C00602D42046C046C046002670
:1013B00008E003986268A168805D9047206A401C3D
:1013C000761C206204988642F3DB2078C0060AD59A
:1013D0002046C046C04606E06268A16830209047BB
:1013E000206A401C206238467F1E0028F4DC07E09B
:1013F00000986268A168405D9047206A401C2062A6
:1014000028466D1E0028F3DC2046C046C0462078E2
:10141000000602D5022005B0F0BD0120FBE7000068
:101420007047FFB50C461E468FB003CA089009915D
:101430004F007D0D00D16D1E002108460020C046E2
:101440000321099A89050840002A03DA82008018DE
:1014500040080840800D01280A9002DD0020C043AA
:101460000A90089807430DD0F048F14928184843DE
:101470000714189800281DD07542291E1DDD0A98F2
:1014800042421BE01898012802D00020302104E0DD
:101490000020F24305E02154401CB042FBDB304603
:1014A0000022189B002121540F998B600A6048602C
:1014B00013B0F0BDBD1B6D1CDFE70A9A002900DAEE
:1014C00069420BA800F0ECFA0BAB07CB03AB07C3E8
:1014D0000899099800F050FB6B4607C30146D548B0
:1014E0000918002D00910BDDD24903980A9A494250
:1014F0004018002303A90390684600F0ADFD08E002
:1015000003990A9A0023081803A90390684600F07B
:101510004DFD6B4607C30004000C03D00020C04300
:10152000410800E01046189A002A03D000220092D9
:1015300015461EE0751E05D400F030FA30326255B3
:101540006D1EF9D501220843079602D000227F1CA8
:1015500004E02078302801D100227F1E002A06975F
:1015600087D01EE0112D07DA00F018FA30326255EC
:101570006D1C02460A43F5D1084303D000980028A9
:1015800019D00EE00021681E05E0235C625C635404
:101590002254401E491C8142F7DBA81B401E0795C0
:1015A0000690079A18990020A0540F98079B069A56
:1015B00081600CC07CE711260020189059E7D21DED
:1015C000F0B50D460446D10893B0C90003C90C908C
:1015D0000D9104F03FFD02460D98C00F01D02D2063
:1015E00007E02068810701D52B2002E04007C00FEB
:1015F0004001032A0F9001D0072A05DB0346294644
:10160000204600F009FA0EE12078800601D5E7694E
:1016100000E006272846652D04D0662814D0672DE3
:1016200069D12DE00020112F009001DB112300E093
:101630007B1C0CAA03A910A8FFF7F3FE1199002642
:1016400010987D1C0E9142E001203B460CAAC00779
:101650000B900120009003A910A8FFF7E2FE119D56
:1016600012981099002600280E9501D1781C0D18AB
:10167000781B02D446427D1C761EE81B00903AE09F
:10168000012F00DA01270020112F009001DD112326
:1016900000E03B460CAA03A910A8FFF7C2FE11996F
:1016A0003D46109800260E91217809070BD40E991B
:1016B000A94200DA0D4603A9012D04DD4A19203A9A
:1016C000D27F302A06D0B84201DA011D04DA0121A6
:1016D00000910FE06D1EEFE7002802DC86192D1A3D
:1016E00003E0411CA94200DD0D46801B401C009018
:1016F0000120C0070B902078000705D40098A8426D
:1017000002DB0020C043009069460020C8720B989D
:10171000012102AF0337C907884225D0022010906B
:101720002B2011900B9800280BDA40420B902D20B3
:10173000119006E00B9800F09CF830317F1E0B9062
:1017400039701099481E00291090F3DC0B9800287E
:10175000F0D111987F1E38702088000501D54520F2
:1017600000E065207F1E387001A8C01BC01D0B90D3
:101770000F98002800D0012041190098C0170918BF
:101780000B980818A169081A401EA0612078C006AD
:1017900002D42046C046C0460F98002805D0626893
:1017A000A1689047206A401C20622078C00625D599
:1017B0002046C046C04621E0002E07DB0E98B0420E
:1017C00004DD03A86268805DA16802E06268A16828
:1017D00030209047206A761C401C20620098401EF2
:1017E000002800900AD100F0D1F8C0686268016852
:1017F000405CA1689047206A401C206228466D1E0C
:101800000028D9DC07E062683878A1687F1C90471F
:10181000206A401C20620B99481E00290B90F2DCC4
:101820002046C046C046032042E6000001FCFFFF00
:10183000104D0000E1DFFFFF01694A1C02610878DA
:10184000704700B58FB002910021059105490193C1
:1018500079440391114604906846FEF7FFFC0FB0EF
:1018600000BD0000E5FFFFFF0A681070521C0A600F
:10187000704701468008081A02091018020A101859
:10188000020C1018C008820012185200891A01E0D8
:10189000401C0A390A29FBD270470000F8B5224CD7
:1018A0004E00069DA6420AD8A64201D1002806D1C4
:1018B0005E00A64203D8A6420AD1002A08D00D2411
:1018C000240425422CD02946002000F015FCF8BD48
:1018D0000C461C430CD4994202D0EFF30080F8BDB3
:1018E000904202D0EFF30080F8BDEFF30080F8BD26
:1018F00009242407E5008B4206D0EFF30080A043C3
:10190000591A06D2284304E0101A05D3EFF30080D9
:10191000A04380F30088F8BDEFF30080A043F1E717
:10192000009500F001FCF8BD0000E0FF70B5054631
:101930004800440D124B0020002C0AD0634008D010
:101940009A4206DA6642B24203DD1205401951415D
:1019500070BD002C08D0002B09D0C90FC907002A80
:10196000F6DB084A114370BDC90FC90770BD284690
:101970000A03104302D00020034970BD284670BD01
:10198000FF0700000000F07F0000F87F004870476C
:10199000440A002000487047240A00200B4670B516
:1019A000024689078008084319469D08141AA94170
:1019B00025090807054308092C194841250A01068D
:1019C0000D43010A2C194141200C0D0428430D0C34
:1019D00000194D41002140194D41C00869070843D5
:1019E000E908840F8D002543840024184D412419F3
:1019F0006D41121BAB4107E00925ED432C11521933
:101A000063410024401C61411C460A250026551BE9
:101A1000B441F1D270BD0000F8B51F460446012361
:101A20000068DB02032601461840072A05DB002870
:101A300001D017A506E017A504E0002801D016A5DF
:101A400000E016A5102081432160A069C01E002F70
:101A5000A06101D0401EA0612046C046C046002FB4
:101A600009D038466268A1689047206A401C20620D
:101A7000C01C206206E0206AFAE762682878A16844
:101A80006D1C9047761EF8D22046C046C046F8BD71
:101A90004E414E006E616E00494E4600696E660012
:101AA000F7B516468AB0334878446C4603467C3313
:101AB000C06F5A689B680DC42E487844763003ACDA
:101AC0000DC80DC43720C001081837211B30FEF7A0
:101AD000D5FC05460C46803D1B3C02D564420120E6
:101AE00000E000200027099010E0E0070CD00C2057
:101AF00020497843794432464C39411868460123DD
:101B000000F054FA6B4607C364107F1C002CECD124
:101B1000184F7F442E3F16E0E80712D02001C0196D
:101B20000EC80691089307920068F04201D19819F7
:101B300008903246012306A903A800F037FA03AB48
:101B400007C36D10641C002DE6D10998002806D04B
:101B500032466946012303A800F07EFA05E001231E
:101B60003246694603A800F021FA0A9B07C30DB06C
:101B7000F0BD00005C580000034640000A4610B566
:101B8000400D0BD00121C9070F24A40200191C032A
:101B900064082143540D2143D20207E000210120B3
:101BA000F2E7D40F490021435200401E0029F8DA21
:101BB000DB0FDB07184310BDFFB50D46144685B09B
:101BC0004868516804F02EFA00910190A868A16855
:101BD00004F028FA02910390A868616804F022FAE0
:101BE000029A12188242029201D2012000E00020E3
:101BF000019A0B18D2180028019202D08A4202D909
:101C000003E08A4201D2012000E000200099081878
:101C100000906868A16804F005FA029A12188242DE
:101C2000029201D2012000E00020019A0B18D21884
:101C30000028019202D08A4202D903E08A4201D2EE
:101C4000012000E000200099081800902868216811
:101C500040004900400849084018FA49471814E074
:101C600001994000C90F0843009001980299400073
:101C7000C90F08430190029803994000C90F084317
:101C80000290039840007F1E039000980028E7DA36
:101C90000898002801D0EC4E00E00026B74201DA97
:101CA000012000E00020002804902AD0F71BF8064D
:101CB000C00E15D0029B2021091A039A8B401A43AB
:101CC0000392029A019BC2408B401A430292019AEE
:101CD000009BC2408B4000991A430192C140009181
:101CE0007B110DD06F460320C11A03D5002182005D
:101CF000B95003E08A008100BA587A50401EF3D5EB
:101D0000374603980299002800D001200143089823
:101D10000291002808460CD0002800D0012001992B
:101D2000019A490508430121D20AC902D20201924F
:101D300000E001210E9B0122D207012B02D0002BD3
:101D400003D013E0002807D120E0904204D890424D
:101D50000CD1019B0B4209D0019B5918019105D16F
:101D60000099491C009101D17F1C009200280DD0E0
:101D7000102108460020C0460498002806D00F987D
:101D8000002803D0082108460020C04628682168A2
:101D9000019B009A4840C10F0598C90739430EC0FE
:101DA00009B0F0BDFFB587B0099A08980899536843
:101DB00092684068896896460022039317469446C5
:101DC000089A12685300099A5B0812685200520878
:101DD0009A1A9E4BD4180A9A002A01D0352200E0A4
:101DE000402206920022012315460492DB07059348
:101DF00024E0002D05D175460346039E4D1BB341DB
:101E000009D375466646039B491B049D9841059B73
:101E10007519AC465F4163463B4308D0059B049E61
:101E2000DD0776082E435B080496059301E0521EF9
:101E3000641EC50FED0749184041521C069B9A428B
:101E4000D7DB002D04D17546039A6B1A824101D26B
:101E500003200CE0039A0B466B404240134303D02F
:101E6000014303D0012002E0022000E0002061468F
:101E700001910021009702910A99002905D061463D
:101E800040020143704B019102E080070023029061
:101E90009C4201DA012000E0002007003AD01A1B22
:101EA000D006C00E15D0029D2021019C091AC54004
:101EB0008C402543029C8C4000D001242543019C8A
:101EC0000295009DC4408D4000992C430194C1406F
:101ED000009154111DD06D460221002202290CD11F
:101EE0000320001B07E0002804DB8600AE59002E0B
:101EF00000D00122401C0328F5DB081B02D5880016
:101F00002A5004E08000285810438A00A850491E37
:101F1000E3D51C460A98002802980CD0002800D06F
:101F200001200199019A490508430121D20AC902F9
:101F3000D202019200E00121109B0122D207012B65
:101F400002D0002B03D013E0002807D11FE09042FD
:101F500004D890420CD1019B0B4209D0019B591827
:101F6000019105D10099491C009101D1641C009296
:101F700000280CD0102108460020C046002F06D0B3
:101F80001198002803D0082108460020C046089870
:101F90000999019A009B006809684840C10F079899
:101FA000C907214382600AC00BB0F0BD00B585B0FF
:101FB000019300920A460146002302A8FFF7FCFDA8
:101FC00002A807C805B000BDFFB50A461F4685B088
:101FD0000799019301230091014602A8FFF7ECFD48
:101FE00002990398049ECA0F4900D20700920F225B
:101FF000490892028C1A0021002800DB0C4645009B
:1020000013486D08844214D3079A002A04DA441E48
:102010000026104DF64302E004460D460E46102100
:1020200008460020C046002F03D0042108460020A7
:10203000C0462005E90A0843009908436905F20AE9
:102040001143ADE602C0FFFF013C0000FF3F00006E
:10205000FF070000FFFFFF7F00B585B001930092EE
:102060000A460146002302A8FFF79CFE02A807C803
:10207000A8E7FFB50A461F4685B0079901930123DB
:102080000091014602A8FFF78DFE02990398049E75
:10209000CA0F4900D20700920F22490892028C1AF7
:1020A0000021002800DB0C46450011486D088442E1
:1020B00014D3079A002A04DA441E00260D4DF64375
:1020C00002E004460D460E46102108460020C04698
:1020D000002F03D0042108460020C0462005E90A4D
:1020E0000843009908436905F20A114358E60000C5
:1020F000FF070000FFFFFF7FC80212D54803400F13
:10210000002804D0C803C043012188407047EFF382
:1021100000800001000903210907084380F30088BB
:10212000704700207047000010B500200249029A55
:1021300000F074F810BD00000000F87F0048704700
:10214000240A00207546FFF7F9FFAE4605006946F0
:102150005346C008C000854618B020B5FEF720F8E9
:1021600060BC00274908B6460026C0C5C0C5C0C52A
:10217000C0C5C0C5C0C5C0C5C0C5403D49008D462D
:10218000704710B50446C046C0462046FDF7F8FF2C
:1021900010BD0000024670B50A4392072AD11E4DB9
:1021A000EE0104C808C9541B9443344017D0D0B280
:1021B000D9B2401A2106014310D190B299B2401A07
:1021C000210401430AD110021902000A090A401A27
:1021D0002102014302D1100E190E401A70BD9A421D
:1021E000DFD010BA19BA884201D9012070BD002091
:1021F000C04370BD02780B78401C491C002A09D0EE
:102200009A4207D102780B78401C491C002A01D061
:102210009A42EFD0D01A70BD0101010110B50C46F1
:102220001107090F092904D00A290AD008290CD15D
:1022300004E011460820FFF75FFF06E0510606D5CF
:1022400001E0510601D50120C007214610BDD1068D
:1022500007D501010909CC084907000E000604430F
:1022600009E0410F20024907000A0143200E000641
:102270001D22D14101430846E7E70000014918202B
:10228000ABBEFEE726000200704710B5846AA16D60
:10229000502211420DD1A06D012149020843A065D1
:1022A000206802F04DFB00281BD0A07E002807D03C
:1022B00017E0A16DC90624D5204600F0A9FB10BD8A
:1022C0002068016809070CD502F036FB01460120A1
:1022D00000290AD0A16D20221143A165E16D0143BF
:1022E000E165204600F092FB10BD21684A680C238E
:1022F0009A434A60A16DFF22013291430143A165D7
:10230000EFE7216D496B884710BD10B5806A816D7C
:10231000402211438165C16D04221143C16500F063
:1023200077FB10BD10B5806A00F071FB10BD000096
:10233000F8B50446006881688907CD0F02F0F4FA09
:1023400000282AD0002D28D120688168052211405C
:1023500010250126012914D18168114A1140891CD8
:10236000816021680320086000F086FF074610E0C6
:1023700000F082FFC01B02280BD920688068C007CC
:1023800007D0A06D2843A065E06D3043E0650120D3
:10239000F8BD20688068C007EAD10020F8BD0000C1
:1023A000E8FFFF7FF8B5044600200090206802F0A7
:1023B000BBFA002845D120688168234A10261140C5
:1023C000002930D18168D5432940491C81601F48CC
:1023D000006807218905084000020AD51D481C49EC
:1023E0000068FEF741F8401C00E0401E0090002805
:1023F000FBD1607E012824D000F03EFF07461BE0A1
:1024000002F092FA002804D1206881682940491C12
:10241000816000F031FFC01B02280DD920680068E0
:10242000C043C00708D0A06D3043A065E06D012116
:102430000843E0650846F8BD20680168C943C9073C
:10244000DED10020F8BD0000170000800827014001
:10245000400D03008C00002010B5FEF757FF044626
:10246000054904F0F1F901462046FEF735FE03491F
:1024700004F092F910BD000000F07F4500401C46BA
:1024800010B5024800F07CFC10BD00008004002064
:1024900010B50446006C094980088000401860644B
:1024A000207814210838FDF7DFFF04498031A1644A
:1024B000C106C90E01208840E06410BD000802403A
:1024C0000179084B8906890E8A00D2180265054AEF
:1024D0004432491E42658A07920F0121914081656D
:1024E00070470000FC080240F0B5846CC56C656064
:1024F000046D002C02D0446D856D65600B4C6568E1
:10250000066C1C273E400127B7403D4365600468C8
:1025100063608368102B036803D099600068C26011
:10252000F0BD9A600068C160F0BD0000000002408C
:1025300010B5202000F0C8FD10BD72B6FEE7000007
:1025400003494A6901231B04184302434A61704747
:1025500000200240044A5069044BC900184001435E
:1025600003480143516170470020024007E0FFFF2C
:102570000200010030B505494C6901252C434C612E
:102580000260BFF36F8F436030BD00000020024047
:1025900030B50B4C002362690125AD042A4362610A
:1025A000EFF3108272B620C95B1C20C0DBB2402B57
:1025B000F9D32069C003FCD482F3108830BD000039
:1025C00000200240F8B5044600F056FE01270646FA
:1025D0003F04124D06E0601C04D000F04DFE801B4D
:1025E000A04213D228693842F5D128690C49084025
:1025F0000C4929610CD00C4948600120F8BD601CD1
:1026000006D000F039FE801BA04201D30320F8BDA4
:1026100028694003F3D40020F8BD000000200240E8
:10262000FA830000FB83000008060020F7B586B09F
:102630001646002500F032FD022000901F20029077
:102640000120039004A9684600F0A0FC00280ED1E8
:1026500000240C4F0FE00798A10043580698E100B2
:1026600009183A46012000F0E9FC002801D00125B4
:1026700003E0641CA4B2B442EDD300F0CBFC2846C6
:1026800009B0F0BDAA55AA55F0B50446002089B09E
:102690002546064640350290287D01280ED00127A8
:1026A0002F752046FFF744FE0590206802F040F9A0
:1026B0000028A06D05D01021084388E0022009B051
:1026C000F0BDFF210131884302210843A065206845
:1026D000C168414A11400491C168D2431140C160B0
:1026E00000212068826817239A43DB071A4382601F
:1026F0003A4A20680DE0029B5B1C0293934208D388
:10270000A06D0221884310210843A0650020287590
:102710004DE08368DB0FEED18030406B491C4006F2
:10272000400E86190829DCD33046FDF79DFE014690
:10273000206882682A4B1A40521C82602068026915
:10274000920F920713D1274A12680F26B60432401F
:102750000726B604B2420AD3920C3E46D21E9640D9
:102760007208019600E0521E0192002AFBD18030CF
:10277000426BD209D2010A43426320688168194042
:10278000891C816000F078FD064612E000F074FDBF
:10279000801B02280DD9206802F0CAF8002808D052
:1027A000A06D10210843A065E06D3843E06501206D
:1027B00085E7206802F0BCF80028E7D12068C168EE
:1027C000049A1143C160A06D80088000401CA06580
:1027D00000202875059872E70380000000F20200CF
:1027E000E8FFFF7F08270140F8B5002706460446AA
:1027F00040360097307D0D4601280FD001203075FE
:10280000206802F099F800280AD0A06D2021084322
:10281000A0650127002030753846F8BD0220F8BDBC
:10282000686802287ED001222169D207914202D035
:10283000121D914206D120682968826A4903490B1A
:102840000A436EE0C206D20E0F20216E90408143F3
:102850002868430302D0C3074BD102E04000C00EFA
:1028600048E0830701D5012044E0430701D5022059
:1028700040E0030701D503203CE0C30601D5042056
:1028800038E0830601D5052034E0430601D5062053
:1028900030E0030601D507202CE0C30501D5082050
:1028A00028E0830501D5092024E0430501D50A204D
:1028B00020E0030501D50B201CE0C30401D50C204A
:1028C00018E0830401D50D2014E0430401D50E2047
:1028D00010E0030401D50F200CE0C30301D5102044
:1028E00008E0830301D5112004E0400301D5122044
:1028F00000E000209040014321666968E269880891
:10290000401C904210D820682B68826A9C46C906F9
:10291000C90E0F238B409A4363469B001B0F8B40CD
:102920001A4300E03BE082622168AB6828684A698C
:102930000002824318404001400902434A6128686E
:10294000002800DB66E72B4A116807239B05194026
:10295000294B984214D10B0212D4C00201431046F5
:1029600001F0F6FF264825490068FDF77DFD0C21A2
:10297000401C484300E0401E00900028FBD149E77E
:10298000204B984203D1CB0101D4800205E01E4BBD
:102990009842D7D14802D5D45802014325E00121FD
:1029A0002069C907884202D0091D884206D12068E3
:1029B0002968826A4903490B8A4382622868002891
:1029C000C0DA0C4A116807239B0519400A4B98424C
:1029D00001D1C00208E00B4B984201D1800203E014
:1029E000094B9842AED140028143104601F0B0FF3E
:1029F00010E7000008270140001000B0400D030060
:102A00008C000020004000B8002000B470477047E0
:102A100070470000FEB50027044601973E46029726
:102A20000097002805D02546A06D2035002802D04B
:102A300007E00120FEBD204600F0FCF8E6655420CA
:102A4000065520688168C900C90F12D18168724A91
:102A50001140012212071143816071486F490068DB
:102A6000FDF702FD4000801C00E0401E00900028A1
:102A7000FBD120688168C900C90F08D1A16D10225F
:102A80001143A165E16D01221143E165174601F093
:102A900053FFA16DC90601D4002804D0A06D1021F8
:102AA0000843A065B4E0A06DFF21013188430221F5
:102AB0000843A065206801F037FF00286DD1217E12
:102AC000A06889030843617ECA03A17E4B031A43B1
:102AD0001043226B002A01D0012212031043E26846
:102AE00010432269002A02DA5200520801E0012252
:102AF000520510432A7B52001043019A10432A7852
:102B0000012A09D1002922D0A16D20221143A165FB
:102B1000E16D01221143E165616A002906D0FF23BE
:102B2000C1331940A26A0143104608432168CA68AC
:102B30003C4B1A400243CA606168029A890F8907B8
:102B4000E06C0A4310432A7F012A04D00CE00121E3
:102B500009040843E0E7636C226C491C1A43A36C28
:102B60000B4311461943084321680A692E4B1A404A
:102B700002430A6103216068890788420DD0590722
:102B800088420AD04900884207D0284A91680F231A
:102B90009B0499431840014391600021626B2068B7
:102BA00001F0DDFE2249A26B206801F0D8FE0F2063
:102BB0002169C04300291CD00122520591420AD14B
:102BC00021688A6A227F9200121FD206D20E90409C
:102BD000226E1043886220684069616B4007400F95
:102BE00088420BD1E665A06D80088000401CA0657E
:102BF0000FE021688A6A02438A62ECE7A06D022135
:102C0000884310210843A065E06D01210843E06579
:102C100001273846FEBD0000E8FFFF7F400D03009E
:102C20008C0000200102DEFF02FCFF1F0027014094
:102C300004FFFF0770B586B0054614216846FDF70E
:102C400011FC1E492868884235D11D4802680121BF
:102C500009050A430260006808400590184840389A
:102C6000416B012211434163406B002610400590E7
:102C70003F2000900320019005206946029600073E
:102C800000F038FA104C0F482060A6600520E6607E
:102C9000606080202061400060618000A061202091
:102CA0002662E061204600F0C7F8002801D0FFF757
:102CB00044FC2C65A56206B070BD000000240140F4
:102CC000401002400800024080040020F7B504468E
:102CD000006801F031FE002845D125464035287DA9
:102CE000012840D001272F752068C1681F4EC907F1
:102CF0000CD101F019FE002804D020688168314011
:102D0000891C81602068C1683943C1602046FFF793
:102D100049FB002826D1A06D15490840FF2101314B
:102D20000843A0650020E065226D1249D162226D42
:102D300011491163226D1149516322681C211160F0
:102D40002875206841681022114341602168206D78
:102D50004031029B019A00F0C1F821688A68324034
:102D6000121D8A60FEBD0220FEBD0000E8FFFF7F4D
:102D7000FEF1FFFF8B220008252300080B2300082B
:102D8000F0B42C490C6802681368056C1C273D40A0
:102D90000426AE40264211D05E070FD513689B066D
:102DA00003D4146804239C4314604B68046C04220D
:102DB0003C40A24013434B60016B1CE00227AF4034
:102DC000064627402036002F19D09F0717D51368D5
:102DD0009B0605D413680A24A34313600122727171
:102DE0004B68046C1C2214400222A24013434B6027
:102DF00000213171C16A00291AD0F0BC08470827A8
:102E0000AF40274214D01B0712D513680E24A343EA
:102E100013604B68046C1C22144001221546A54027
:102E20002B434B60C263727100213171416BE2E749
:102E3000F0BC70470000024070B504003FD0254848
:102E4000256814212818FDF70FFB8000206402205C
:102E500026462036707128681F4908402860E168BE
:102E6000A06862690843216911430843A1690843C6
:102E7000E1690843216A084321680A681043086031
:102E80002046FFF705FB0121A06889030025884241
:102E900000D165602079616C8006800E0860A06CAE
:102EA000E16C41606068401E03280AD82046FFF7A5
:102EB00007FB206D0560606DA16D416004E001209D
:102EC00070BD25656565A565E56301207071357187
:102ED000002070BDF8FFFDBF0F80FFFFF8B504466E
:102EE0008C4620300179002501290BD0012606717E
:102EF00041790027012907D08021E163077101256D
:102F00002846F8BD0220F8BD02214171E763206820
:102F1000016849084900016061462046FFF7E4FA6C
:102F2000206B00282068016801D00E2205E00422F1
:102F300091430160206801680A2211430160606CBE
:102F40000168CA03074902D502680A430260206D7E
:102F5000002802D002680A430260206801683143F9
:102F60000160CDE70001000070B5044600F084F96F
:102F70000546601C02D004480078241800F07CF953
:102F8000401BA042FAD370BD80000020F8B51F4E50
:102F9000044630780F4601280AD001203070002006
:102FA00070607D20C000FFF70DFB002802D029E0F3
:102FB0000220F8BD042161602268042A03D0491F61
:102FC0003960A56814E00846FFF7BAFA7D20C00012
:102FD000FFF7F8FA16E029466068FFF7BBFA7D2094
:102FE000C000FFF7EFFA002801D03D6005E06D1C3E
:102FF000E268A1688918A942EDD805494A69022307
:103000009A434A6100213170F8BD00000806002093
:103010000020024010B57D200124C000FFF7D2FA45
:10302000054841698204114341614069002800DA82
:103030000024204610BD000000200240F0B51FB45F
:10304000144C06462078154601280AD0012020702D
:1030500000277D20C0006760FFF7B4FA002803D086
:1030600010E0022005B0F0BD012E0DD029460198D8
:10307000FFF78EFA7D20C000FFF7A4FA06494A69DF
:10308000B2434A612770EDE72A46039B0198FFF798
:1030900071FAEFE7080600200020024006490020F0
:1030A0004A69002A07DA054A8A60054A8A6049693E
:1030B000002900DA01207047002002402301674503
:1030C000AB89EFCD7047000070B5084D0446E86845
:1030D000204203D0EC60204600F00AF82869204224
:1030E00003D02C612046FFF7EDFF70BD00180240B1
:1030F00070470000F0B5002303249AE02A4601251A
:103100009D402A407ED00E79B607B60F012E01D021
:10311000022E16D186682746B4465E00B646B740F2
:103120006646BE43B446CF687646B74066463743E8
:1031300087604668AE430D79ED06ED0F9D4035433F
:1031400045600D79ED43AD0708D0C5685F002646A0
:10315000BE40B5438E68BE402E43C6600D79AD07B4
:10316000AD0F022D0ED1DD08AD002D18AC462D6A35
:103170005E07F60E0F27B740BD430F69B7402F43D8
:1031800065462F6205685F002646BE40B5430E794E
:10319000B607B60FBE402E4306604D68AD03AD0FB7
:1031A00046D09E08264DB6007519AC462D6E9E077A
:1031B000F60E0F27B740BD4305273F07B84201D1A0
:1031C00000270FE01F4FB84201D101270AE01E4F30
:1031D000B84201D1022705E01C4FB84201D10327B4
:1031E00000E00527B7402F43154D664637662D682A
:1031F0004E689543F60200D51543114F3D607D683A
:10320000954300E014E04E68B60200D515437D609A
:103210000B4D80356E684F689643BF0300D516434B
:103220006E602E684F689643FF0300D516432E60EC
:103230005B1C0A681546DA4000D05FE7F0BD00006D
:10324000001802400004005000080050000C00501C
:103250000069084000D001207047426913460B40C6
:103260001B0491430B4383617047002A01D08161A5
:103270007047816270470000014880687047000015
:1032800080000020024881680278891881607047B8
:103290008000002010B50848002401688215114301
:1032A0000160204600F00AF8002801D0012401E066
:1032B00000F028F8204610BD0020024070B50F4EE7
:1032C000002431780546002915D07D20C000FDF787
:1032D000CBF801460A480068FDF7C6F800F0F6FB97
:1032E000002808D1042D06D200222946401E00F0F5
:1032F0002BF8756000E00124204670BD800000209E
:103300008C00002008B509480168012211430160C2
:1033100000681040009005484038C26B01040A4321
:10332000C263C06B0840009008BD0000401002401E
:10333000002805DBC106C90E01208840014908604C
:103340007047000000E100E010B502F099FE10BDEA
:1033500010B50F4C216803225202914301432160B2
:10336000C11FFF39FA390ED10A48062100684843C7
:103370000949FDF779F8401C02E0002805D0401EFD
:1033800061694905F9D4002010BD032010BD00007B
:10339000007000408C00002040420F00F8B5044649
:1033A000006800264D4D800358D54C480027403812
:1033B000C06BC00009D449484038C26B01040A43BD
:1033C000C263C06B08400127009045480168821520
:1033D00011430160FFF750FF009005E0FFF74CFF3D
:1033E0000099401A022825D83D480068C005F5D547
:1033F000E8690321090208400FD0616981420CD0BD
:10340000E86903210902EA698843012109040A43A2
:10341000EA61EA698A43EA61E861C0070FD0FFF711
:103420002BFF009008E0FFF727FF0099411A2D4875
:10343000814201D9032609E0E8698007F3D5E869EC
:1034400003210902884361690843E861002F05D020
:1034500022484038C26B01048A43C2632078C00707
:1034600005D0686961688008800008436861207839
:10347000800606D56869032109038843A1680843CB
:1034800068612088400411D568692169800080083E
:1034900008436861012120698907884206D10F48E5
:1034A0004038C168012212041143C1602088000520
:1034B00012D56869032189038843E168084368617C
:1034C0000121E0688903884206D104484038C16878
:1034D000012212041143C1603046F8BD4010024081
:1034E0000070004088130000F8B50F46060043D076
:1034F0004D4D28684007400FB84213D22868C008D5
:10350000C00038432860FFF7B7FE044605E0FFF728
:10351000B3FE011B4548814261D828684007400F2F
:10352000B842F4D13068424C81070DD5400704D52C
:10353000A068072109030843A060A0680F210902C1
:103540008843B1680843A0603078C00732D0706803
:1035500001280AD002280BD000280FD0344940316E
:1035600003280ED0C969890704E02168890301E0B6
:1035700021688901002906DB0120F8BD2168490581
:10358000F8E7096AEFE7A168C908C9000143A1602B
:10359000FFF772FE009006E0FFF76EFE0099411AF9
:1035A000224881421BD8A068382108407168C900B0
:1035B0008842F1D128684007400FB84217D91A480D
:1035C0000168C908C90039430160FFF755FE054687
:1035D00007E0FFF751FE411B1448814201D9032047
:1035E000F8BD114800684007400FB842F1D130786B
:1035F000400706D5A068072109038843F1680843FE
:10360000A06000F031F8A1683C2289091140094A04
:10361000515CC906C90EC8400749086007480068E0
:10362000FFF74CFEF8BD00000020024088130000A8
:1036300000100240686900088C000020840000200F
:103640000648074900688968064A4904490F890005
:10365000515CC906C90EC840704700008C000020AC
:1036600000100240A869000810B5204CA068204A4C
:103670008006400F16D0A0688006410F5010012927
:103680000FD0A1688906490F022912D0A0688006D0
:10369000400F042823D0A0688006400F032821D0C3
:1036A000002010BD206801218004400F8140104699
:1036B00012E0E1688B07E1689B0F4906490F491C3E
:1036C000032B00D01046FCF7CFFEE1684904490EF9
:1036D0004843E168490F491CFCF7C6FE10BD0120B4
:1036E000C00310BD7D20000210BD0000001002408C
:1036F0000024F400F8B504007ED020783827C007F5
:10370000E94D002846D0A868E96838408907890F44
:10371000102802D008280BD001E0032908D001208E
:103720006268000482420AD129680143296015E0D9
:10373000286880032ED560680028DDD02AE00523A4
:1037400001211B0489049A422A6802D10A432A6093
:10375000EAE782432A602868884328606068002876
:103760000CD0FFF789FD064604E0FFF785FD801BBE
:10377000642873D828688003F7D50BE0FFF77CFD39
:10378000064604E0FFF778FD801B6428F1D828681E
:103790008003F7D42078800769D5A868E9683840A5
:1037A0008A070721920FC902102802D0002813D0DF
:1037B00001E0022A10D0E068002846D0286888433B
:1037C0002169084328602868FF21013108432860E7
:1037D000FFF752FD06462CE02A68520502D5E26842
:1037E000002A89D06A687F231B029A4363691B02FF
:1037F0001A436A60002800E08DE00ED128688843F3
:10380000216908432860286801218004400F814015
:10381000A648FCF729FEA6490860A6480068FFF7FD
:103820004DFD002877D122E0FFF726FD801B0228FE
:103830009FD828684005F7D568687F21090288432A
:10384000616909020843686011E02968FF200130BE
:1038500081432960FFF710FD064605E098E0FFF779
:103860000BFD801B022884D828684005F7D42078F7
:10387000914E00072ED5A8688006400F03280AD075
:10388000A0690028306A16D0012108433062FFF792
:10389000F3FC07460BE0306A80071BD5A0690028BF
:1038A0009FD017E0FFF7E8FCC01B022870D8306AF1
:1038B0008007F7D50EE0400840003062FFF7DCFCDF
:1038C000074604E0FFF7D8FCC01B022860D8306A26
:1038D0008007F7D4207840076CD5A86800278006B9
:1038E000400F042818D0E86BC00008D4E96B012011
:1038F00000070143E963E96B0140012700916F482C
:103900000168C90519D40168821511430160FFF7E8
:10391000B3FC00900DE083E0F06980074AD5A06811
:1039200000287DD046E0FFF7A7FC0099401A022846
:103930002ED862480068C005F5D5A168012910D0CD
:1039400004200529F16911D049084900F161F169A4
:103950008143F161A068002816D0FFF78DFC00902C
:103960000EE0F06901210843F061F3E70143F161E2
:10397000F7E7FFF781FC0099411A5148814265D869
:10398000F0698007F5D50EE0FFF776FC009007E0C0
:103990005CE0FFF771FC0099411A4948814255D813
:1039A000F0698007F5D4002F04D0E96B01200007EF
:1039B0008143E963E069002873D0A9688906490F4B
:1039C00002294DD0012636060228286805D0B043CA
:1039D0002860FFF751FC04463AE0B0432860FFF747
:1039E0004BFC074604E0FFF747FCC01B02282DD81C
:1039F00028688001F7D4616A206AA26A0843E16AF4
:103A0000120211430843216B0843E9682D4A114013
:103A10000843E860286830432860E868012100E036
:103A20003DE009070843E860FFF726FC044604E090
:103A3000FFF722FC001B022808D828688001F7D570
:103A40002FE0FFF719FC001B022801D90320F8BD65
:103A500028688001F5D4E8681B490840E86020E048
:103A60000128F4D0E868226A8107890F914216D1B3
:103A70007021626A0140914211D17F21A26A09023C
:103A80000140120291420AD11F214904E26A014019
:103A9000914204D1400F216B4007884201D00120A0
:103AA000F8BD0020F8BD0000001002400024F40022
:103AB0008C00002084000020401002400070004074
:103AC000881300008C80C11FFCFFFEEF094910B570
:103AD000401E884201D9012010BD074C60610321BE
:103AE000081F02F0CDFA0020A0610720206100200D
:103AF00010BD0000FFFFFF0000E000E070477047CE
:103B00007047000030B5034620331A7F012A49D0A0
:103B100001221A770325CA682D02AA438D6800681E
:103B20002A430125AD02AA434D6800242A430125FA
:103B3000ED02AA430D682A4301252D03AA430D690E
:103B40002A4301256D03AA434D692A430125AD038C
:103B5000AA430D6B2A430F252D04AA430D8B2D0478
:103B60002A4301252D07AA43CD692A430E4DA842B9
:103B700014D10F252D05AA430D8D2D052A430125AE
:103B80002D06AA430D6A2A4301256D06AA434D6AF4
:103B9000C96A2A4301256D07AA430A4342641C7778
:103BA000002030BD022030BD002C0140F0B503469E
:103BB00020331A7F012A24D001221A7702225A7751
:103BC00004686268A568104FBC4205D116460F22F2
:103BD000120596434A6832437026B2430E68164374
:103BE00066600068B84202D0084A904204D1802240
:103BF0008968954329438160012058770020187710
:103C0000F0BD0220F0BD0000002C01400004004087
:103C100070B5040005D025462035687F002802D005
:103C200006E0012070BD00202877204600F016F83D
:103C300002206877211D206801F00AFE012240342D
:103C40002272AA77EA7722706270A270E270227103
:103C50006271A271E2716A77002070BD08B50068D8
:103C6000134988420ED113480268C1140A43026006
:103C7000006800220840009011460E20FFF764FB08
:103C80000E2011E00C49884210D10A484038C26B1E
:103C900002210A43C263C06B002208400090114613
:103CA0001020FFF751FB1020FFF742FB08BD00007A
:103CB000002C014040100240000400400146203129
:103CC0004A7F012A01D00120704702224A77016809
:103CD000CB6801221343CB6000680949884202D0B7
:103CE0000849884207D18168074B1940062905D049
:103CF000DB1F994202D00168114301600020704728
:103D0000002C01400004004007000100F8B5054602
:103D100004462035287F0026012817D001272F7759
:103D200002206877226890682F4B1840FF231B02FF
:103D3000984390600868502838D00EDC20284FD077
:103D400006DC00284CD010281ED149E00220F8BD26
:103D5000302845D0402817D13AE060282ED070286E
:103D600018D001221203801A0FD090420CD1CB68D8
:103D70004A688968206801F0BCFD206881680122DA
:103D800092031143816000E001266F7700202877BD
:103D90003046F8BDCB684A688968206801F0A9FD03
:103DA00021688868772210438860EEE7CA6849680E
:103DB000206801F001FF5021206806E0CA684968C8
:103DC000206801F00AFF6021206801F09DFDDCE71A
:103DD000CA684968206801F0EFFE40212068F4E7D6
:103DE000226801461046F0E788FFCEFF70470000CA
:103DF000F8B504460068C66805690027A9070029C8
:103E000013DAB10711D5F91E01610120207720686E
:103E100080698007204602D0FFF7E8FF04E000F049
:103E2000C1F8204600F07AF92777680716D57007A1
:103E300014D504202168C04308610220207720683F
:103E400080698005800F204602D0FFF7CFFF04E095
:103E500000F0A8F8204600F061F92777280715D56B
:103E6000300713D508202168C0430861042020775B
:103E70002068C0698007204602D0FFF7B7FF04E042
:103E800000F090F8204600F049F92777E80616D5AB
:103E9000F00614D510202168C0430861082020775F
:103EA0002068C0698005800F204602D0FFF79EFF82
:103EB00004E000F077F8204600F030F92777E807B3
:103EC00008D0F00706D001202168C04308612046D1
:103ED00000F086F9280601D4A80407D5300605D5D8
:103EE0002168134808612046FFF709FEE80507D559
:103EF000300605D521680F4808612046FFF7FEFD12
:103F0000680608D5700606D540202168C0430861C0
:103F1000204600F07BFBA80608D5B00606D5202079
:103F20002168C04308612046FFF7EAFDF8BD0000A4
:103F30007FDFFFFFFFFEFFFF70B586B00446142150
:103F40006846FCF78FFA14492068884222D113484A
:103F5000416B012631434163416B31400591416B17
:103F6000022421434163406B002520400590E0017D
:103F7000694631C105206946000703950494FFF79F
:103F8000B9F80820694631C1694605480496039589
:103F9000FFF7B0F806B070BD002C014000100240E1
:103FA000000400507047F8B504460020264620362D
:103FB0000090307F0D4601280CD001200827307773
:103FC0000C2A48D008DC002A10D0042A1ED0082A67
:103FD00006D130E00220F8BD102A52D0142A60D059
:103FE00001200090002030770098F8BD206801F093
:103FF00095FC2068816939438161206881690422C8
:1040000091438161206881692A6911E0206801F08B
:10401000C3FC206881690122D202114381612068BA
:104020008169521091438161206881692A69120275
:1040300011438161D6E7206801F0ECFC2068C1697A
:104040003943C1612068C16904229143C16120687C
:10405000C1692A6912E0206801F01AFD2068C1696F
:104060000122D2021143C1612068C2690121890283
:104070008A43C2612068C1692A6912021143C16181
:10408000B0E7206801F038FD2068416D3943416593
:104090002068426D04218A4342652068416D2A6987
:1040A00012E0206801F056FD2068416D0122D20225
:1040B000114341652068426D012189028A434265AE
:1040C0002068416D2A691202114341658AE770B583
:1040D000040005D025462035687F002802D006E080
:1040E000012070BD00202877204600F016F802203D
:1040F0006877211D206801F0ABFB01224034227259
:10410000AA77EA7722706270A270E27022716271FF
:10411000A271E2716A77002070BD7047704700009D
:1041200030B505460223203000290ED0042911D0D5
:104130002C464034082912D00C2915D0102918D04B
:10414000E278012A1AD0012030BD827F012AFAD1FB
:10415000837714E0C27F012AF5D1C3770FE022787C
:10416000012AF0D123700AE06278012AEBD1637052
:1041700005E0A278012AE6D1A37000E0E3700122F5
:10418000286801F0A9FB114A2868904205D010491F
:10419000884202D00F49884204D1416C0123DB03DD
:1041A0001943416428680121904202D00A4A904292
:1041B00007D18268094B1A40062A05D0DB1F9A42B4
:1041C00002D002680A430260002030BD002C01408A
:1041D0000044014000480140000400400700010085
:1041E000FEB50068F549884271D12021F448FFF7F7
:1041F0002FF80025F34C00281BD02570A571E58110
:104200002572E08CFF21401C80B2F531E0848842A9
:1042100004D3E5848021EA48FFF71FF8608C401C36
:1042200080B26084322803D36584E07900287AD094
:104230007BE0A079401CC0B2A0710A2851D320783D
:10424000002851D101262670E581E179207A0A46BD
:10425000024302D0012928D046E00120E0716078B5
:10426000002802D0012808D01CE000F073FD208B4C
:1042700001F0BAF801F036F914E000F06BFD01200E
:10428000A0720026208BA76AFDF740F8CE4AB10045
:10429000CE4B761C5F505050402EF8DB00F01CFED9
:1042A00001202072012020721BE000281CD16078C0
:1042B000002819D1208B0090608B01900222694662
:1042C000C348FEF7B3F9002802D072B6FEE7C4E097
:1042D000E5710C20208400F0D5FF607801F034FAFD
:1042E0002672207800288CD0E089E126401C80B21C
:1042F000F600E081B04284D3E079012810D1207A21
:1043000000280DD1607801280AD1E571A5720C2032
:10431000208400F0B7FF607801F016FA01202072C7
:10432000E6816EE7FFE701F01FF91021A448FEF7D0
:104330008FFFFF262D3600287ED0A078002800D0E1
:10434000A57025712582A58201210520C9030007DA
:10435000FEF77EFF002870D0E078002800D0E570DE
:1043600065716582E582A08B401C80B2A0831E2807
:104370003FD3984E00203246A58310324100401CA6
:10438000735AC0B253520828F8D3042000F082FABE
:10439000FEF762F8E06201F0A9F90646A062208B00
:1043A000FCF7B4FF014689483246283801F05CF931
:1043B000FCF768FF80B28849E08309684863A07A07
:1043C000002816D0A08C401C80B2A084142810D3E2
:1043D000A584667A7D49B700A06AC851208BFCF796
:1043E00095FF7949761CC851B006800E607200F0C6
:1043F00073FD206B401C206321282ED32563A06A07
:10440000FCF740FE228B0092024672480B4673A1D5
:104410005438FBF7D7FE6F485438FBF7E3FF00240E
:104420006C4982B2E44323465439724800F0CAF919
:1044300068484388028801E010E067E06EA15438C4
:10444000FBF7C0FE63485438FBF7CCFF614982B2EA
:1044500023465439674800F0B5F9FEBD2079401C69
:10446000C0B220710A2823D3A078002824D10120CB
:10447000A0702582A582E079002802D001280CD006
:104480001AE06078012817D8002804D00020607056
:1044900001F05AF90CE00120F9E7607800280BD10F
:1044A000208B502801D2401C208380B200F09CFF5A
:1044B000A078002800D147E7208A401C80B22082E3
:1044C000B042F8D3A08A401C80B2A0823228F2D336
:1044D000A582E07900280DD00128ECD16078002871
:1044E000E9D1208B5028E6D2401C80B2208300F016
:1044F0007BFF29E760780128DDD8002804D0002060
:10450000607001F021F91FE70120F9E76079401C94
:10451000C0B260710A2823D3E078002824D101209A
:10452000E0706582E582E079002802D001280CD095
:104530001AE06078012817D8002804D000206070A5
:1045400001F002F90CE00120F9E7607800280BD1B6
:10455000208B142801D9401E208380B200F044FF34
:10456000E078002800D1FEE6608A401C80B26082BC
:10457000B042F8D3E08A401C80B2E0823228F2D305
:10458000E582E07900280DD00128ECD16078002880
:10459000E9D1208B1428E6D9401E80B2208300F098
:1045A00023FFE0E660780128DDD8002804D0002051
:1045B000607001F0C9F8D6E60120F9E70004004078
:1045C00000040050000000201C0300201C020020FA
:1045D00000F80008E4000020DC04002054656D7041
:1045E00065726174757265313A20252E32662C250C
:1045F000640D0A007405002063757272656E743A6A
:104600002025642C25640D0A00000000704710B5B9
:10461000014680310A79012A15D001220A7124222B
:104620008A600268136814686408640014600122D8
:10463000520793430022426600680360202088608E
:104640000A71104610BD022010BD70B50446054623
:104650008034207901281AD0012020712420A06004
:10466000286806680268520852000260286882685A
:1046700007235B069A430A438260284601F0C0FA8A
:10468000286806602020A0600020207170BD0220F4
:1046900070BD70B50446054680342079012819D0D4
:1046A000012020712420A060286806680268520852
:1046B0005200026028688268D200D2080A438260F1
:1046C000284601F09DFA286806602020A06000209E
:1046D000207170BD022070BD70B5040005D0254664
:1046E0008035A868002802D006E0012070BD0020B7
:1046F0002871204600F026F82420A8602068016870
:10470000490849000160A06A002802D0204601F053
:1047100099FA204601F08AFB0128E7D02068416819
:104720000922D20291434160206881682A22914384
:10473000816020680168012211430160204601F078
:10474000E7FA70BD30B58DB0044614216846FBF71A
:1047500089FE182105A8FBF785FE184920688842C4
:1047600029D10124002505A806950594FEF716FE1B
:10477000002801D0FDF7E1FE1148026801218903FC
:104780000A430260006808400B900D484038416BB6
:1047900021434163406B0295C007C00F0B9003207B
:1047A0004002009002200190052069460395049480
:1047B0000007FEF79FFC0DB030BD0000003801403F
:1047C00040100240FFB5064604468036B06883B00C
:1047D0000D46202802D0022007B0F0BD002D0CD0DD
:1047E0000598002809D00120A1680003814206D164
:1047F0002069002803D1E80701D00120ECE7002060
:1048000030612120B060FEF737FD01902746403728
:104810000598B8820598F8820120A16800038142BA
:1048200002D12069002802D00295002515E0002061
:10483000029012E000228021204601F0ABFB00280C
:1048400018D10298002819D021680078886202984F
:10485000401C0290F88A401EF882F88A019B0028CA
:1048600006980090E6D100224021204601F092FBFC
:1048700000280AD02020B0600320ADE728882168F6
:10488000C005C00D8862AD1CE4E72020B0600020A8
:10489000A2E7FEE770B5044601F0BCFE204D2149B9
:1048A0000A266A7B2B4666433C337118002A0CD0DB
:1048B0001A5D002A16D055004D19403DED8F461B5C
:1048C0003236642E0CD9284670BD5600521CD2B226
:1048D0008853052AF9D3052119550121697370BD43
:1048E000052A04D255004853521C1A5509E00022EB
:1048F0005300CC18521C6488D2B2CC52042AF7D38D
:104900000881002002465300CB5A521C1818D2B21C
:10491000052AF8D30521FBF7A7FD80B270BD000082
:1049200000000020A40100208068C007C00F70476D
:104930008068C007C00F704780684007C00F70478D
:10494000C0680005800F01D000207047012070472B
:10495000026807239B059A430A430260704710B51B
:1049600043690424214007248C40A3438A40134315
:10497000436110BDFEB500244248009401944049B3
:104980000294016084600905C460416004264912F4
:1049900046610161047644760125857608274462E4
:1049A0000146C761203184620D73046306224463AB
:1049B00082630C77C464FEF72DF8002801D0FDF760
:1049C000BCFD314802906946009501942D48FDF7E1
:1049D0000BFF002801D0FDF7B0FD2C480090694680
:1049E00001962848FDF700FF002801D0FDF7A5FD3E
:1049F00027480090694601972248FDF7F5FE0028F8
:104A000001D0FDF79AFD234800900C2001906946E3
:104A10001C48FDF7E9FE002801D0FDF78EFD1E4879
:104A200000901020019069461648FDF7DDFE002831
:104A300001D0FDF782FD19480090142001906946CD
:104A40001048FDF7D1FE002801D0FDF776FD14488F
:104A500000901820019069460A48FDF7C5FE00281D
:104A600001D0FDF76AFD0F4800901C2001906946B7
:104A70000448FDF7B9FE002801D0FDF75EFDFEBD3C
:104A8000002401401C04002004FFFF070200000472
:104A9000040000080800000C1000001020000014A2
:104AA000001000B0002000B408B50848816B012256
:104AB00011438163806B1040002200901146092051
:104AC000FEF742FC0920FEF733FC08BD001002404F
:104AD00070B586B014216846FBF7C4FC2548426BCC
:104AE00004210A434263426B0A400592416B012450
:104AF00021434163416B21400591426B02210A43EE
:104B00004263406B1C4E08400590002280213046D5
:104B1000FEF7ABFBE00300900025052069460195F8
:104B200002940007FEF7E6FA10200090694601950E
:104B300002943046FEF7DEFA202000902120000487
:104B40000190694602943046FEF7D4FA8020694607
:104B500031C10320039069463046FEF7CBFA0022AC
:104B600001210720FEF7F0FB0720FEF7E1FB06B06E
:104B700070BD0000001002400004005010B59CB051
:104B8000002419941A9417941894149415941C21C1
:104B90000DA81694FBF766FC34216846FBF762FC0F
:104BA0003348324901603F218460416004614461BF
:104BB00030498461C160FFF72BF8002801D0FDF770
:104BC000BCFC01200003179017A92948FFF79EF8A5
:104BD000002801D0FDF7B1FC2548FFF778FA00283E
:104BE00001D0FDF7AAFC1494159414A9204816943A
:104BF000FEF7DCFF002801D0FDF79FFC60200D9040
:104C0000642013940E900F94109411941294002227
:104C10000DA91748FFF7C7F9002801D0FDF78DFC53
:104C200004220DA91248FFF7BEF9002801D0FDF7B4
:104C300084FC0120009440030590019402940494A4
:104C40000003039406940794099008940A940B9423
:104C500069460C940648FEF755FF002801D0FDF781
:104C60006CFC0348FFF768F91CB010BD002C014034
:104C7000DC040020E703000010B588B00024009495
:104C800001941748029403940494059413490694DC
:104C900001603F218460416012490461C16080214C
:104CA0008161FEF7B5FF002801D0FDF746FC012029
:104CB0000003009069460A48FFF728F8002801D051
:104CC000FDF73BFC049404A905480694FEF76EFF2B
:104CD000002801D0FDF731FC08B010BD00040040F1
:104CE00028050020E703000010B5184816490160A8
:104CF000E1214902416000218160C160016181615F
:104D0000C16101620C22416242618162FFF7E4FCF1
:104D1000002801D0FDF711FC00210C48FFF7B9FC79
:104D2000002801D0FDF709FC00210848FFF78DFCA1
:104D3000002801D0FDF701FC0448FFF768FC0028BB
:104D400001D0FDF7FAFB10BD0038014074050020CA
:104D5000FEE7000010B50021074C0A460020CB01F9
:104D60001B191A54401CC0B28028FAD3491CC9B27E
:104D70000829F3D310BD000024060020F0B57F28D9
:104D800025D83F2923D88418802C02D98022121AD2
:104D9000D2B2CC18402C02D940235B1ADBB2851862
:104DA000CE1812E04F077F0F0122BA40084BCF0800
:104DB000FF010446FB1804E01F5D97431F55641C68
:104DC000E4B2A542F8D8491CC9B28E42EAD8F0BD77
:104DD00024060020FFB5044600201E460D46174657
:104DE00001900090B1420DD1BC4208DD2746144627
:104DF00005E02946E0B200F05BF8641C24B2BC4236
:104E0000F7DDFFBDBC420DD1B54208DD1D460E46A3
:104E100005E0E9B2204600F04BF86D1C2DB2B5421A
:104E2000F7DDFFBDBC4203DD274614461D460E4696
:104E3000B54203DD6D42764201200190701B391BA3
:104E4000884207DD20462C4605463846374606464A
:104E500001200090721B5100381B121A52000E1ACA
:104E60000292039119E06042C1B203E06842C1B20C
:104E700003E0E1B2E8B201E0E9B2E0B200F018F814
:104E8000BC42CEDA641C24B2002E01DA039802E0A0
:104E90006D1C02982DB2301806B2019800280098B7
:104EA00002D00028E2D0DEE70028E5D0E1E70000EC
:104EB00010B57F280CD83F290AD8CA08D301054A63
:104EC0004C079B181A5C640F0121A1400A431A5435
:104ED00010BD000024060020FEB52E2380221221E2
:104EE0000020FFF74BFF3F237F2219460020FFF7EA
:104EF00071FF00223F2312211046FFF76BFF0024B1
:104F00003F250A206043281AC1B20B460322002025
:104F1000FFF760FF641C052CF3DB3E4801903E4820
:104F200000240090A0003D49029067000858BE1C74
:104F3000019901F095FC009901F02EFCFCF77CF939
:104F40003F210D1A3549029840184068019901F037
:104F500087FC009901F020FCFCF76EF93F21081A4C
:104F6000122D01DA122502E03F2D00DD3F25122827
:104F700001DA122002E03F2800DD3F20C3B2F2B286
:104F8000E9B2F8B2FFF726FF641C3F2CCADB00240D
:104F90003F26600002902248A700C059019901F005
:104FA0005FFC009901F0F8FBFCF746F9351A122D69
:104FB00001DA122502E03F2D00DD3F25E00704D194
:104FC0000298E9B2C0B2FFF773FF641C3F2CE0DB2C
:104FD0000521062313A2084600F070FA0624134D9B
:104FE00000940323EA8B0521232000F0D9F906233E
:104FF0000FA20521462000F061FAA86AFCF742F9E9
:1050000082B2022305215220009400F0C9F900F079
:1050100069FAFEBD000070414992243F1C02002045
:105020001C03002050574D3A0000000000000020F3
:10503000543A0000FFB5164600250FE00198002401
:10504000471907E00098F9B20019C0B2FFF730FF26
:10505000641CE4B2B442F5D36D1CEDB203988542F2
:10506000ECD3FFBD00B500217D2287B0D200002027
:10507000401C9042FCD3491C9142F8D30F48426B2C
:1050800002210A434263406B0840059014216846A0
:10509000FBF7E8F911200190002002900320039013
:1050A0000002009069460648FEF724F8012000F04F
:1050B00093FA012000F09AFA07B000BD00100240F8
:1050C0000004005070B50024054680263046E040BC
:1050D000284000D0012000F089FA012000F07CFA7D
:1050E000002000F079FA641CE4B2082CEED3012011
:1050F00000F072FA002000F06FFA70BD10B50120C8
:1051000000F074FA012000F067FA002000F06EFA57
:10511000002000F061FA10BD10B5002000F066FA22
:10512000012000F059FA012000F060FA10BD10B51E
:10513000FFF798FFAE2000F063FAD52000F060FA88
:10514000802000F05DFAA82000F05AFA3F2000F01D
:1051500057FAD32000F054FA002000F051FA402012
:1051600000F04EFAA12000F04BFAC82000F048FAF7
:10517000DA2000F045FA122000F042FA812000F017
:105180003FFAFF2000F03CFAD92000F039FAF12074
:1051900000F036FADB2000F033FA302000F030FA6D
:1051A000A42000F02DFAA62000F02AFA8D2000F0AD
:1051B00027FA142000F024FAAF2000F021FA10BDE5
:1051C0000246012000E05043491EFCD27047000017
:1051D000F0B57F2825D83F2923D88418802C02D900
:1051E0008022121AD2B2CC18402C02D940235B1A6A
:1051F000DBB28518CE1812E04B075B0F01279F40EA
:10520000084ACB08DB0104469A1804E0135D7B4092
:105210001355641CE4B2A542F8D8491CC9B28E42A9
:10522000EAD8F0BD2406002010B5891CCCB2B0210C
:10523000084300F0E5F92009103000F0E1F92007FB
:10524000000F00F0DDF910BD08B5082B0BD0062BC0
:1052500008D15A43094BD218C03A009208230622BB
:1052600000F048F808BD064B1201D218FF3AFF3A89
:10527000023A102300920822F2E70000B86F0008FB
:10528000C869000810B5FFF765FD3420082313A294
:10529000002100F013F91248114A008C0623C0B215
:1052A0004C32102100F00AF90C2419212046FFF796
:1052B000FFFD641CE4B2742CF7D32824062309A252
:1052C0002321204600F0FAF8062308A232212046C6
:1052D00000F0F4F800F006F910BD0000484F54004B
:1052E0000000002054617267657400005265616CB3
:1052F00069747900FFB585B005981D4614460E46C1
:105300007F2848D83F2E46D8FFF738FD7107490F50
:105310000291F1088C466D1EE917490F49190020CA
:10532000CB105B1C35E000212FE0059A52187F2A34
:105330002DD865462D180495072D2CD8EE01174D54
:10534000771901970097BD5C074667430E9E039748
:105350007618B646BF5D029EB7403D43009FBD54E0
:10536000049D6D1C072D0ED8019D7646AD18803525
:1053700000952A78039D0827AD5D029EBE1BF5406F
:105380002A43009D2A70491CC9B2A142CDD3401CBA
:10539000C0B28342C7DC09B0F0BD00002406002083
:1053A000FFB581B01D46074600240A9E17E0291B61
:1053B0000A20491EFFF704FF01460398FBF754F843
:1053C0000A21FBF751F820460A467043C0193032D3
:1053D000C0B233460299FFF737FF641CE4B2AC4217
:1053E000E5D305B0F0BD0000F0B50446322389B026
:1053F0004E220A211846FFF7C1FC002105AF6018B4
:105400004A00801E491CB8520529F8DB24A103C9B3
:105410000291019024A103C9002401AD04910390DD
:1054200027E0022C25D1684680790A23401EC1B2AC
:105430006846807B1222801EC0B2FFF7FBFD6846E3
:10544000028B1BA1FAF7BEFE00260CE003A8015D4B
:1054500006207043081869468A5DC0B2295D06239C
:10546000FFF7F2FE761C6846FAF7BCFFB042EDD8B3
:10547000641C0620009060003A5A03AE295D305D3E
:105480000223FFF78DFF641C052CCADB062309A24B
:1054900023210F2000F012F800F024F809B0F0BD2D
:1054A0000F19232D370000004B4641464B000000EA
:1054B000256400005461726765743A00FFB51E46AA
:1054C00015460746002409E020467043C019C0B2C3
:1054D00033460199FFF7B8FE641CE4B22A5D002A46
:1054E000F2D1FFBD70B5084D002400212046FFF722
:1054F0009BFEE0014019802100F092F8641CE4B2A8
:10550000082CF2D370BD000024060020F8B5164622
:1055100005467F2825D83F2923D8A819802802D9F5
:105520008020401BC6B2C818402802D94020401A2B
:10553000C3B2C818CC08401EC117490F0818C710BD
:105540007F1C0CE029462046FFF76EFE0548E1016E
:1055500008184019314600F063F8641CE4B2A74211
:10556000F0DCF8BD2406002010B5082380221021AD
:105570000020FFF703FC174C0623208C2246C0B204
:105580004C321021FFF79AFF208C401E20842046C9
:105590004C30FAF727FF062148432021615E404244
:1055A000814201DA802020840823802210210020FB
:1055B000FFF7ACFF207B401CC0B220730A2807D342
:1055C00000202073E079002802D1607800F0BCF858
:1055D00010BD00000000002010B50246FF2101317F
:1055E0000148FDF742FE10BD0004005010B5024610
:1055F000012149020148FDF738FE10BD00040050AA
:1056000010B50446FFF77AFD7820FFF75BFD002018
:10561000FFF758FD2046FFF755FDFFF77DFD10BD54
:1056200070B50D460646FFF769FD7820FFF74AFD85
:105630004020FFF747FD002404E0305DFFF742FD06
:10564000641CE4B2AC42F8D3FFF766FD70BD10B540
:105650001830029C0EC000212438016041600161B5
:10566000C1604462816010BDF8B50B460446114626
:10567000184601F0F5F8A060E768054601213846B4
:10568000FBF748FE294601F0DFF8216901F03EF8FA
:10569000216A01F081F806462946E06901F07CF8AC
:1056A00000903946284601F0DBF8A16901F074F852
:1056B000009901F02BF8314601F028F86061626A28
:1056C0000146104601F022F8E56005492561606257
:1056D000884202DA0349884200DC6162606AF8BDF0
:1056E00000803B44000020417047000010B5104985
:1056F000FBF7F2FCFBF7C6FC00F058FD02460B4638
:105700000120C0070B49FBF799FB072252070A4B00
:10571000FBF714F902460B4600200849FBF73EF957
:1057200003225207064BFBF716F9FAF74DFF10BD9F
:1057300000401C466597303FE1796B3F0000F03F29
:105740006612714070470000F8B5064602282AD25A
:10575000154CE07A25463435B04219D0022817D2CC
:1057600087007819C37882784178E85DFFF706FBF7
:10577000E17A2820002902D0012904D008E006237C
:105780000AA2232102E006230AA23221FFF796FE95
:10579000B0004119CB788A784978285CFFF718FD6A
:1057A000E672FFF79FFEF8BD0000002054617267AB
:1057B000657400005265616C6974790010B5FDF77D
:1057C00061FD10BD30B591B034216846FAF74AFE4C
:1057D000002501200D950E950F9540021095FDF7BF
:1057E000B7FD0224E00103900094402005900820BA
:1057F0000A9080030B900794000304950C90099580
:1058000008946846FDF776FF002801D072B6FEE7DF
:1058100007200DA931C102210DA81095FDF764FEE6
:10582000002801D072B6FEE711B030BD704700000D
:1058300010B50248FEF7DCFA10BD0000DC040020C1
:1058400010B50248FEF7D4FA10BD0000280500206C
:1058500070B502681B4B1C4E984201D0B04203D178
:105860007024A2434C682243184C194D984208D02A
:10587000B04206D0174EB04203D0A04201D0A84299
:1058800004D103263602B243CE6832438026B243A7
:105890004E69324302608A68C2620A688262984234
:1058A00003D0A04201D0A84201D1096901630121BE
:1058B00041610169C90703D00169490849000161D3
:1058C00070BD0000002C0140000400400044014075
:1058D000004801400020004010B5CB06DB0E01213E
:1058E000046A99408C430462016A9A401143016240
:1058F00010BD30B58468FF252D021B021343AC4355
:105900000B432343836030BD8268034B1A400A4334
:1059100007210A43826070478FFFCFFFF0B5056A09
:10592000026A52085200026243688269164C184E9D
:10593000224092080C6892001443022295438A6820
:105940002A43124DA84204D0B04202D0114FB842AF
:1059500006D10827BA43CF681743042297433A4633
:10596000A84204D0B04202D00A4DA84206D1032575
:105970002D02AB434D691D438B692B43436084610A
:10598000496841630262F0BD8FFFFEFF002C0140B9
:10599000004401400048014070B5046A026A1023C7
:1059A0009A43026243688269164D2A4003252D02FC
:1059B000AA430D682D021543202294438A681201E0
:1059C0002243114CA04207D18024A243CC68402638
:1059D00024012243B24305E00C4CA04202D00C4CFF
:1059E000A04208D10324A402A3434C69A4001C4391
:1059F0008B699B0023434360856149688163026230
:105A000070BD0000FF8FFFFE002C014000440140EC
:105A10000048014070B5046A026AFF2301339A43CB
:105A200002624368C269164D2A4092080D689200CE
:105A300015430122520294438A6812022243114CF8
:105A4000A04208D11446CA68C614B44312022243C5
:105A50000415A24305E00C4CA04202D00B4CA0421E
:105A600008D103242403A3434C6924011C438B69FC
:105A70001B0123434360C5614968C163026270BD75
:105A80008FFFFEFF002C0140004401400048014010
:105A900030B5046A026A01231B039A430262436819
:105AA000C269114D2A4003252D02AA430D682D021B
:105AB00015430122520394438A68120322430B4C7C
:105AC000A04205D00A4CA04202D00A4CA04205D107
:105AD0000124A403A3434C69A40123434360C5618B
